:020000040800F2
:10000000C08B00209D0100089D1D00089D1900085F
:10001000991D0008F9020008392A000800000000B4
:10002000000000000000000000000000D1220008D5
:100030000503000800000000D11E0008F924000894
:10004000B7010008B7010008B7010008B7010008B0
:10005000B7010008B7010008B7010008B7010008A0
:10006000B7010008B7010008B7010008B701000890
:10007000B7010008B7010008B7010008B701000880
:10008000B7010008B7010008B7010008B701000870
:10009000B7010008B7010008B7010008B701000860
:1000A000B7010008B7010008B7010008B701000850
:1000B000B7010008B7010008B7010008B701000840
:1000C000B7010008B7010008B7010008B701000830
:1000D000B7010008B7010008B7010008B701000820
:1000E000B7010008B7010008B7010008B701000810
:1000F000B7010008B7010008B7010008B701000800
:10010000B7010008B7010008B7010008B7010008EF
:10011000B7010008B7010008B7010008CD250008A5
:10012000B7010008B7010008B7010008B7010008CF
:10013000B7010008B7010008B7010008B7010008BF
:10014000B7010008B7010008B7010008B7010008AF
:10015000B7010008B7010008B7010008B70100089F
:10016000B7010008B7010008B7010008B70100088F
:10017000B7010008B7010008B7010008000000003F
:10018000B7010008B7010008DFF80CD000F08CF8C8
:1001900000480047312C0008C08B002006488047EB
:1001A00006480047FEE7FEE7FEE7FEE7FEE7FEE75C
:1001B000FEE7FEE7FEE7FEE7B92500088901000833
:1001C0002DE9F05F0546002092469B46884606468C
:1001D000814640241BE0284641464746224600F01F
:1001E00053F853465A46C01A914110D31146184647
:1001F000224600F03AF82D1A67EB01084F462246D6
:100200000120002100F031F817EB00094E41201EBB
:10021000A4F10104DFDC484631462A464346BDE8E6
:10022000F09F40EA01039B0703D009E008C9121FB1
:1002300008C0042AFAD203E011F8013B00F8013BA0
:10024000521EF9D27047D2B201E000F8012B491ECC
:10025000FBD270470022F6E710B513460A46044663
:100260001946FFF7F0FF204610BD202A04DB203A94
:1002700000FA02F1002070479140C2F1200320FAF9
:1002800003F3194390407047202A04DB203A21FAF7
:1002900002F00021704721FA02F3D040C2F120029F
:1002A0009140084319467047064C074D06E0E06848
:1002B00040F0010394E8070098471034AC42F6D3AD
:1002C000FFF766FF6881000888810008B0B5012843
:1002D000B8BFB0BD40F20044451CC4F2020400BFE8
:1002E0002046102100F01AFC012002F0B3FC013D71
:1002F000012DF5DCB0BD0000FEE7000041EA002062
:1003000070470000704700002DE9F04381B00646B9
:10031000147803F007000D460FF21401089F01EB5B
:10032000800140F220099046C2F20009DFE800F0A7
:100330000414233241505F6E99F81C0061B2421ED2
:1003400018BF0122B1F1FF3FD8BF0246B0B2A9B237
:1003500001F0B0FE013F6CD099F81C00731C421EE6
:1003600018BF0122610648BF0246A9B298B201F047
:10037000A1FE013F5DD099F81C00B31C421E18BFBE
:100380000122A10648BF0246A9B298B201F092FE2E
:10039000013F4ED099F81C00F31C421E18BF0122E9
:1003A000E10648BF0246A9B298B201F083FE013FC0
:1003B0003FD099F81C00331D421E18BF01222107AF
:1003C00048BF0246A9B298B201F074FE013F30D096
:1003D00099F81C00731D421E18BF0122610748BF17
:1003E0000246A9B298B201F065FE013F21D099F80A
:1003F0001C00B31D421E18BF0122A10748BF0246C0
:10040000A9B298B201F056FE013F12D099F81C0033
:10041000F31D421E18BF0122E10718BF0246A9B210
:1004200098B201F047FE013F03D018F8014F08369B
:1004300082E701B0BDE8F08380B500F045F945F6EC
:10044000E430C0F6000000F057FA04A040210C226E
:1004500000F0E2F900F066FA80BD00BF475549316F
:1004600000000000B0B540F23C54C2F20004256820
:1004700002F000FCA5B1216801F5FA61884211D9AA
:1004800002F0F8FB216841F288321144884215D904
:1004900002F0F0FB216801F5FA5188422DD90020C5
:1004A0002060B0BD00F010F945F6E430C0F6000061
:1004B00000F022FA1BA040210C2219E000F004F900
:1004C00045F6C430C0F6000000F016FA1CA040212A
:1004D000002200F0A1F91EA06021102200F09CF97A
:1004E0001EA04021202200F097F920A06021322296
:1004F00000F092F900F016FAB0BD00F0E5F848F20D
:100500002C10C0F600000021002200F09FF948F2F4
:100510001C10C0F600004021002200F097F900F006
:1005200001FAB0BDB7C0BBF0A1A2B7C0B5C1D4B687
:100530000AB3CCBCE0B2E2C6F7C9E8BCC600000012
:10054000B3C9D4B1313AD6DCBFACCEC40000000090
:10055000313830343138333800000000B3C9D4B1F9
:10056000323ABAFAD1E5B3C900000000313830346C
:100570003138313400000000EFF3108072B600BF54
:10058000FEE7000080B50D2808BF80BD0A2802D113
:1005900000F0B4F880BD40F22001C2F20001096908
:1005A0000968884780BD000010B582B09446028873
:1005B0004388B0F804E0846808466146CDF800E05E
:1005C000019401F0FBF902B010BD00002DE9F043E9
:1005D00083B040F22008C2F20008D8F81050044658
:1005E000A9690846214600F03DF8C0B30188466875
:1005F000671A06EBC70999F80240B8F91400B8F970
:10060000161016F837202B7DD9F80450CDE9004597
:1006100001F0D4F9D8F81000027D417D914213D940
:10062000B8F81400B8F8163016F8377098F81C604F
:100630001A4407440B44013E91B2BAB29BB218BFB0
:100640000126009601F076FCD8F8100099F8011008
:10065000807DB8F8142010FB0120A8F8140003B026
:10066000BDE8F08305E000BF42888A4228BF70479A
:10067000806818B102888A42F6D9F9E7704700000D
:10068000B0B540F22001C2F200010D690446A9692B
:1006900008462146FFF7E6FF38B101884068611A35
:1006A00010F83100A97D4843B0BD0020B0BD000066
:1006B000012008807047000080B58069FFF7D2FFF5
:1006C000002818BF012080BD80B50020002100F067
:1006D000EBF8002000218022402300F001F880BDCB
:1006E00080B582B04FF0000C80B289B292B29BB25A
:1006F000CDF800C001F01EFC02B080BD80B500F056
:10070000B3F840F22001C2F20001CA8A1044C88244
:1007100080BD0000002808BF70472DE9F04F83B06E
:10072000074600F0A1F840F22006C2F20006B6F833
:1007300014A0834600F0A0F8F18A0090081AF08215
:1007400011E000BF708B00F0030001380228504612
:1007500028BF0020B08238780A2808BFF48217F832
:10076000010B002841D0387800283ED0384647F6A3
:10077000FF7100F0E9F805463846294600F0E0F838
:10078000718B01F00301012906D0022912BF00215B
:1007900000EBD071491000E00146B28AB6F816901D
:1007A000511A01EB0008A8F1010009EB0B04ADF8A8
:1007B0000800601EB182ADF80410ADF80A0038469A
:1007C000294601AAADF8069000F0B0F8384629464F
:1007D000A6F8169000F0A4F8395C07440D29B1D0B2
:1007E0000A29AFD0A6F81480B9E7F08A0099084426
:1007F000718BF08221F00300708303B0BDE8F04FED
:100800007047000080B540F22003C2F200039982D5
:10081000DA82FFF77FFF80BDF0B581B00D4640F270
:100820002001C2F20001B1F91A10064641F002009F
:10083000144600F06BF80746304629462246FFF77B
:10084000E1FF384600F062F801B0F0BD80B5FFF777
:10085000ABFE80BD80B540F22001C2F20001096903
:100860004968884780BD000040F22000C2F20000C5
:100870000069407D7047000040F22000C2F2000095
:10088000418B01F00C010C2918BF082903D1006924
:10089000007D4008704704291CBF00207047006994
:1008A000007D01387047000010B50C4602F062F977
:1008B000204602F065F9002010BD000080B540F22E
:1008C0004000C2F200002E21017040F220007F2281
:1008D000C2F200000021C0F23F02C0E9001244F65B
:1008E0002872C0F60002C0E904210121417201779B
:1008F00001F070FC002080BD40F22002C2F2000234
:1009000001461069002918BF1161704740F22003A9
:10091000C2F20003B3F91A10024608465A83704720
:100920000846704780B501F0FFFB80BD80B51268B6
:1009300040F22003C2F200035A6102F0B5F880BD14
:1009400080B502F0D1F880BD80B502F0F5F880BD29
:10095000B0B5044600F0F0F8054640F20800C2F2D7
:1009600000000078611C18BF044400BF00F0E4F8E8
:10097000401BA042FAD3B0BD2DE9F04F83B000F187
:100980003E4202F1FF724FEAB22241F60047019265
:10099000C4F2020708224FF0010E00254FF0000AB2
:1009A0004FF00008B84208BF072200920AE000BFDB
:1009B00008F101080AF1040AB8F1100F05F1020567
:1009C00000F0A2800C680EFA08FB14EA0B09EFD0C5
:1009D0004C6804F0030CACF1010EBEF1010F12D80B
:1009E00082680323CE6803FA05F7BA4306FA05F7CF
:1009F0003A4382604268C4F3001722EA0B0207FA06
:100A000008F73A434260BCF1030F1CD0C2680323CD
:100A10008E6803FA05F7BA4306FA05F73A43BCF1C4
:100A2000020FC2600FD16FF0030202EA58020244C3
:100A30000AF01C060F23176A03FA06F40B69A74392
:100A4000B3403B431362026803234F68AB409A43B1
:100A500007F00303AB401A43FB004FF0010E0260A6
:100A6000A6D5002243F644030292C4F202031A6898
:100A700043F6004442F480421A601A68C4F201044A
:100A800002F480420292029A28F003024FF6084BC9
:100A90002244CFF6FF7B52F80B300AF00C070F26EA
:100AA000BE4023EA060C019B009E072B38BF1E4662
:100AB00006FA07F747EA0C0342F80B3022684B6846
:100AC00042EA0907DE0358BF22EA09072760626885
:100AD0009E0342EA090758BF22EA09076760A26835
:100AE000DE0242EA090758BF22EA0907A76043F677
:100AF0000C47C4F201073A689B0242EA090358BF57
:100B000022EA09033B6053E703B0BDE8F08F000021
:100B10000069084018BF012070470000426902EADE
:100B20000103914341EA034181617047002A08BFF4
:100B3000090481617047000047F6E470C2F20000CA
:100B40000068704740F2080047F6E471C2F2000006
:100B5000C2F2000100780A68104408607047000083
:100B600080B543F60040C4F20200016841F4007110
:100B70000160016841F480610160016841F48071A5
:100B80000160032000F088F8002000F005F800F074
:100B90004BF8002080BD000010B586B0014637201C
:100BA0000022002400F068F8372000F061F843F6D6
:100BB00040000194C4F20200016841F0200101608C
:100BC0000068694600F020000190019801A800F03B
:100BD00017F900F03BF94DF683614000C4F21B3178
:100BE000A0FB01014FF0FF3000EB914140F2B0401B
:100BF00041F20042C2F20000C4F2000240F2E733C8
:100C0000C0E90021C0E90243046100F07DFB10B19E
:100C1000012006B010BD40F2B040C2F2000000F06A
:100C2000BDFB06B010BD000080B582B0002043F6C9
:100C300040010190C4F202014A6842F480424A60D5
:100C40004A6802F480420192019A009008680022EA
:100C500040F08050086008680F2100F0805000903C
:100C600000986FF0010000F007F802B080BD0000AE
:100C700080B501F08BFF80BD70B514460D46064669
:100C800001F094FF2946224601F08AF801463046D9
:100C900001F094FF70BD000080B501F0A9FF80BD98
:100CA0002DE9F041002800F08B8043F60808C4F2DB
:100CB00002080446D8F8F8030D4600F00700884201
:100CC00007D288F8F853D8F8F80300F00700A842D4
:100CD00076D12068810717D5410705D5D8F80010CF
:100CE00041F4E051C8F80010010705D5D8F800100C
:100CF00041F46041C8F80010D8F80010A26821F053
:100D0000F0011143C8F80010C0073FD1D8F8F8032C
:100D100000F00700A84207D988F8F853D8F8F8037C
:100D200000F00700A8424BD12068410707D5D8F84A
:100D30000010E26821F4E0511143C8F800100007E8
:100D400008D5D8F80000216920F4604040EAC100CD
:100D5000C8F8000000F09EF8D8F8001044F6BA6217
:100D6000C1F30311C0F60002515C40F2040220FA04
:100D700001F140F20C00C2F200000068C2F2000271
:100D80001160FFF709FF0020BDE8F0816068811E57
:100D9000022907D258F8081C89015CBF0120BDE870
:100DA000F08110E0012807D158F8081C89035CBFC6
:100DB0000120BDE8F08106E058F8081C890702D43C
:100DC0000120BDE8F081D8F8001021F003010843AC
:100DD000C8F80000FFF7B0FE064641F2883700BFB2
:100DE000D8F80000616800F00C00B0EB810F8DD0E6
:100DF000FFF7A2FE801BB842F2D90320BDE8F081C4
:100E00000F22026043F60802C4F20202136803F0E4
:100E100003034360136803F0F0038360136803F473
:100E2000E053C360D2F800C04FF4E05303EADC03A0
:100E30000361D2F8F80300F0070008607047000073
:100E400040F20400C2F200000068704780B5FFF76E
:100E5000F7FF43F60801C4F20201096844F6CA62CA
:100E6000C1F38221C0F60002515CC84080BD000081
:100E700080B5FFF7E5FF43F60801C4F202010968F7
:100E800044F6CA62C1F34231C0F60002515CC84068
:100E900080BD000010B543F60404C4F2020460688B
:100EA00000F00C0142F200400829C0F2F40007D023
:100EB000042918BF10BD41F20020C0F27A0010BD15
:100EC000216801F03F02216823684902C3F38811B9
:100ED00005D4A1FB00010023FFF772F906E041F2FF
:100EE0000020C0F27A004843B0FBF2F021680222F1
:100EF000C1F3014102EB4101B0FBF1F010BD000074
:100F00002DE9F04182B0002800F0A280044600786C
:100F100043F60006C007C4F2020643D0B06800F0F2
:100F20000C00042805D1306880033BD56068C8BB3D
:100F30008EE0B06800F00C00082802D17068400212
:100F4000F1D46568B5F5A02F0AD0B5F5803F0BD078
:100F5000306820F480303060306820F4802006E073
:100F6000306840F480203060306840F48030306079
:100F7000FFF7E2FD002D054611D000BF3068800369
:100F800010D4FFF7D9FD401B6428F7D922E100BF38
:100F9000FFF7D2FD401B64284FF0030055D830689E
:100FA0008003F5D4207880071AD5B06810F00C0FB4
:100FB00009D0B06800F00C00082840F08A80706802
:100FC000400200F186803068800702D5E068012881
:100FD0003ED13068216920F0F80040EAC10030605D
:100FE0002078000738D4207840074CD4A5695DB339
:100FF000B06800F00C00082840F09E80012D27D03A
:101000007068E16900F480028A4221D1216A00F00F
:101010003F028A421CD147F6C071626A0140B1EBBF
:10102000821F15D1A26A0023CFF6FF7303EBC232F1
:1010300000F440316FF30F02914209D1E16A00F0F0
:101040007060B0EB016F03D1002002B0BDE8F08109
:10105000012002B0BDE8F0816069002840F2000084
:10106000C4F2472057D00121C0F8801EFFF764FD6D
:10107000054600BF706F8007B5D4FFF75DFD401BCC
:101080000228F7D9A6E0306C10F080580AD1002071
:101090000190306C40F080503064306C00F0805033
:1010A0000190019847F20007C4F200073868C005B4
:1010B00024D4386840F480703860FFF73DFD054661
:1010C0003868C0051AD4FFF737FD401B0228F7D94E
:1010D00080E0E068002851D00020C4F247200121C0
:1010E0000160FFF729FD0546306880073FF571AFC5
:1010F000FFF722FD401B0228F6D96BE0A568052DFD
:1011000050D0012D52D0306F20F001003067306F89
:1011100020F004004DE00021C0F8801EFFF70CFD18
:10112000054600BF706F80077FF55DAFFFF704FDD8
:10113000401B0228F6D94DE00027C4F247270020C3
:101140003866FFF7F9FC022D05460BD130688001A7
:1011500058D5FFF7F1FC401B02284FF00300F5D9EA
:1011600073E700BF306880017FF56EAFFFF7E4FCE6
:10117000401B02284FF00300F4D966E70020C4F2B8
:10118000472000210160FFF7D7FC05463068800743
:101190007FF526AFFFF7D0FC401B02284FF003007D
:1011A000F4D952E7306F40F004003067306F40F000
:1011B00001003067FFF7C0FC002D054641F288377B
:1011C00014D000BF306F800713D4FFF7B5FC401B6D
:1011D000B842F7D9032002B0BDE8F081FFF7ACFCBC
:1011E000401BB8424FF003003FF62FAF306F80072F
:1011F000F4D4B8F1000F7FF4F9AE306C20F08050D9
:101200003064F3E604F11C052FCD08430021CFF62E
:10121000FF7140EA821001EBC3316FF30F0140EA26
:1012200005600843706001203866FFF785FC0446BE
:10123000306880013FF508AFFFF77EFC001B0228F5
:101240004FF00300F4D900E770470000704700003A
:1012500010B590F83C20012A4FF0020252D0012331
:1012600080F83C3080F83D200268D2F804E0D2F8E3
:1012700008C00C682EF07003234341F2FF74C4F2DF
:101280000004A24253600DDC40F2FF73C4F200037D
:101290009A4215DCB2F1804F29D040F20043C4F2EB
:1012A000000322E040F2FF33C4F201039A4212DC51
:1012B00041F60003C4F200039A4218D0002312E062
:1012C00040F60003C4F200039A4210D040F60043F7
:1012D000C4F2000309E044F20003C4F201039A429D
:1012E00005D040F20043C4F201039A4204D1496898
:1012F0002CF08003194391600121002280F83D10F9
:1013000080F83C20104610BD002804BF0120704723
:1013100010B5044690F83D0028B9002084F83C0040
:10132000204600F01FF8022084F83D002068211DAF
:1013300001F054F9012084F8460084F83E0084F856
:101340003F0084F8400084F8410084F8420084F8AB
:10135000430084F8440084F8450084F83D000020F0
:1013600010BD000081B0006840F20041C4F20001ED
:10137000884201D001B070470020009043F6400041
:10138000C4F20200016841F002010160006800F04F
:1013900002000090009801B07047000090F83D10E6
:1013A00001291CBF01207047022180F83D10006810
:1013B00041F2FF72C168C4F20002904241F00101A3
:1013C000C1600DDC40F2FF71C4F20001884215DCFF
:1013D000B0F1804F29D040F20041C4F2000122E078
:1013E00040F2FF31C4F20101884212DC41F60001F3
:1013F000C4F20001884218D0002112E040F600013A
:10140000C4F20001884210D040F60041C4F200014D
:1014100009E044F20001C4F20101884205D040F223
:101420000041C4F20101884206D1816801F0070140
:10143000062904BF00207047016841F001010160E6
:101440000020704710B5044690F83C0001284FF08A
:10145000020008BF10BD012284F83C2084F83D0042
:1014600020684FF6777382689A4382600A683F2A41
:1014700014DD5F2A18DD602A28D0B2F5005F2DD078
:10148000702A40D1D1E9012CCB68614601F038F9CE
:101490002068816841F07701816034E01F2A0FDC09
:1014A00092B1102A10D02EE0402A23D0502A2AD1FF
:1014B0004B68CA68194601F0FBF92068502120E00A
:1014C000202A01D0302A1ED111461AE04B68CA6882
:1014D000194601F0FFF92068602112E0D1E9012CE2
:1014E000CB68614601F00CF92068816841F48041C5
:1014F000816008E04B68CA68194601F0D9F9206894
:10150000402101F009F9012084F83D00002084F811
:101510003C0010BD7047000010B50446006801692A
:10152000890744BFC1685FEA817138D420680169C6
:10153000490744BFC1685FEA41713CD42068016932
:10154000090744BFC1685FEA017141D4206801699D
:10155000C90644BFC1685FEAC16145D4206801691A
:10156000C9071CBFC1685FEAC1714AD1206801691F
:10157000090644BFC1685FEA016149D42068016976
:10158000490644BFC1685FEA416148D420680169E7
:10159000890644BFC1685FEA816147D410BD6FF01E
:1015A00002010161012121778069800745D0204631
:1015B000FFF7B0FF47E06FF00401016102212177DE
:1015C000806910F4407F41D02046FFF7A3FF43E03D
:1015D0006FF00801016104212177C06980073ED0C6
:1015E0002046FFF797FF40E06FF0100101610821EE
:1015F0002177C06910F4407F3AD02046FFF78AFF78
:101600003CE06FF001010161204600F0E9F8ADE730
:101610006FF0800101612046FFF716FEAEE76FF024
:1016200040010161204600F0E7F8AFE76FF02001CC
:1016300001612046FFF70AFE10BD204600F050F879
:10164000204600F0CBF8002020776FE7204600F01E
:1016500047F8204600F0C2F8002020776EE72046C9
:1016600000F03EF8204600F0B9F8002020776DE742
:10167000204600F035F8204600F0B0F80020207732
:101680006CE7000080B586B040F200410068C4F20B
:101690000001002288420592CDE9032202920192C4
:1016A00001D006B080BD43F630000092C4F20200C3
:1016B000036843F002030360006800F0020000903A
:1016C0000098102001900220CDE90202CDE904200B
:1016D00001F5003001A9FFF74FF906B080BD000009
:1016E00070470000B0B5044690F83C00012804BFE4
:1016F0000220B0BD4FEAB2000D460121032884F854
:101700003C1036D8DFE800F0020A12222068294691
:1017100001F00AF8206850F8181F0EE020682946EA
:1017200001F034F8206850F8181F16E020682946A8
:1017300001F062F8206850F81C1F41F008010160B8
:10174000016821F00401016029690FE02068294641
:1017500001F086F8206850F81C1F41F40061016018
:10176000016821F48061016029690902026811435E
:101770000160002084F83C00B0BD0000002804BFD8
:101780000120704710B5044690F83D0028B90020AC
:1017900084F83C00204600F01FF8022084F83D0049
:1017A0002068211D00F01AFF012084F8460084F80B
:1017B0003E0084F83F0084F8400084F8410084F83B
:1017C000420084F8430084F8440084F8450084F81B
:1017D0003D00002010BD0000704700007047000071
:1017E00080B5006841F20041C4F20001884208BFA0
:1017F000FFF7A8F980BD000070470000002804BF73
:101800000120704710B5044690F83D0028B900202B
:1018100084F83C00204600F021F8242084F83D00A4
:101820002068C16821F40051C160204601F064F8CD
:101830002068016921F490410161416921F02A0188
:101840004161C16841F40051C16000202021206441
:1018500084F83D1084F83E1010BD000080B586B0BD
:1018600041F200010068C4F20101002288420592A1
:10187000CDE903220292019201D006B080BD43F669
:1018800030000092C4F20200436943F01003436148
:10189000436903F010030093009B0092036843F038
:1018A00001030360006800F00100009000984FF40D
:1018B000C06001900220CDE90202032004900720BD
:1018C000059001F5704001A9FFF756F806B080BDFC
:1018D0002DE9F04381B0044690F83D0020280BD15B
:1018E0000E4600294FF0010055D01746002A52D06D
:1018F00094F83C00012803D1022001B0BDE8F08338
:10190000012084F83C004FF0000921201D46C4F856
:10191000409084F83D00FFF70FF9A784E784A168A1
:101920000746B1F5805F07D1206900281CBF30460B
:101930004E46B046064601E04FF0000884F83C9061
:1019400007E000BF16F8010B21684860E08C013801
:10195000E084E08C80B1204680213A462B4601F09D
:1019600039F880B9002EEDD138F8020B21686FF3F9
:101970005F2048600026E9E7204640213A462B4692
:1019800001F028F818B1032001B0BDE8F083202051
:1019900084F83D00002001B0BDE8F083FEE70000C0
:1019A00081B00A200090009830B100BF0098013843
:1019B000009000980028F9D101B070472DE9F0435C
:1019C00083B040F22006C2F200068E46B6F902103D
:1019D000DDF82C90DDF82880A1EB0E079C46012F46
:1019E00006DBACEB0703012B2FDB07FB089901E0BB
:1019F00063467146B6F906700CEB0E05FF432F44A3
:101A0000012F02DBDB1B012B1FDBB6F9044015188D
:101A1000B6F90070E6432E44002EC8BF921B8742E1
:101A20000BDD3F1A27F00706D21B09EBE70930440C
:101A300007F00706012A03DA07E00026012A04DB83
:101A4000CDE90089029600F003F803B0BDE8F08309
:101A50002DE9F04782B0012B15DBDDF83080DDE9A0
:101A60000AA51C4691460E46074600BF3846314639
:101A70002A464346CDF80090FEF746FC5544013C0B
:101A800006F10106F2D102B0BDE8F08780B542F25E
:101A9000CD4045F62842C0F60000C0F60002002105
:101AA00001F020F940F24C01C2F20001086042F25C
:101AB000794045F60442C0F60000C0F6000200215D
:101AC00001F010F940F24801C2F20001086042F250
:101AD000F14045F64C42C0F60000C0F6000200217D
:101AE00001F000F940F25841C2F20001086042F2F0
:101AF0004D4044F6F862C0F60000C0F60002002136
:101B000001F0F0F840F21C01C2F20001086042F25C
:101B1000454044F6D462C0F60000C0F60002002141
:101B200001F0E0F840F21801C2F20001086080BD47
:101B30002DE9F04F87B0002543F630000695CDE93A
:101B40000455CDE902550195C4F20200016841F245
:101B5000000741F0100101600168C4F2020701F0C2
:101B600010010191019901950168012241F0800164
:101B7000016001684FF0010A01F0800101910199B3
:101B80000195016841F002010160016801F0020164
:101B9000019101990195016841F00401016001681A
:101BA00001F00401019101990195016841F00101E1
:101BB000016000684FF47F4100F00100019001983E
:101BC0003846FEF7B3FFA7F5406630464AF2C041FB
:101BD0000022FEF7ABFFA7F5006948464FF470619D
:101BE00000224FF4706BFEF7A1FFA7F58058404626
:101BF0004FF419410022FEF799FF384601210022D7
:101C0000FEF794FF1E2002A902AC81E821043846A9
:101C10002146FEF7B1FE6020CDE9020502200490C6
:101C200038462146FEF7A8FE4FF60170CDE9020ABC
:101C300038462146CDE90455FEF79EFE4FF48060FC
:101C4000CDE9020A30462146CDE90455FEF794FE5F
:101C50004AF2C00002901120CDE90305304621462A
:101C60000595FEF789FE48462146CDE902BACDE941
:101C70000455FEF781FE4FF41940CDE9020A4046B3
:101C80002146CDE90455FEF777FE07B0BDE8F08F99
:101C900010B58EB040F2684040F200420021C2F21E
:101CA0000000C4F20002532340F2E7340D91CDE965
:101CB0000B11CDE90911CDE90711CDE90511CDE9E8
:101CC0000311CDE90111C0E90023C0E9021401614B
:101CD0008161FFF719FB002818BFFEF74DFC4FF498
:101CE00080500A9040F26840C2F200000AA9FFF753
:101CF000A9FB002818BFFEF73FFC40F26840C2F283
:101D00000000FFF73BFD002818BFFEF735FC40F24E
:101D100068400024C2F2000008A9CDE90844FFF79A
:101D200097FA002818BFFEF727FC602001904FF4B7
:101D3000FA70CDE9020440F26840C2F2000001A945
:101D400000220594FFF7CEFC002818BFFEF714FC14
:101D500040F26840C2F20000FFF794FC0EB010BDE4
:101D600080B540F2F84041F20001C2F20000C4F236
:101D7000010100234FF00C0C4FF4E13280E80E001B
:101D8000C0E90333C0E905C3C361FFF737FD00288D
:101D900018BFFEF7F1FB80BDFEE70000FEE7000084
:101DA00000F0070080F00703042B28BF04234FF046
:101DB000FF3C03380CFA03F338BF002099438140FD
:101DC0000CFA00F022EA00000843704710B540F218
:101DD0000044C4F20204204680210122FEF7A6FE40
:101DE000FFF7DEFD204640210122FEF79FFEFFF7B0
:101DF000D7FD204640210022FEF798FE10BD0000CE
:101E000070B540F20045C4F2020504462846402160
:101E100000220026FEF78AFEE0B2C2092846802191
:101E2000FEF784FE6400FFF7BBFD28464021012237
:101E3000FEF77CFEFFF7B4FD284640210022FEF7A6
:101E400075FEFFF7ADFD072E06F10106E4D370BD68
:101E500010B540F20044C4F2020420468021012261
:101E6000FEF764FE204640210122FEF75FFEFFF7E9
:101E700097FD204680210022FEF758FEFFF790FDD7
:101E8000204640210022FEF751FE10BD10B540F261
:101E90000044C4F20204204640210022FEF746FE20
:101EA000204680210022FEF741FEFFF779FD204603
:101EB00040210122FEF73AFE204680210122FEF752
:101EC00035FEFFF76DFD10BD0000000000000000B2
:101ED000EFF30980BFF36F8F154B1A681EF0100FD8
:101EE00008BF20ED108A20E9F04F10602DE90900AD
:101EF0004FF0500080F31188BFF34F8FBFF36F8F07
:101F000001F006FF4FF0000080F31188BDE80900E2
:101F100019680868B0E8F04F1EF0100F08BFB0EC69
:101F2000108A80F30988BFF36F8F704700BF00BF2E
:101F3000340600202DE9F04381B07F2823D889465C
:101F40003F2920D804461044DDF820807F2888BF30
:101F5000C4F1800203EB090011193F2888BFC9F1C1
:101F6000400300208EB29FB2002500BF484481B2DA
:101F7000204632460B46CDF8008000F007F80135C8
:101F8000E8B28742F2D201B0BDE8F0832DE9F04F0C
:101F900085B005467F280C464FF07F0128BF0D46CF
:101FA0007F2A38BF11463F2C4FF03F0A28BF5446C6
:101FB0003F2B38BF9A46681A38BF481BBAEB040358
:101FC0004FF0FF324FF0FF360E9F88BF0126039679
:101FD00098BFA4EB0A038D4238BF01220492020489
:101FE0003CD006B20FFA83FB5E45CBF100000296AF
:101FF000D8BF06B2BBF1000F45D00191284621465B
:102000003A4600F057F80E9A544502D1019885429D
:102010004CD006EBD6704FEA60080298C0F1000978
:102020000FFA88F004994845C8BF0D4403995845F4
:10203000B8BF0C440299AFB2A6B2B8BF88444845B5
:1020400038463146C8BFA8EB0B0800F033F80E9AAB
:102050005645E5D101988742E2D127E0A245564690
:1020600038BF2646A94238BF0D46A24538BF544660
:10207000A1B228463A4600F01DF801340E9F20B266
:10208000B042F5DD12E0A2450E4638BF5446A942E3
:102090003CBF2E460D4600BFA8B221463A4600F08E
:1020A00009F801350E9F28B2B042F5DD05B0BDE854
:1020B000F08F00007F2898BF3F2900D97047B0B546
:1020C00040F25003C2F200031B7801F0070E002B10
:1020D0006FF0700303EA011140F25405B2FA82FC7A
:1020E0000844C2F2000518BF4FEA5C124FF0010C21
:1020F0002B5C0CFA0EF123EA0104012A08BF43EA23
:1021000001042C54BDE8B0407047000080B5024681
:10211000002840F25400C2F200004FF4806118BF62
:10212000FF22FEF790F880BDB0B540F254040025C0
:10213000C2F20004A5F15000C0B2002100F014F872
:102140000120002100F010F81020002100F00CF810
:1021500020468021402200F01FF80135082D04F1AF
:102160008004E7D1B0BD0000B0B50C460546FFF7CE
:102170006FFE7820FFF744FEFFF728FE2046FFF7AA
:102180003FFEFFF723FE2846FFF73AFEFFF71EFE4D
:10219000FFF77CFEB0BD000070B516460C46054644
:1021A000FFF756FE7820FFF72BFEFFF70FFE3046B5
:1021B000FFF726FEFFF70AFE44B1013D15F8010FB7
:1021C000FFF71EFEFFF702FE013CF7D1FFF75EFEB0
:1021D00070BD000080B56420FEF7BAFBAE20002180
:1021E000FFF7C2FF20200021FFF7BEFF10200021D3
:1021F000FFF7BAFFB0200021FFF7B6FFC82000218B
:10220000FFF7B2FF00200021FFF7AEFF10200021F2
:10221000FFF7AAFF40200021FFF7A6FF8120002141
:10222000FFF7A2FFFF200021FFF79EFFA020002163
:10223000FFF79AFFC0200021FFF796FFA62000219C
:10224000FFF792FFA8200021FFF78EFF3F2000211B
:10225000FFF78AFFA4200021FFF786FFD32000218B
:10226000FFF782FF00200021FFF77EFFD52000212D
:10227000FFF77AFFF0200021FFF776FFD920002139
:10228000FFF772FF22200021FFF76EFFDA20002106
:10229000FFF76AFF12200021FFF766FFDB20002115
:1022A000FFF762FF20200021FFF75EFF8D20002155
:1022B000FFF75AFF14200021FFF756FFAF2000213F
:1022C000FFF752FF0020FFF721FFFFF72DFF80BD32
:1022D000074B19680868B0E8F04F80F30988BFF32E
:1022E0006F8F4FF0000080F31188704700BF00BF70
:1022F0003406002080B500F073FC80BDB0B541F21B
:102300000004C4F2020420460221FEF701FCB0FAE8
:1023100080F0450920460421FEF7FAFB00282046FC
:102320004FF0080108BF0235FEF7F2FB00282046F7
:102330004FF0100108BF0435FEF7EAFB00282046E5
:102340004FF0200108BF0835FEF7E2FB01282046C8
:102350004FF0400108BF45F01005FEF7D9FB40F2F1
:10236000554CC2F2000C012808BF45F020059CF82E
:1023700000102A0615D0EBB28B4212D140F2544E17
:10238000C2F2000E9EF80020501CC4B2022C2A4655
:1023900018BF00228B428EF800000ED0022C09D10B
:1023A0000BE0E8B240F25443C2F20003002288423C
:1023B0001A7002D000228CF80050D0B2B0BD0000DC
:1023C00070B541F200040126C4F20204054626EA73
:1023D000000220464FF48071FEF7A8FB26EA550262
:1023E00020464FF40071FEF7A1FB26EA9502204635
:1023F0004FF48061FEF79AFB26EAD50220464FF49F
:102400000061FEF793FB26EA151220464FF4805137
:10241000FEF78CFB26EA551220464FF40051FEF7DA
:1024200085FB26EA951220464FF48041FEF77EFB9D
:10243000E843C0B2C20920464FF40041FEF776FBE4
:1024400070BD0000012000F005FCFBE7FEF736FA46
:1024500040F26444C2F2000405E000BFFDF7ECFF67
:10246000012000F0F7FB20680128F7D00028F7D101
:10247000FDF7F8FFF4E7000040F2644640F23C59F3
:10248000C2F200064FF00108C2F2000900270DA4B5
:1024900006E000BF202D08BF3760012000F0DAFB06
:1024A000FFF72CFF054618B12046294602F0B4FA82
:1024B00030680028EED1102D04BFC6F80080C9F89E
:1024C0000070EAE7253032580A00000040F2644408
:1024D000C2F2000406E000BF0020FFF771FF0120F8
:1024E00000F0B8FB20680028F6D100F0A7FAF6E764
:1024F000012000F0AFFBFBE780B54EF21000CEF2FA
:102500000000006802F030F8012818BF01F0D8FC84
:1025100080BD000070B592B006AC20463021FDF7BA
:1025200099FE002543F640000595CDE90355CDE918
:1025300001550095C4F202000168022641F0805165
:102540000160006800F080500090009847F20000A1
:102550000095C4F20000016841F480410160006808
:10256000A82100F4804000900098012006904FF4CC
:10257000803007904FF480000D9004200E90119051
:1025800020460C96CDE90F16FEF7BAFC88B90F204D
:10259000CDE901064FF4A05004904FF4805005900F
:1025A00001A805210395FEF77BFB002804BF12B0AC
:1025B00070BDFDF7E1FF00004EF68850CEF200003E
:1025C000016841F4700101607047000080B540F27D
:1025D000B040C2F20000FEF79FFF80BD10B540F68C
:1025E000FF3E0368C4F2000E40F2004C7045C4F296
:1025F000010C0FDCB0F1804F19D040F20042C4F260
:102600000002904213D040F60002C4F20002904251
:102610000DD010E040F60042C4F20002904206D015
:10262000604504D00022C4F20102904203D14A68FE
:1026300023F07003134341F6FF72C4F2000290428C
:102640000DDC70451FDCB0F1804F41D040F20042FC
:10265000C4F2000290423BD040F6000221E043F673
:10266000FF72C4F20102904220DC42F20002C4F286
:10267000000290422CD00022C4F20102904227D0E6
:10268000604525D028E040F60042C4F200029042A6
:102690001ED041F60002C4F20002904218D041F66A
:1026A0000042C4F20002904212D015E044F200024F
:1026B000C4F2010290420BD044F60002C4F20102BF
:1026C000904205D044F20042C4F20102904203D18C
:1026D000CA6823F44073134323F080024B69D1F896
:1026E00000E08C681A430260C46240F48062C0F863
:1026F00028E0624504BF096901630121416110BD01
:10270000D0F808C011432CF47F4C41EA032141EA80
:102710000C01816070470000826822F07002114352
:1027200041F0070181607047B0B5026A40F2004590
:1027300022F001020262026AD0F804E0D0F818C068
:102740008C6822F0020240F48063C4F20105AB42BF
:1027500042EA040205D1CC6822F00C0224F0040401
:1027600022430C68AB4207D1D1E905532EF4407ED9
:1027700045EA0E0545EA030E2CF073032343C0F827
:1027800004E08361496841630262B0BD70B5026ACA
:1027900040F2004422F010020262026AD0F804E023
:1027A000D0F818C08D6822F0200240F48063C4F293
:1027B0000104A34242EA051207D1CD686FF040063A
:1027C00022F0C00206EA05152A430D68A34207D18C
:1027D000D1E905642EF4406343EA860343EA840E9C
:1027E0002CF4E64343EA0523C0F804E0836149681A
:1027F0008163026270BD000070B5026A40F200445D
:1028000022F480720262026AD0F804E0D0F81CC0A0
:102810008D6822F4007240F48063C4F20104A34284
:1028200042EA052207D1CD6840F2FF462D0222F48C
:102830004062B5432A430D68A34207D1D1E905643C
:102840002EF4405343EA061343EA041E2CF07303AC
:102850002B43C0F804E0C3614968C163026270BDE4
:1028600070B5026A40F2004622F480520262026AA7
:102870004368D0F81CE00C68D1F808C040F48065CB
:10288000C4F20106B54204D14D6923F4804343EA02
:1028900085132EF4E64646EA04264360C66122F418
:1028A0000052496842EA0C320164026270BD0000C5
:1028B000D0F820C0036A23F001030362836923F088
:1028C000F00343EA02122CF00A0319438261016209
:1028D00070470000036A23F0100303628369D0F895
:1028E00020C023F4704343EA02322CF0A00343EAF1
:1028F000011182610162704710B504460068D4E995
:1029000002C22369016921F44051114301616269E6
:1029100043EA0C01E3691143C268194349F20C63AD
:102920009A431143C1604169A26921F4407141F2A7
:102930000043114340F48062C4F201039A424161B2
:1029400002D1FEF795FA01E0FEF780FAE1696368CB
:102950001922B1F5004FA0FB02011CD15A00DB0F78
:10296000FDF72EFC48F21F51C5F2EB11A0FB01232D
:102970005A096FF0630302FB0300322303EBC0002C
:10298000A0FB01014FF4F87000EA111000EB0210F7
:10299000C1F342111AE09A009B0FFDF711FC48F2B7
:1029A0001F51C5F2EB11A0FB01235A096FF063031D
:1029B00002FB0300322303EB0010A0FB0101F02017
:1029C00000EA511000EB0210C1F3431122680843E2
:1029D000906010BD2DE9F041044600680068084091
:1029E000884202D10020BDE8F0811D460E46904687
:1029F0005F1C04E0206800683040B042F2D0002F35
:102A0000F8D02DB1FEF798F8A0EB0800A842F1D954
:102A10002068C16821F4D071C160416921F00101D1
:102A20004161202084F83D0084F83E00002084F8B5
:102A30003C000320BDE8F081FEE70000B0B540F2A5
:102A40003C54C2F20004256800F014F98DB12168ED
:102A500001F5FA5188420DD30020206040F2644015
:102A6000C2F20000012101604FF4FA70FDF72EFC64
:102A700000E0206040F25C44C2F200042078FFF7DE
:102A80009FFC00F0F7F840F26045C2F200052968AB
:102A900001F5FA71884238BFB0BD2078C04320707C
:102AA00000F0E8F82860B0BD80B500F001F880BD06
:102AB000B0B50129B8BFB0BD0C46054607E000BF60
:102AC000013CD0B2FDF75EFD002C28460BDD15F968
:102AD000012BB2F1FF3FF3DC4178851CD0B2023C00
:102AE000FDF70CFCEEE7B0BDF0B581B000B30D46CC
:102AF00000294FF000041CD406460078C8B1002419
:102B000041B2B1F1FF3F03DD0136013DC0B206E045
:102B10007178C0B2B71C023DFDF7F0FB3E46FDF7F1
:102B200099FE002D044404D430780028E8D100E058
:102B30000024204601B0F0BD844601294FF000007A
:102B400017DB9CF80030A3B1002009E001300CF144
:102B5000020C01308842A8BF70479CF8003043B196
:102B60005AB2B2F1FF3FF1DD0A2B02D00CF1010C99
:102B7000EFE7704740F22001C2F2000188827047FF
:102B800040F22001C2F20001C8827047002848BF0D
:102B9000704700F01F01012202FA01F14EF200120B
:102BA0004009CEF2000242F8201070474EF60C5059
:102BB000CEF200000068C0F3022070474EF61453B6
:102BC00000F00F02CEF2000309011A4400F1604345
:102BD000B0F1FF3FC8BF03F56442117070470000B9
:102BE0004EF61F50CEF20000002101707047000029
:102BF0004EF60C51CEF200010A684FF6FF031A4060
:102C000060F30A2242F0806040F0FD700860704777
:102C100080B582B0019040F2F840C2F2000001A9F4
:102C200001224FF6FF73FEF753FE019802B080BDFC
:102C3000FDF796FFFFF76EFCFEF77AFFFFF790F8BF
:102C4000FFF726F800F020F8FEF720FF00F030F83C
:102C5000FEE70000EFF3058100291CBF6FF00500BF
:102C60007047002804BF0020704780B500F07CFF4B
:102C7000002080BD80B5EFF3058010B101F08EFC1F
:102C800080BD01F085FC80BDEFF3058000281CBFEE
:102C90006FF00500704740F24400C2F20000016886
:102CA000002911BF4FF0FF30012101600020704763
:102CB00010B5EFF3058000281CBF6FF0050010BDB4
:102CC00040F24404C2F20004206801281CBF4FF007
:102CD000FF3010BDFFF70EFB0220206000F0BEFFAA
:102CE000002010BD70B584B08E46002100280391ED
:102CF000EFF3058146D0002944D1FAB19369002B46
:102D000008BF1823382B16D81179C90713D1556974
:102D1000946811684FEA950C002D08BF4FF0800CA5
:102D2000FCB1D6685C2E1BD3D5B11569C5B10024A2
:102D3000012555B91BE0002004B070BD012400211D
:102D400018234FF0800C00258DB19468126902940D
:102D5000CDE900326246734601F0CAFB039011E0F0
:102D60000CB9D4689CB100250024002DEDD14CB1E4
:102D700003AC00931FFA8CF27346019401F084FBBC
:102D8000012802D1039804B070BD0020E6E7146961
:102D9000B4FA84F46409D6E7F0B581B00D4648F280
:102DA000B07140F23466C2F20001C2F200060F6850
:102DB00031680446081D00F05FFD601C0AD14DB16A
:102DC0003068011D48F28870C2F2000000F0B0FDCA
:102DD00001B0F0BD3068E41944600AD340F24460A9
:102DE000C2F2000000683168043100F083FD01B0D8
:102DF000F0BD40F23C60C2F200000068316804316E
:102E000000F078FD48F21470C2F2000001688C42B4
:102E100038BF046001B0F0BD70B5044600F0A0FDFD
:102E200047F6E870C2F20000016840F234650131F3
:102E30000160C2F20005296848F27C76C2F2000601
:102E400041B1306860B92868E16AC06A884298BFB9
:102E50002C6005E02C600068012801D100F0C2F967
:102E600047F6F470C2F2000001680131016061644C
:102E700047F6F871C2F20001E06A0A68904288BF22
:102E8000086040F24C6100EB8000C2F2000101EBEF
:102E90008000211D00F04CFD00F086FD306880B1FF
:102EA0002868E16AC06A884228BF70BD4EF60450A7
:102EB000CEF200004FF080510160BFF34F8FBFF39F
:102EC0006F8F70BD70B582B000F04AFD48F2B476E5
:102ED000C2F20006306850BB48F2B464C2F200048B
:102EE000204600F0F7FC48F2C865C2F2000528460B
:102EF00000F0F0FC40F23860C2F20000046040F2E2
:102F00004860C2F2000040F2405240F2E0530560D7
:102F10000025C2F20002C2F200030A20102100952F
:102F200000F0E6FF306010B103A100F0E7FD00F013
:102F30003BFD02B070BD00BF546D72510000000037
:102F4000F0B581B047F6EC75C2F200052868E0B133
:102F500048F29C7647F6E877C2F20006C2F2000714
:102F600000F0FEFCF068C468201D00F085FC3868A5
:102F70000138386028680138286000F015FD2046C7
:102F800000F058F828680028EAD101B0F0BD000030
:102F900080B5026C002A08BF80BDD0E902C313448B
:102FA000C360634524BF0368C360C368084619460D
:102FB000FDF737F980BD000070B5866B036C0446E1
:102FC000E3B115461AB3E0681A46FDF72AF9E1683D
:102FD000206C2268091A9142E16003D2A168404244
:102FE0000844E060A81EB0FA80F040093146002E87
:102FF00018BF01210840361A002516E02068002578
:1030000098B9A06801F07EFBA56005460DE06068F8
:103010001A46FDF706F9216CD4E90102002508449F
:103020006060904224BF20686060711C2846A163E4
:1030300070BD000010B5044690F85900022808BF82
:1030400010BD012803D030B9206B00F0C5FC20462C
:1030500000F0C2FC10BD4FF0500080F31188BFF3A8
:103060006F8FBFF34F8F00BFFEE7000040F2386163
:10307000C2F2000109680A68B2FA82F35B090360D0
:10308000002A0EBF0020C8680068704740F6AC20D8
:10309000C2F20000C21D22F0070210F0070CA0EBE4
:1030A000020318BF104648F28072C2F200020021EB
:1030B000C2E9000147F23052BCF1000F18BF1A44B8
:1030C0000244083A40F2406322F00702C2F20003D1
:1030D0001A60C2E90011111A1A68C0E9002148F209
:1030E0001070C2F20000016048F20870C2F20000E5
:1030F000016048F2DC60C2F20000012101707047FB
:1031000040F24C644EF60455C2F20004CEF20005C3
:103110004FF08056FFF714FF20680228FAD32E6084
:10312000BFF34F8FBFF36F8FF4E70000B0B5049D7E
:10313000002914BF2A602D60C5E90F01284601212E
:103140001C4600F021FF85F84C40B0BD2DE9F0474A
:103150000A9C8246206B16460F46DDE9085991000D
:10316000A5229846FDF76FF8206B00EB8600A0F1D2
:10317000040020F007067FB104F13400002100BFF5
:103180007A5C42547A5C1AB10F2901F10101F7D33C
:10319000002084F8430002E0002084F83400002777
:1031A000201D372D28BF3725E562C4E9135700F0ED
:1031B0009DFB04F1180000F099FBC5F13800A061F7
:1031C00030465146424624616462676584F858700F
:1031D00000F03EFBB9F1000F206018BFC9F80040B5
:1031E000BDE8F087B0B540F24C650024C2F200059E
:1031F000281900F06FFB1434B4F58C6FF8D148F245
:10320000E064C2F20004204600F064FB48F2F4657A
:10321000C2F20005284600F05DFB48F22870C2F2B9
:10322000000000F057FB48F29C70C2F2000000F072
:1032300051FB48F28870C2F2000000F04BFB40F2F4
:103240003C60C2F20000046040F24460C2F2000040
:103250000560B0BD80B548F28072C2F2000200BFC6
:10326000114612688242FBD3D1F804C001EB0C0373
:10327000834203D14068604448600846D0F804C0E7
:1032800000EB0C03934201D013460BE040F2406385
:10329000C2F200031B689A4204D0D2E9003E0EEB52
:1032A0000C0242608142036018BF086080BD0000CC
:1032B00080B58C46014641F804CF9445006108D999
:1032C0009A4201D29C4511D240F23860C2F200000D
:1032D00007E08069D21A824208D240F24860C2F206
:1032E0000000006800F006FB002080BD012080BDCA
:1032F00010B5044600F034FBA06BB0FA80F044092E
:1033000000F052FB204610BD10B5044600F028FB2B
:10331000A06BE16B401AB0FA80F0440900F044FB66
:10332000204610BD08480068006880F308884FF008
:10333000000080F3148862B661B6BFF34F8FBFF30D
:103340006F8F00DF00BF00BF08ED00E070B582B0F6
:1033500040F23862C2F2000212680546D2680E4698
:10336000D468201D00F088FA94F82800410704D49E
:1033700000F0FE0084F8280010E0A06932464119F0
:1033800020462B46FFF794FF40B10026204600213F
:103390002A460023009601F00BFB20B1216A20464B
:1033A000884702B070BD4FF0500080F31188BFF322
:1033B0006F8FBFF34F8F00BFFEE700002DE9F04194
:1033C00086B048F2B477C2F20007386802A900223A
:1033D0004FF0000800F052FF00286AD001AC02ADA7
:1033E0000BE000F0FE0086F8280000BF3868294690
:1033F000002200F043FF00285BD00298B0F1FF3FAD
:1034000003DCDDE903200599904702980028EDD4FC
:10341000049E706910B1301D00F02EFA204600F0B5
:10342000B3F802990929E1D80246DFE801F008085B
:1034300008052A390808052A96F82800D1E796F8E1
:103440002800039BB16940F0010086F82800194468
:103450003046FFF72DFF0028C8D0316A3046884734
:1034600096F828004007C1D50398B16900230A18CF
:1034700030460021CDF8008001F09AFA0028B5D13D
:1034800023E096F8280040F00101039886F8281000
:10349000B06188B1811830461346FFF709FFA5E7F0
:1034A00096F8280081073FF59CAF304600F094FA6B
:1034B0009CE706B0BDE8F0814FF0500080F3118822
:1034C000BFF36F8FBFF34F8FFEE74FF0500080F3D5
:1034D0001188BFF36F8FBFF34F8F00BFFEE700006F
:1034E00070B582B00E46044600F00AFC01A800F058
:1034F0004BF8019919B101F097F902B070BD05467A
:103500004EB9A54207D301F08FF920462946FFF7AF
:103510001DFF02B070BD4EB140F24860C2F2000023
:1035200000680068B0FA80F0420900E0002248F22A
:10353000B470C2F200000068611B00F0F3FA01F001
:1035400073F90028D9D14EF60450CEF200004FF0A6
:1035500080510160BFF34F8FBFF36F8F02B070BD1A
:1035600040F23C60C2F200000168096821B10068C5
:10357000C068C068406801E04FF0FF3048F2147145
:10358000C2F200010860704770B5044601F000F80F
:1035900040F23066C2F2000631680546884203D226
:1035A00000F008F8012000E0002020602846356087
:1035B00070BD00002DE9F04182B040F23867C2F2E0
:1035C00000073868016891B34FF0000809E000BFB8
:1035D000606038682946246100F08CF93868016819
:1035E00029B3C068C4680668251D284600F044F960
:1035F000216A2046884794F828004007EED5A06944
:103600003044B042E4D82046002132460023CDF8B1
:10361000008001F0CDF90028E0D14FF0500080F398
:103620001188BFF36F8FBFF34F8F00BFFEE740F2EB
:103630004861C2F200010A6808603A6002B0BDE861
:10364000F081000081B00020009040F21000C2F232
:10365000000000684FF0500181F31188BFF36F8FB5
:10366000BFF34F8F013001D0FEE700BF0098002864
:10367000FCD001B07047000082B001AC2046FFF7DB
:10368000F5FC0199FFF72CFFFFF798FEF6E7000025
:10369000F0B581B0044600F063F994F94560012E5D
:1036A0000FDB04F1240500BF286850B1284601F063
:1036B00073F8002818BF00F08FFA70B2013E01289D
:1036C000F2DCFF2684F8456000F06EF900F048F95E
:1036D00094F94470012F0EDB04F11005286850B1F5
:1036E000284601F059F8002818BF00F075FA78B2A2
:1036F000013F0128F2DC84F8446000F055F901B084
:10370000F0BD00002DE9F04381B0044600F0F8FA66
:1037100040F24066C2F200063068002808BFFFF79A
:10372000B5FC48F2DC68C2F2000898F800000028F6
:1037300018BF4FF0004020420DD0002401F074F873
:1037400060071ED04FF0500080F31188BFF36F8FD9
:10375000BFF34F8FFEE7C4B114F0070004F1080176
:103760001EBF081A00F108015FEA41700ED04FF049
:10377000500080F31188BFF36F8FBFF34F8F00BFEE
:10378000FEE7204601B0BDE8F083002148F2087949
:10379000C2F20009D9F800004A1E8242CDD248F296
:1037A0008070C2F2000005682F4657F8042F8A4245
:1037B00011D22B685BB100BF1F4657F8042F284673
:1037C0001D468A4207D22B68002BF5D103E048F250
:1037D0008070C2F2000033689D42AED004682B684E
:1037E000521A112A036010D36818430709D04FF00A
:1037F000500080F31188BFF36F8FBFF34F8F00BF6E
:10380000FEE742603960FFF725FD48F21070396825
:10381000D9F80020C2F200000368511A9942C9F891
:10382000001038BF016098F80000396800284FF098
:10383000000018BF41F00041286048F21C70C2F23D
:103840000000026808343960511C016076E700000E
:10385000034643F24560C0F600004FF0807C21F043
:10386000010103E903106FF0020043F8240CA3F1F7
:10387000440043F8202C7047D0E9013201699A6076
:10388000D1F804C082688445536008BF4A600022B2
:1038900002610868013808600868704748F2FC1344
:1038A000C2F20003036047F6FC70C2F20000086039
:1038B000802010607047000048F25863C2F2000395
:1038C000036048F25820C2F2000008604FF4807094
:1038D000106070474FF0FF31024642F8081F002188
:1038E0004260C0E9032201607047000000210161CD
:1038F0007047000080B5D1F800C01CF1010207D06C
:1039000000F108039E465B681A686245FAD901E037
:10391000D0F810E0DEF8042008614A609160C1F838
:1039200008E0CEF8041001680131016080BD00009C
:10393000D0F800C0436808619A684B608A609A6852
:10394000996051600CF1010101607047DFF80C00D3
:10395000016841F470010160704700BF88ED00E02C
:103960004FF0500080F31188BFF36F8FBFF34F8F7C
:1039700040F21000C2F2000001684A1C026001B16E
:1039800070474EF60450CEF200000068000608BFF3
:1039900070474FF0500080F31188BFF36F8FBFF373
:1039A0004F8F00BFFEE7000040F21000C2F200009F
:1039B000016839B10139016018BF7047002080F3F8
:1039C000118870474FF0500080F31188BFF36F8F5C
:1039D000BFF34F8FFEE70000B0B5002808BFB0BDB1
:1039E000044648F2DC60C2F20000007854F8041C7F
:1039F000002818BF4FF0004008420CD0A4F1080581
:103A00002A6892B14FF0500080F31188BFF36F8F96
:103A1000BFF34F8FFEE74FF0500080F31188BFF3E4
:103A20006F8FBFF34F8F00BFFEE721EA000044F81D
:103A3000040C00F065F948F20871C2F2000154F874
:103A4000040C0A68104408602846FFF703FC48F29B
:103A50002070C2F2000001680131016000F0E4FE54
:103A6000B0BD00004EF21000CEF200000021016057
:103A7000816040F20401C2F20001096844F6D352A9
:103A8000C1F26202A1FB02124FF0FF3101EB921171
:103A90004160072101607047EFF30580102814D3BF
:103AA0004EF2F031CEF20001405C47F6DC71C2F21A
:103AB00000010978884208D24FF0500080F3118845
:103AC000BFF36F8FBFF34F8FFEE74EF60C50CEF271
:103AD000000047F6E0710068C2F20001096800F4D6
:103AE000E060884298BF70474FF0500080F3118823
:103AF000BFF36F8FBFF34F8FFEE7000048F23C7CAF
:103B00000022C2F2000C00BF5CF8323023B1013257
:103B1000082A08BF7047F7E70CEBC2034CF83210D5
:103B20005860704770B515460E460446FFF718FFFB
:103B300094F84400FF2804BF002084F8440094F85F
:103B40004500FF2804BF002084F84500FFF72CFF44
:103B5000A06B28B904F1240031462A4600F05EF833
:103B60002046FFF795FD70BD10B5D8B1044647F665
:103B7000F070C2F20000006848B14FF0500080F3CE
:103B80001188BFF36F8FBFF34F8F00BFFEE700F0C8
:103B9000B7F820460021FFF7FFF800F045FE0028A7
:103BA00018BF10BD4EF60450CEF200004FF0805109
:103BB0000160BFF34F8FBFF36F8F10BD48F21871D4
:103BC000C2F200010968016048F2B071C2F200015E
:103BD000096841607047000048F2BC70C2F2000002
:103BE000012101607047000010B568B10C4640F239
:103BF0003461C2F2000109681831FFF77BFE2046EC
:103C00000121FFF7C9F810BD4FF0500080F3118873
:103C1000BFF36F8FBFF34F8FFEE70000B0B590B1D9
:103C20000D4640F23461C2F20001096814461831B1
:103C3000FFF77EFE002C18BF4FF0FF3528462146C7
:103C4000FFF7AAF8B0BD4FF0500080F31188BFF322
:103C50006F8FBFF34F8F00BFFEE7000010B586B037
:103C6000002405A804A903AACDE90444FFF716FE21
:103C7000DDE9032005990023CDE9010143F201109C
:103C8000C0F600001CA1009400F032FC48F20C7158
:103C9000C2F20001086010B100F050FE0446601C42
:103CA00020D0012C1CD14FF0500080F31188BFF3BD
:103CB0006F8FBFF34F8F48F21470C2F200004FF0C5
:103CC000FF31016048F27C70C2F200000121016006
:103CD00048F2B070C2F200000021016000F066F806
:103CE00006B010BD4FF0500080F31188BFF36F8F06
:103CF000BFF34F8FFEE700BF49444C450000000072
:103D000047F6F070C2F200000168013101607047AF
:103D100047F6F070C2F20000006830B148F2BC70A3
:103D2000C2F2000001210160704748F2BC70C2F28B
:103D30000000002147F6F87C0160C2F2000CDCF8BC
:103D4000001040F24C6201EB8103C2F2000252F813
:103D5000230048B902EB8300A0F11403D9B153F852
:103D6000140901390028F9D001EB810002EB80022F
:103D700052F8040F4368101D8342136001D1586844
:103D80001060106840F23462C068C2F20002106035
:103D9000CCF8001070474FF0500080F31188BFF34B
:103DA0006F8FBFF34F8F00BFFEE7000080B582B07A
:103DB0004EF20040CEF200004CF27021C4F20F111E
:103DC000D0F800294B1C9A4209D14FF0500080F3E3
:103DD0001188BFF36F8FBFF34F8F00BFFEE7D0F89E
:103DE00000298A4209D14FF0500080F31188BFF3B7
:103DF0006F8FBFF34F8F00BFFEE7017847F6DC728D
:103E00000191FF2101700178C2F200028DF80310C8
:103E10009DF8031001F05001117047F6E071C2F2F5
:103E2000000107220A609DF90320B2F1FF3F0CDC7C
:103E30000A6800BF9DF80330013A5B008DF803303B
:103E40009DF90330002BF5D40A600A68032A2DD1AE
:103E50004FF4E06303EA02220A6001990170D0F88E
:103E6000201941F47001C0F82019D0F8201941F050
:103E70007041C0F82019FFF7F5FD40F21000C2F2C2
:103E8000000000210160FFF761FD4EF63470CEF2B4
:103E90000000016841F040410160FFF743FAFFF77D
:103EA00037FFFFF7CFFB002002B080BD4FF050007E
:103EB00080F31188BFF36F8FBFF34F8FFEE70000D1
:103EC00080B54FF0500080F31188BFF36F8FBFF3C0
:103ED0004F8F00F06DFB30B14EF60450CEF2000073
:103EE0004FF080510160002080F3118880BD0000F8
:103EF000B0B582B068B11D46ABB1F1B9EAB14FF0CF
:103F0000500080F31188BFF36F8FBFF34F8F00BF56
:103F1000FEE74FF0500080F31188BFF36F8FBFF3BF
:103F20004F8F00BFFEE74FF0500080F31188BFF3C2
:103F30006F8FBFF34F8F00BFFEE751B14AB94FF00B
:103F4000500080F31188BFF36F8FBFF34F8F00BF16
:103F5000FEE750230193019B502B0AD1069B019C45
:103F6000012485F846400095FFF7E0F8284602B0A6
:103F7000B0BD4FF0500080F31188BFF36F8FBFF3D7
:103F80004F8F00BFFEE7000070B5F8B104460E4643
:103F9000FFF7E6FC2068D4E90F12002502FB0103BD
:103FA000013901FB0201A563C4E90103FF20E160BF
:103FB00084F8440084F8450004F110007EB1FFF756
:103FC00089FC04F12400FFF785FC18E04FF0500055
:103FD00080F31188BFF36F8FBFF34F8FFEE7016847
:103FE00069B100F0D9FB50B14EF60450CEF200009A
:103FF0004FF080510160BFF34F8FBFF36F8FFFF71A
:10400000D3FC012070BD00002DE9F04F83B0029277
:10401000B8B11D460E460446E9B1022D03D1E06B4E
:10402000012840F09A8000F09FFA00BB0298F0B19E
:104030004FF0500080F31188BFF36F8FBFF34F8FA5
:10404000FEE74FF0500080F31188BFF36F8FBFF38E
:104050004F8F00BFFEE7206C0028DED04FF05000ED
:1040600080F31188BFF36F8FBFF34F8FFEE7FFF729
:1040700077FCA06B022D58D0E16B884255D304F138
:10408000100801206F464FF0000B0DF108094FF0AA
:10409000805A00BF0299002900F07B80C00702D03F
:1040A0003846FFF78BFDFFF77FFCFFF729FEFFF790
:1040B00057FC94F84400FF2808BF84F844B094F8F3
:1040C0004500FF2808BF84F845B0FFF76DFC38466F
:1040D000494600F095F900285ED12046FFF714F913
:1040E000A0B102994046FFF77FFD2046FFF7D0FAC6
:1040F00000F09AFB78B94EF60450CEF20000C0F8FA
:1041000000A0BFF34F8FBFF36F8F04E02046FFF78F
:10411000BFFA00F089FBFFF723FCA06B022D04D04F
:10412000E16B88424FF00000B4D2204631462A4667
:10413000FEF742FF54F8241FC9B1204600F02CFBC3
:1041400008B34EF60450CEF200004FF080510160EB
:10415000BFF34F8FBFF36F8F15E04FF0500080F328
:104160001188BFF36F8FBFF34F8F00BFFEE750B1D1
:104170004EF60450CEF200004FF080510160BFF3C4
:104180004F8FBFF36F8FFFF70FFC012003B0BDE827
:10419000F08FFFF709FC04E02046FFF779FA00F002
:1041A00043FB002003B0BDE8F08F00002DE9F04391
:1041B00081B0E8B11E46914605460F4609B3022E6E
:1041C00002D1E86B012837D1FFF766FCEFF31188C5
:1041D0004FF0500080F31188BFF36F8FBFF34F8F04
:1041E000A86B022E19D0E96B884216D300203FE05D
:1041F0004FF0500080F31188BFF36F8FBFF34F8FE4
:10420000FEE7286C0028DAD04FF0500080F31188C8
:10421000BFF36F8FBFF34F8FFEE795F84540A86B54
:10422000284639463246FEF7C7FEFF2C0DD0601CEB
:1042300085F8450001201BE04FF0500080F3118805
:10424000BFF36F8FBFF34F8FFEE755F8240F70B1A8
:10425000284600F0A1FA0146B9F1000F4FF0010025
:1042600006D000291CBF0120C9F8000000E0012091
:1042700088F3118801B0BDE8F08300002DE9F04F0C
:1042800085B0049298B10C460546002900F0A5803F
:1042900000F06AF9A8B9049898B14FF0500080F383
:1042A0001188BFF36F8FBFF34F8F00BFFEE74FF052
:1042B000500080F31188BFF36F8FBFF34F8F00BFA3
:1042C000FEE705F1240005F11009019002AF0DF1A0
:1042D000100A4FF000080AE02846FFF7D9F900F06D
:1042E000A3FA2846FFF704F8002840F08480FFF77F
:1042F00037FBD5F838B0BBF1000F1DD0284621465A
:10430000FEF746FEABF10100A863286970B148468C
:1043100000F042FA50B14EF60450CEF200004FF0D9
:1043200080510160BFF34F8FBFF36F8FFFF73CFBEE
:1043300000200126A0B95FE0049850B1B8F1000F49
:1043400002D13846FFF73AFC4FF00108012038B996
:1043500052E0FFF729FB0026002000284CD000BFC8
:10436000FFF722FBFFF7CCFCFFF7FAFA95F84400C1
:10437000FF2804BF002085F8440095F84500FF2879
:1043800004BF002085F84500FFF70EFB3846514674
:1043900000F036F800289FD12846FEF7A9FFB0B1FB
:1043A00004990198FFF720FC2846FFF771F900F007
:1043B0003BFA00289BD14EF60450CEF200004FF09D
:1043C00080510160BFF34F8FBFF36F8F8FE7284697
:1043D000FFF75EF900F028FA89E7286C00283FF41F
:1043E00057AF4FF0500080F31188BFF36F8FBFF3CA
:1043F0004F8F00BFFEE70026304605B0BDE8F08FC6
:10440000B0B5D0B10D4611B30446FFF7A9FA48F292
:10441000B070C2F2000001682868421C21D048F246
:1044200018736268C2F20003D3F800C091421AD335
:1044300023689C4517D0012422E04FF0500080F300
:104440001188BFF36F8FBFF34F8F00BFFEE74FF0B0
:10445000500080F31188BFF36F8FBFF34F8F00BF01
:10446000FEE700240CE0891A884206D9401A286029
:104470002046FFF7A3FB002402E00020012428606F
:10448000FFF792FA2046B0BD2DE9F04383B007460E
:104490009000984615468946FFF734F978B10646EC
:1044A0005C20FFF72FF938B10446066354B94FF08A
:1044B000FF3003B0BDE8F0833046FFF78DFA0024EB
:1044C000002CF4D0DDE90A10002284F85920CDE94F
:1044D0000010384649462A4643460294FEF736FE07
:1044E0002046FEF799FC012003B0BDE8F0830000F0
:1044F00070B586B00B9CCCB10C9E06B35C250495C0
:10450000049D5C2D25D1049DDDF828C0022586F888
:10451000595005AD3463CDE900C50296FEF716FE8D
:104520003046FEF779FC059806B070BD4FF050009C
:1045300080F31188BFF36F8FBFF34F8FFEE74FF00B
:10454000500080F31188BFF36F8FBFF34F8F00BF10
:10455000FEE74FF0500080F31188BFF36F8FBFF379
:104560004F8F00BFFEE7000048F27C70C2F20000EF
:104570000068002804BF0120704747F6F070C2F2BF
:1045800000000068B0FA80F0400940007047000069
:1045900048F2B070C2F200000068704780B5FFF7C3
:1045A0007BFA48F2B070C2F20000006880BD0000E3
:1045B0002DE9F04F81B047F6F070C2F200000068BC
:1045C00040B148F22470C2F20000016800240131B9
:1045D000016092E048F2B070C2F2000001684E1C27
:1045E000066021D340F23C60C2F200000168096815
:1045F00049B14FF0500080F31188BFF36F8FBFF3C4
:104600004F8F00BFFEE740F24462C2F20002016831
:104610001368036048F218701160C2F2000001686C
:1046200001310160FEF79CFF48F21471C2F20001F3
:10463000086840F2346A40F24C688642C2F2000ACE
:10464000C2F2000801D2002445E040F23C67C2F209
:10465000000738680024006898B347F6F87BC2F278
:10466000000B19E0D9F82C00DBF80010884288BF55
:10467000CBF8000000EB800008EB80002946FFF734
:1046800057F9D9F82C00DAF80010C96A3A6888425C
:1046900028BF01241068B8B13868C068D0F80C9001
:1046A0004D4655F8040F864210D32846FFF7E4F82C
:1046B000D9F828000028D5D009F11800FFF7DCF858
:1046C000D0E74FF0FF3005E04FF0FF3048F21471B3
:1046D000C2F200010860DAF80000C06A00EB800056
:1046E00058F82000012848F2BC70C2F2000088BFD0
:1046F00001240068002818BF0124204601B0BDE84D
:10470000F08F0000B0B580B1044640F23460C2F2D0
:1047100000000068A0420AD04FF0500080F31188DA
:10472000BFF36F8FBFF34F8FFEE70020B0BD206D4A
:1047300038B3013820654FF0000018BFB0BDE16A02
:10474000E26C91421CD0251D2846FFF795F8E06CDD
:10475000C0F13801A16147F6F871E062C2F20001D0
:104760000A68904288BF086040F24C6100EB80000C
:10477000C2F2000101EB80002946FFF7D9F80120C1
:10478000B0BD4FF0500080F31188BFF36F8FBFF3BF
:104790004F8F00BFFEE70000B0B5C068C5687DB1AF
:1047A00005F118042046FFF767F847F6F070C2F2EB
:1047B0000000006868B148F22870C2F200001DE0F5
:1047C0004FF0500080F31188BFF36F8FBFF34F8F0E
:1047D000FEE72C1D2046FFF74FF847F6F871C2F2AE
:1047E0000001E86A0A68904288BF086040F24C61A4
:1047F00000EB8000C2F2000101EB80002146FFF7D0
:1048000097F840F23461C2F20001E86A0968C96AA7
:10481000884291BF002048F2BC71C2F20001012021
:1048200088BF0860B0BD00002DE9F04F81B047F6A9
:10483000F074C2F20004206868B1FFF791F82068B4
:1048400001382060206880B10024FFF7ADF82046D1
:1048500001B0BDE8F08F4FF0500080F31188BFF336
:104860006F8FBFF34F8F00BFFEE747F6E870C2F2CD
:104870000000006800285DD048F22876C2F20006E9
:10488000306848F2BC78C2F2000890B347F6F87777
:1048900040F24C6940F2346BC2F20007C2F20009E8
:1048A000C2F2000B4FF0010AF068C56805F118006C
:1048B000FEF7E2FF2C1D2046FEF7DEFFE86A3968AE
:1048C000884288BF386000EB800009EB80002146F9
:1048D000FFF72EF8E86ADBF80010C96A884228BFA3
:1048E000C8F800A030680028DED1002D18BFFEF700
:1048F00037FE48F22474C2F20004256855B101263F
:10490000FFF756FE002818BFC8F80060013DF7D138
:1049100000202060D8F8000070B14EF60450CEF2AE
:1049200000004FF080510160BFF34F8F0124BFF3AF
:104930006F8F8AE7002488E7002486E780B586B079
:10494000FEF7C0FA48F2B470C2F20000006808B383
:104950000020CDE9040005A804A903AAFEF7ACFFD6
:10496000DDE903200221DDF814C0CDE9001043F297
:104970007960C0F600000CA10023CDF808C0FFF755
:10498000B7FD48F2B871C2F20001086010B1012011
:1049900006B080BD4FF0500080F31188BFF36F8FD9
:1049A000BFF34F8FFEE700BF546D72205376630054
:1049B00010B584B0A8B148F2B474C2F200048446C1
:1049C0002068C0B10529CDE90012CDF808C015DC7A
:1049D000FFF7CAFD01462068022916D1069A6946EA
:1049E00015E04FF0500080F31188BFF36F8FBFF3D5
:1049F0004F8F00BFFEE7002004B010BD69461A4685
:104A00000023FFF7D3FB04B010BD6946002200234A
:104A1000FFF7FAFA04B010BD0FB4054B10B503A9A7
:104A2000044A029800F018F810BC5DF814FB00006E
:104A3000112C00080000002002E008C8121F08C165
:104A4000002AFAD170477047002001E001C1121F0F
:104A5000002AFBD1704700002DE9FF4F8DB00F46B3
:104A60000546002606E025280BD0DDE90F12904709
:104A70006D1C761C28780028F5D111B03046BDE8B1
:104A8000F08F0024A246A1460122EC4900E0044335
:104A900015F8013F203B02FA03F00842F7D12878CD
:104AA0002A2810D06FF02F022878A0F130010929B0
:104AB00014D80AEB8A0102EB410144F0020400EB36
:104AC000010A6D1CF0E701CF5FEA000A03D544F448
:104AD0000054CAF1000A44F002046D1C28782E2804
:104AE00017D115F8010F44F004042A280ED06FF0F6
:104AF0002F022878A0F1300109290AD809EB890191
:104B000002EB410100EB01096D1CF2E757F8049B31
:104B10006D1C28786C280FD006DC4C2817D068282C
:104B20000DD06A2814D104E0742810D07A280FD14F
:104B30000DE044F400140AE044F4801401E044F46D
:104B400040146978814202D104F580146D1C6D1CFB
:104B50002A786E2A1FD00CDC632A31D004DC002AAC
:104B60008BD0582A11D1A3E0642A68D0692A0CD1CD
:104B700065E0732A2ED004DC6F2A73D0702A04D12A
:104B80009BE0752A6FD0782A6ED01046DDE90F12AF
:104B90009047761C50E1C4F30250022806D0032847
:104BA00009D0042801CF09D0066045E101CFF117F3
:104BB000C0E9006140E101CF06803DE106703BE1C4
:104BC00017F8040B8DF8000000208DF80100EB466B
:104BD000012003E057F804BB4FF0FF3061074FF0AE
:104BE000000102D40DE008F10101884649450FDAC1
:104BF0008045F8DB1BF808100029F4D108E008F123
:104C0000010188468142FADB1BF808100029F6D121
:104C1000DDE90F23AAEB08008146214600F036F9B2
:104C2000304400EB080604E0DDE90F121BF8010B2D
:104C30009047B8F10108F7D221464846F7E00A212B
:104C4000C4F302534FF0000B0891022B04D001CFA4
:104C5000C117032B09D00AE0FF1D27F00707F7E86B
:104C6000020108E032E01FE020E000B2C117042B8F
:104C700001D140B2C117031E71F1000307DA4FF0F2
:104C8000000CD0EB0C006CEB01012D2302E023059E
:104C900004D52B238DF82430012303E0E30701D052
:104CA0002023F7E7984658E00A2110E010210EE093
:104CB00010204FF0000B08900CE010214FF0000B7B
:104CC00044F004044FF00809089103E008214FF074
:104CD000000B0891C4F30253022B04D001CF002132
:104CE000032B06D006E0FF1D27F00707F7E80201B7
:104CF00003E080B2042B00D1C0B24FF000082307BC
:104D00002BD5702A07D0DDF820C08CF0100C5CEA9F
:104D10000B0C05D00EE040238DF82430012308E071
:104D200050EA010306D030238DF824308DF8252079
:104D300002239846DDF820C08CF0080C5CEA0B0CCE
:104D40000BD150EA010301D1630706D530238DF85A
:104D500024304FF00108A9F10109582A04D038A2E3
:104D60000B9208AA0A920BE03AA2F9E75B46089A6E
:104D7000FBF726FA0B9B9B5C0A9A521E0A92137051
:104D800050EA0102F2D10A98ADEB000000F1200BCD
:104D9000600702D524F4803401E04FF00109D945C1
:104DA00002DDA9EB0B0000E0002000EB0B01414409
:104DB0000890AAEB010AE00306D4DDE90F2321469F
:104DC000504600F063F806444FF0000908E009A9D6
:104DD00011F80900DDE90F12904709F10109761C6D
:104DE000C145F4DBE0030CD5DDE90F232146504635
:104DF00000F04CF8064404E0DDE90F123020904743
:104E0000761C0899481E08900029F5DC08E00A98ED
:104E10000A990078491C0A91DDE90F129047761C27
:104E2000BBF10001ABF1010BF1DC21465046DDE99D
:104E30000F2300F019F806446D1C1BE60928010039
:104E40003031323334353637383961626364656600
:104E500000000000303132333435363738394142C2
:104E600043444546000000002DE9F041044600257A
:104E70001E461746880404D405E039462020B04772
:104E80006D1C641EF9D52846BDE8F0812DE9F0417E
:104E9000044600251E469046C80301D5302700E091
:104EA0002027880404D505E041463846B0476D1CEC
:104EB000641EF9D52846BDE8F0810000000000001E
:104EC00000000102030406070809000000000102B7
:104ED00003040000448100080000000000000000FE
:104EE00000000000000000000002000018000000A8
:104EF00000000000000000003C81000800000000ED
:104F0000000000000000000000000000000400009D
:104F100018000000000000000000000020007E00DB
:104F2000484F000800000000CD0500088106000879
:104F3000B1060008B90600080000000008080101D9
:104F40001C4F0008000000000303010088600008F7
:104F5000020201009060000804040100986000084B
:104F600006060100A060000806060100A86000080F
:104F700006060100B060000806060100B8600008DF
:104F800003030100C060000804040100C8600008B9
:104F900004040100D060000806060100D860000883
:104FA00006060100E060000803030100E860000855
:104FB00006060100F060000803030100F860000825
:104FC00006060100006100080606010008610008ED
:104FD00006060100106100080606010018610008BD
:104FE000060601002061000806060100286100088D
:104FF000060601003061000806060100386100085D
:10500000060601004061000806060100486100082C
:105010000606010050610008030301005861000802
:1050200003030100606100080505010068610008D4
:10503000060601007061000805050100786100089E
:10504000060601008061000806060100886100086C
:10505000060601009061000806060100986100083C
:1050600006060100A061000806060100A86100080C
:1050700006060100B061000806060100B8610008DC
:1050800006060100C061000806060100C8610008AC
:1050900004040100D061000806060100D861000880
:1050A00006060100E061000806060100E86100084C
:1050B00006060100F061000806060100F86100081C
:1050C00006060100006200080606010008620008EA
:1050D00006060100106200080606010018620008BA
:1050E000060601002062000806060100286200088A
:1050F000060601003062000806060100386200085A
:105100000606010040620008060601004862000829
:1051100006060100506200080606010058620008F9
:1051200004040100606200080606010068620008CD
:10513000040401007062000806060100786200089D
:105140000606010080620008060601008862000869
:105150000606010090620008060601009862000839
:1051600005050100A062000806060100A86200080B
:1051700006060100B062000805050100B8620008DB
:1051800006060100C062000806060100C8620008A9
:1051900002020100D062000804040100D862000885
:1051A00005050100E062000804040100E86200084F
:1051B00006060100F062000805050100F86200081B
:1051C00005050100006300080505010008630008EB
:1051D00005050100106300080404010018630008BD
:1051E000050501002063000804040100286300088D
:1051F0000505010030630008060601003863000859
:105200000606010040630008060601004863000826
:1052100005050100506300080606010058630008F8
:1052200004040100606300080303010068630008D0
:10523000040401007063000806060100786300089A
:105240000808010080630008080801009063000856
:1052500008080100A063000808080100B063000806
:1052600008080100C063000808080100D0630008B6
:1052700008080100E063000808080100F063000866
:105280000808010000640008080801001064000814
:1052900008080100206400080808010030640008C4
:1052A0000808010040640008080801005064000874
:1052B0000808010060640008080801007064000824
:1052C00008080100806400080808010090640008D4
:1052D00008080100A064000808080100B064000884
:1052E00008080100C064000808080100D064000834
:1052F00008080100E064000808080100F0640008E4
:105300000808010000650008080801001065000891
:105310000808010020650008080801003065000841
:1053200008080100406500080808010050650008F1
:1053300008080100606500080808010070650008A1
:105340000808010080650008080801009065000851
:1053500008080100A065000808080100B065000801
:1053600008080100C065000808080100D0650008B1
:1053700008080100E065000808080100F065000861
:10538000080801000066000808080100106600080F
:1053900008080100206600080808010030660008BF
:1053A000080801004066000808080100506600086F
:1053B000080801006066000808080100706600081F
:1053C00008080100806600080808010090660008CF
:1053D00008080100A066000808080100B06600087F
:1053E00008080100C066000808080100D06600082F
:1053F00008080100E066000808080100F0660008DF
:10540000080801000067000808080100106700088C
:10541000080801002067000808080100306700083C
:1054200008080100406700080808010050670008EC
:10543000080801006067000808080100706700089C
:10544000080801008067000808080100906700084C
:1054500008080100A067000808080100B0670008FC
:1054600008080100C067000808080100D0670008AC
:1054700008080100E067000808080100F06700085C
:10548000080801000068000808080100106800080A
:1054900008080100206800080808010030680008BA
:1054A000080801004068000808080100506800086A
:1054B000080801006068000808080100706800081A
:1054C00008080100806800080808010090680008CA
:1054D00008080100A068000808080100B06800087A
:1054E00008080100C068000808080100D06800082A
:1054F00008080100E068000808080100F0680008DA
:105500000808010000690008080801001069000887
:105510000808010020690008080801003069000837
:1055200008080100406900080808010050690008E7
:10553000080801006069000804040100706900089F
:10554000101002008069000810100200A069000815
:1055500010100200C069000810100200E069000885
:1055600010100200006A000810100200206A0008F3
:1055700010100200406A000810100200606A000863
:1055800010100200806A000810100200A06A0008D3
:1055900010100200C06A000810100200E06A000843
:1055A00010100200006B000810100200206B0008B1
:1055B00010100200406B000810100200606B000821
:1055C00010100200806B000820007F00405200088D
:1055D000D4550008C9B3C9B340550008E0550008C8
:1055E000F3B4F3B448550008EC550008E7B5E7B547
:1055F00050550008F8550008BCBABCBA5855000808
:1056000004560008FABAFABA6055000810560008A5
:10561000BCBCBCBC685500081C560008ACBFACBF85
:105620007055000828560008C6BFC6BF7855000848
:1056300034560008C4CEC4CE805500084056000839
:10564000A7D1A7D1885500084C560008E5D1E5D16F
:105650009055000858560008B1D4B1D498550008A8
:1056600064560008F8D4F8D4A05500087056000815
:10567000DCD6DDD6A85500087C560008D3D7D3D792
:10568000B855000888560008B9D8B9D8C0550008E0
:10569000000000000A0A0200A06B00080A0A0200CB
:1056A000C86B00080A0A0200F06B00080A0A020030
:1056B000186C00080A0A0200406C00080A0A02007E
:1056C000686C00080A0A0200906C00080A0A0200CE
:1056D000B86C00080A0A0200E06C00080A0A02001E
:1056E000086D00080A0A0200306D00080A0A02006C
:1056F000586D00080A0A0200806D00080A0A0200BC
:10570000A86D00080A0A0200D06D00080A0A02000B
:10571000F86D00080A0A0200206E00080A0A02005A
:10572000486E00080A0A0200706E00080A0A0200A9
:10573000986E00080A0A0200C06E00080A0A0200F9
:10574000E86E00080A0A0200106F00080A0A020048
:10575000386F00080A0A0200606F00080A0A020097
:10576000886F00080A0A0200B06F00080A0A0200E7
:10577000D86F00080A0A0200007000080A0A020036
:10578000287000080A0A0200507000080A0A020085
:10579000787000080A0A0200A07000080A0A0200D5
:1057A000C87000080A0A0200F07000080A0A020025
:1057B000187100080A0A0200407100080A0A020073
:1057C000687100080A0A0200907100080A0A0200C3
:1057D000B87100080A0A0200E07100080A0A020013
:1057E000087200080A0A0200307200080A0A020061
:1057F000587200080A0A0200807200080A0A0200B1
:10580000A87200080A0A0200D07200080A0A020000
:10581000F87200080A0A0200207300080A0A02004F
:10582000487300080A0A0200707300080A0A02009E
:10583000987300080A0A0200C07300080A0A0200EE
:10584000E87300080A0A0200107400080A0A02003D
:10585000387400080A0A0200607400080A0A02008C
:10586000887400080A0A0200B07400080A0A0200DC
:10587000D87400080A0A0200007500080A0A02002B
:10588000287500080A0A0200507500080A0A02007A
:10589000787500080A0A0200A07500080A0A0200CA
:1058A000C87500080A0A0200F07500080A0A02001A
:1058B000187600080A0A0200407600080A0A020068
:1058C000687600080A0A0200907600080A0A0200B8
:1058D000B87600080A0A0200E07600080A0A020008
:1058E000087700080A0A0200307700080A0A020056
:1058F000587700080A0A0200807700080A0A0200A6
:10590000A87700080A0A0200D07700080A0A0200F5
:10591000F87700080A0A0200207800080A0A020044
:10592000487800080A0A0200707800080A0A020093
:10593000987800080A0A0200C07800080A0A0200E3
:10594000E87800080A0A0200107900080A0A020032
:10595000387900080A0A0200607900080A0A020081
:10596000887900080A0A0200B07900080A0A0200D1
:10597000D87900080A0A0200007A00080A0A020020
:10598000287A00080A0A0200507A0008040401007C
:10599000787A0008141403008C7A000814140300A9
:1059A000C87A000814140300047B000814140300D0
:1059B000407B0008141403007C7B000814140300CF
:1059C000B87B000814140300F47B000814140300CF
:1059D000307C0008141403006C7C000814140300CD
:1059E000A87C000814140300E47C000814140300CD
:1059F000207D0008141403005C7D000814140300CB
:105A0000987D000814140300D47D000814140300CA
:105A1000107E0008141403004C7E000814140300C8
:105A2000887E000814140300C47E000814140300C8
:105A3000007F0008141403003C7F000814140300C6
:105A4000787F000814140300B47F000814140300C6
:105A5000F07F0008141403002C80000814140300C5
:105A60006880000814140300A480000814140300C4
:105A7000E080000820007F0094560008805A00084B
:105A8000A1A1A2A1945900088C5A0008E2B2E2B286
:105A9000A4590008985A0008CCB3CCB3AC590008FC
:105AA000A45A0008F3B4F3B4B4590008B05A00087B
:105AB000C1B5C1B5BC590008BC5A0008E7B5E7B587
:105AC000C4590008C85A0008C0B7C0B7CC5900086C
:105AD000D45A0008BCBABCBAD4590008E05A00082D
