:020000040800F2
:10000000508C00209D01000869350008612A000815
:1000100065350008110A0008494600080000000084
:10002000000000000000000000000000313B00085C
:10003000B10B000800000000A1360008E5400008F0
:10004000B7010008B7010008B7010008B7010008B0
:10005000B7010008B7010008B7010008B7010008A0
:10006000B7010008B7010008B7010008B701000890
:10007000B7010008B7010008B7010008B701000880
:10008000B7010008B7010008B7010008B701000870
:10009000B7010008B7010008B7010008B701000860
:1000A000B7010008B7010008B7010008B701000850
:1000B000B7010008B7010008B7010008B701000840
:1000C000B7010008B7010008B7010008B701000830
:1000D000B7010008B7010008B7010008B701000820
:1000E000B7010008B7010008B7010008B701000810
:1000F000B7010008B7010008B7010008B701000800
:10010000B7010008B7010008B7010008B7010008EF
:10011000B7010008B7010008B7010008B94100089D
:10012000B7010008B7010008B7010008B7010008CF
:10013000B7010008B7010008B7010008B7010008BF
:10014000B7010008B7010008B7010008B7010008AF
:10015000B7010008B7010008B7010008B70100089F
:10016000B7010008B7010008B7010008B70100088F
:10017000B7010008B7010008B7010008000000003F
:10018000B7010008B7010008DFF80CD000F092FBBF
:1001900000480047295B0008508C00200648804733
:1001A00006480047FEE7FEE7FEE7FEE7FEE7FEE75C
:1001B000FEE7FEE7FEE7FEE7A5410008890100082B
:1001C0002DE9F05F0546002092469B46884606468C
:1001D000814640241BE0284641464746224600F01F
:1001E0006BFA53465A46C01A914110D3114618462D
:1001F000224600F052FA2D1A67EB01084F462246BC
:100200000120002100F049FA17EB00094E41201EA1
:10021000A4F10104DFDC484631462A464346BDE8E6
:10022000F09F2DE9F0410024061B254671F10006E0
:1002300005DA01240027D0EB070067EB0101161E49
:1002400073F1000605DA0027D2EB0702012567EB00
:100250000303FFF7B5FF86460E4617469C46AC42A1
:1002600004D00025D0EB050E65EB010624B100207B
:10027000D2EB000760EB030C704631463A4663460A
:10028000BDE8F08140EA01039B0703D009E008C9FB
:10029000121F08C0042AFAD203E011F8013B00F84B
:1002A000013B521EF9D27047D2B201E000F8012B97
:1002B000491EFBD270470022F6E710B513460A46E6
:1002C00004461946FFF7F0FF204610BD30B504463E
:1002D0000020034600E05B1C934203D2E05CCD5C4F
:1002E000401BF8D030BD2DE9FE4F804681EA030067
:1002F000C00F0C46009021F0004123F00045B8EB00
:100300000200A94105D24046214690461C460B46B4
:10031000024623F00040104347D0270DC7F30A00E0
:10032000C3F30A510290401A019040286BDAC3F3DC
:10033000130040F4801B0098924620B10023D2EBBA
:10034000030A63EB0B0B01985946C0F1400250467B
:1003500000F0A3F906460D4650465946019A00F0B2
:10036000BBF910EB08006141002487EA115284EACE
:10037000E7731A4340D0009A62B3019A012A4FEA08
:10038000075215DC001B61EB02014FF0004202EA4C
:100390000752CDE90042001C41F5801132462B4640
:1003A00000F0F2F903B0BDE8F08F40462146F9E7CE
:1003B000001B61EB0201001C41F5801300185B413A
:1003C0002018A2F5001747EB030140EAD570B619D3
:1003D0006D4111E06D084FEA360645EAC0754FEAF7
:1003E0000752001B61EB0201001C41F58011490816
:1003F0004FEA30000019514132462B4603B0BDE8A8
:10040000F04F00F0B2B90098012240000023D0EB79
:10041000020263EBE073009821464FEAE074B8EB08
:10042000000061EB0401E9E783F000435BE781F042
:10043000004158E72DE9FE4F81EA030404F000442F
:1004400021F0004100944FF0000B23F0004350EAEC
:1004500001045ED052EA03045BD0C3F30A54C1F333
:100460000A552C44A4F2F3340194A0FB0254C1F3C6
:10047000130141F48011C3F3130343F4801301FB10
:10048000024400FB034E840A970A44EA815447EA77
:100490008357A4FB076802958D0A05FB07854FEA81
:1004A000932C04FB0C542705029D4FEA065847EA9B
:1004B0001637B5EB08056EEB070C870E920E47EA70
:1004C000811742EA8312A7FB0201B6EB0B0164EB32
:1004D00000042B0D43EA0C335E1844EB1C50DA4643
:1004E0005146E7FB0201C5F313044FEA0B3343EA1D
:1004F00014534FEA0432019C43EA0603A4F10C04AE
:100500000294009CCDE900B400F03EF903B0BDE8D0
:10051000F08F00200146F9E72DE9F04D81EA030450
:1005200004F0004B21F0004514464FF0000A23F080
:10053000004150EA050220D054EA01021DD0C5F363
:100540000A570246C5F31303C1F31300C1F30A5659
:1005500040F4801543F48013A7EB0608101BD64621
:1005600008F2FD3873EB050002D308F1010801E041
:1005700092185B41B8F1000F03DA00200146BDE894
:10058000F08D00204FF48011064684460EE0171BC4
:1005900073EB050705D3121B63EB050306434CEA17
:1005A000010C49084FEA300092185B4150EA0107FC
:1005B000EDD152EA030012D082EA040083EA050179
:1005C000084305D0101BAB4106D20122002306E0F0
:1005D00000224FF0004302E06FF0010253101AEBCB
:1005E00006004CEB085110EB0A0041EB0B01BDE893
:1005F000F04D00F0BAB80EB540F23341029100213F
:10060000CDE900110A460B4600F0BEF803B000BD6C
:1006100000F0004230F000400AD0C10D01F56071D9
:10062000C0F3160042EA0151C20840071143704767
:1006300000200146704701F0004330B421F0004132
:1006400050EA010206D00A0DA2F56072C1F313014F
:10065000002A02DC30BC00207047440F44EAC10489
:10066000C100E01830BC00EBC25000F047B830B514
:100670000B46014600202022012409E021FA02F560
:100680009D4205D303FA02F5491B04FA02F52844FA
:10069000151EA2F10102F1DC30BD202A04DB203A54
:1006A00000FA02F1002070479140C2F1200320FAC5
:1006B00003F3194390407047202A04DB203A21FAC3
:1006C00002F00021704721FA02F3D040C2F120026B
:1006D0009140084319467047202A06DBCB17203A81
:1006E00041FA02F043EAE07306E041FA02F3D04037
:1006F000C2F1200291400843194670470029A8BF63
:100700007047401C490008BF20F00100704710B43A
:10071000B0FA80FC00FA0CF050EA010404BF10BCEF
:10072000704749B1CCF1200421FA04F411FA0CF11C
:1007300018BF012121430843A3EB0C01CB1D4FEA55
:1007400000614FEA102042BF002010BC704700EB50
:10075000C35010440029A4BF10BC7047401C49007E
:1007600008BF20F0010010BC704710B5141E73F1D3
:10077000000408DA401C41F1000192185B411A4361
:1007800001D120F0010010BD2DE9F04D92469B46AD
:1007900011B1B1FA81F202E0B0FA80F22032904653
:1007A000FFF77BFF04460F4640EA0A0041EA0B01CF
:1007B00053465A46084313D0114653EA010019D054
:1007C000C8F140025046FFF777FF05460E465046F7
:1007D00059464246FFF761FF084305D0012004E077
:1007E00020463946BDE8F08D0020054346EAE07614
:1007F0002C4337430A986305E40AA0EB0800002263
:10080000FD0A44EA47540A3002D500200146E9E7D0
:10081000010510196941DDE9084500196941BDE884
:10082000F04DA2E7C1F30A52C1F3130140F2FF33C6
:1008300041F480119A4202DA00200146704740F2EA
:1008400033439A42A2F2334202DC5242FFF734BFF2
:10085000FFF723BF30B5041E71F1000404DB4FF035
:100860000044404264EB0101141E73F1000405DBF7
:100870001C464FF00043524263EB04038B4208BF17
:10088000824230BD30B5041E71F1000404DB4FF02C
:100890000044404264EB0101141E73F1000405DBC7
:1008A0001C464FF00043524263EB0403994208BFD9
:1008B000904230BD064C074D06E0E06840F0010371
:1008C00094E8070098471034AC42F6D3FFF760FC79
:1008D000D0EC0008F0EC00082DE9F04D00231A469A
:1008E0001B1A8A4103DB00200146BDE8F08DC1F3ED
:1008F0000A52C1F3130141F480154FF0000BD107E8
:1009000002D100186D41521E0027044640F2FF112B
:10091000384601EB620A3E468046024600204FF40C
:100920008011FFF7C9FEC2197141BB1846EB0100E7
:10093000B4EB030C75EB000C04D3E41A65EB000573
:1009400017460E46241908F101006D4180463428EF
:10095000E3DDF91946EB0600091BA84103D24FF06D
:10096000FF32134601E0002213461BEB070046EB63
:100970000A51BDE8F04DFFF7F8BE000070B540F237
:10098000E044C2F20004054620460E4601F044FC55
:10099000701E062888BF70BD0DA030F8160044F206
:1009A0004021C0F20F01B1FBF0F02168C862E060A5
:1009B0004008486305F0D2FF40F2B0412844C2F23B
:1009C000000108602046002101F098FE70BD00BFC4
:1009D000EE010B024C029402BA0210037003DC0316
:1009E00010B540F2B044C2F20004206870B105F0C6
:1009F000B5FF2168884238BF10BD0020206040F25A
:100A0000E040C2F20000002101F00AFF10BD00002A
:100A1000FEE7000041EA00207047000070B5144670
:100A20000D46064602F06EFECC2000F061F84E2026
:100A300000F05EF8204600F05BF8284600F058F819
:100A4000304600F055F802F05DFECC2000F050F882
:100A5000482000F04DF841F20004C4F2020400BF47
:100A60002046012100F09AFF0028F9D070BD000057
:100A700070B541F20004C4F20204204601210122B3
:100A800000F092FF052003F0C9FF08252046012150
:100A90000022C6F3460600F087FF052003F0BEFFE4
:100AA00020460121012200F07FFF052003F0B6FF60
:100AB0002046012100F072FF00284FF0410018BFCE
:100AC00066F07F0603F0AAFF20460121012200F014
:100AD0006BFF013D2806D9D1F0B270BD80B502F0A0
:100AE00011FECC2000F004F8442000F001F880BD95
:100AF000F0B581B041F2000405460826C4F20204B4
:100B000020460121002200F04FFF052003F086FF60
:100B100005F0010220460121EFB200F045FF41201F
:100B200003F07CFF20460121012200F03DFF02205E
:100B300003F074FF013E30064FEA5705E0D101B0E3
:100B4000F0BD000080B586B000200590CDE903001F
:100B5000CDE90100009043F63000C4F202000168C4
:100B600041F010010160006801A900F01000009040
:100B700000980120CDE9010041F20000C4F202001A
:100B800000F040FE06B080BD4EF6FC50CEF20000F4
:100B9000016841F08071016041F20000CEF2000076
:100BA000016841F0010101600021416070470000CF
:100BB0007047000070B504464D1E00202A1A215CC3
:100BC000B2FA82F2461C5209C0B203F077FD01204E
:100BD00005F0B4FE042E3046F0D170BD2DE9F0438F
:100BE00081B00646147803F007000D460FF2140199
:100BF000089F01EB800140F260099046C2F20009B3
:100C0000DFE800F00414233241505F6E99F81C00B5
:100C100061B2421E18BF0122B1F1FF3FD8BF0246A8
:100C2000B0B2A9B202F074FE013F6CD099F81C007A
:100C3000731C421E18BF0122610648BF0246A9B2BA
:100C400098B202F065FE013F5DD099F81C00B31C1C
:100C5000421E18BF0122A10648BF0246A9B298B29F
:100C600002F056FE013F4ED099F81C00F31C421EC4
:100C700018BF0122E10648BF0246A9B298B202F0AD
:100C800047FE013F3FD099F81C00331D421E18BF9C
:100C90000122210748BF0246A9B298B202F038FEED
:100CA000013F30D099F81C00731D421E18BF01226D
:100CB000610748BF0246A9B298B202F029FE013F7F
:100CC00021D099F81C00B31D421E18BF0122A107B4
:100CD00048BF0246A9B298B202F01AFE013F12D0F4
:100CE00099F81C00F31D421E18BF0122E10718BF2E
:100CF0000246A9B298B202F00BFE013F03D018F8E9
:100D0000014F083682E701B0BDE8F083B0B586B088
:100D100000F0F4FB4BF22800C0F6000000F032FDBA
:100D2000002000F025FD4EF60E20C0F60000002148
:100D3000002200F081FC012000F01AFD4EF6052093
:100D4000C0F6000000210D2200F076FC4EF6F910EE
:100D5000C0F6000000211A2200F06EFC4EF6F010E2
:100D6000C0F600000021272200F066FCCAA0002186
:100D7000342200F061FC34200021802200F084FC49
:100D800030200021342200F08BFC40F2B950C2F236
:100D900000000078022836D0012858D0002840F002
:100DA0007781CFA03221002200F046FCCFA0322173
:100DB0001A2200F041FC40F63430C2F20000006814
:100DC000FFF726FC01AC02460B46CBA1204607F0FC
:100DD0003DFD20465A210D2200F02EFC40F2B85075
:100DE000C2F2000001784EF62E224EF60220C0F626
:100DF0000002C0F60000002908BF10465A21272231
:100E000000F01AFC44E140F2D845C2F20005B5F901
:100E1000002001ACA6A1204607F018FD2046322193
:100E2000002200F009FCB5F90010B5F90000012915
:100E300031DB37214843C11700EB5140462101EB1C
:100E4000E03246200D21102300F02EFC35E040F268
:100E5000A845C2F20005B5F9002001AC9AA12046D0
:100E600007F0F4FC20463221002200F0E5FBB5F942
:100E70000010B5F90000012943DB37214843C117B1
:100E800000EB5140462101EBE03246200D211023BA
:100E900000F00AFC47E0B0F1FF3F0EDCB5F90000BE
:100EA00037214843C11700EB5140462101EBE032A6
:100EB00046201E21212300F0EFFB40F2DA45C2F26A
:100EC0000005B5F9002001AC7BA1204607F0BEFC6F
:100ED00020463221112200F0AFFBB5F90010B5F920
:100EE0000000012943DB37214843C11700EB514083
:100EF000462101EBE03246201E21212300F0D4FBE5
:100F000047E0B0F1FF3F0EDCB5F900003721484360
:100F1000C11700EB5140462101EBE03246201E2173
:100F2000212300F0B9FB40F2AA45C2F20005B5F951
:100F3000002001AC66A1204607F088FC2046322143
:100F4000112200F079FBB5F90010B5F90000012974
:100F500043DB37214843C11700EB5140462101EBE9
:100F6000E03246201E21212300F09EFB47E0B0F135
:100F7000FF3F0EDCB5F9000037214843C11700EBF5
:100F80005140462101EBE03246200D21102300F0B4
:100F900083FB40F2DC45C2F20005B5F9002001AC4C
:100FA00047A1204607F052FC20463221222200F0C1
:100FB00043FBB5F90010B5F90000012943DB3721E7
:100FC0004843C11700EB5140462101EBE032462077
:100FD0002F21322300F068FB5AE0B0F1FF3F0EDC16
:100FE000B5F9000037214843C11700EB51404621B5
:100FF00001EBE03246200D21102300F04DFB40F2C2
:10100000AC45C2F20005B5F9002001AC32A1204682
:1010100007F01CFC20463221222200F00DFBB5F91E
:101020000010B5F90000012920DB37214843C11722
:1010300000EB5140462101EBE03246202F213223C4
:1010400000F032FB24E0B0F1FF3F21DCB5F90000F5
:1010500037214843C11700EB5140462101EBE032F4
:1010600046202F21322300F017FB11E0B0F1FF3FA3
:101070000EDCB5F9000037214843C11700EB5140A1
:10108000462101EBE03246202F21322300F004FB01
:1010900000F08EFB06B0B0BD4B31A6E620204B32EF
:1010A000A1B6204B33A1B720204B34A6E7000000A7
:1010B00067783A253664000067793A25366400007F
:1010C000677A3A253664000061783A253664000074
:1010D00061793A2536640000617A3A253664000069
:1010E000B5B1C7B0CEC2B6C83A000000D5F0B6AFB1
:1010F000B1A8BEAF3A000000252E3166A1E600007F
:1011000080B500F0FBF94BF22800C0F6000000F0BB
:1011100039FB4EF60E20C0F600000021002200F040
:101120008BFA002000F024FB4EF60520C0F60000EC
:1011300000210D2200F080FA012000F019FB4EF68C
:10114000F910C0F6000000211A2200F075FA4EF6E0
:10115000F010C0F600000021272200F06DFA4EF6D4
:101160001720C0F600000021342200F065FA342078
:101170000021802200F088FA30200021342200F083
:101180008FFA00F015FB80BD80B500F0B7F94BF287
:101190002800C0F6000000F0F5FA4EF60E20C0F66A
:1011A00000000021002200F047FA4EF60520C0F6AC
:1011B000000000210D2200F03FFA002000F0D8FAD4
:1011C0004EF6F910C0F6000000211A2200F034FAA1
:1011D000012000F0CDFA4EF6F010C0F6000000211C
:1011E000272200F029FA4EF61720C0F60000002151
:1011F000342200F021FA34200021802200F044FA49
:1012000030200021342200F04BFA00F0D1FA80BDEA
:1012100080B500F073F94BF22800C0F6000000F032
:10122000B1FA4EF60E20C0F600000021002200F0B8
:1012300003FA4EF60520C0F6000000210D2200F052
:10124000FBF94EF6F910C0F6000000211A2200F05A
:10125000F3F9002000F08CFA4EF6F010C0F6000012
:101260000021272200F0E8F9012000F081FA4EF673
:101270001720C0F600000021342200F0DDF93420F0
:101280000021802200F000FA30200021342200F0FA
:1012900007FA00F08DFA80BDB0B540F2B454C2F246
:1012A0000004256805F05AFBA5B1216801F5FA6133
:1012B000884211D905F052FB216841F2883211446D
:1012C000884215D905F04AFB216801F5FA51884298
:1012D0002DD900202060B0BD00F010F94BF20800BD
:1012E000C0F6000000F04EFA1BA040210C2219E0CD
:1012F00000F004F94AF6E870C0F6000000F042FA87
:101300001CA04021002200F0A1F91EA060211022A3
:1013100000F09CF91EA04021202200F097F920A0A7
:101320006021322200F092F900F042FAB0BD00F0E4
:10133000E5F84DF69850C0F600000021002200F0BC
:101340009FF94DF68850C0F600004021002200F0C1
:1013500097F900F02DFAB0BDB7C0BBF0A1A2B7C09D
:10136000B5C1D4B60AB3CCBCE0B2E2C6F7C9E8BC9A
:10137000C6000000B3C9D4B1313AD6DCBFACCEC48C
:1013800000000000313830343138333800000000BC
:10139000B3C9D4B1323ABAFAD1E5B3C900000000FA
:1013A000313830343138313400000000EFF3108030
:1013B00072B600BFFEE7000080B50D2808BF80BDF3
:1013C0000A2802D100F0B4F880BD40F26001C2F2F8
:1013D000000109690968884780BD000010B582B026
:1013E000944602884388B0F804E084680846614661
:1013F000CDF800E0019401F08BFC02B010BD0000BC
:101400002DE9F04383B040F26008C2F20008D8F83A
:1014100010500446A9690846214600F03DF8C0B3C3
:1014200001884668671A06EBC70999F80240B8F9BF
:101430001400B8F9161016F837202B7DD9F804508F
:10144000CDE9004501F064FCD8F81000027D417D33
:10145000914213D9B8F81400B8F8163016F837705E
:1014600098F81C601A4407440B44013E91B2BAB28A
:101470009BB218BF0126009602F08AF9D8F8100036
:1014800099F80110807DB8F8142010FB0120A8F80D
:10149000140003B0BDE8F08305E000BF42888A4233
:1014A00028BF7047806818B102888A42F6D9F9E7E8
:1014B00070470000B0B540F26001C2F200010D6952
:1014C0000446A96908462146FFF7E6FF38B10188BE
:1014D0004068611A10F83100A97D4843B0BD002072
:1014E000B0BD0000012008807047000080B5806911
:1014F000FFF7D2FF002818BF012080BD80B5002073
:10150000002100F00DF9002000218022402300F08E
:1015100001F880BD80B582B04FF0000C80B289B276
:1015200092B29BB2CDF800C002F032F902B080BD99
:1015300080B500F0D5F840F26001C2F20001CA8A1D
:101540001044C88280BD0000002808BF70472DE904
:10155000F04F83B0074600F0C3F840F26006C2F2D5
:101560000006B6F814A0834600F0C2F8F18A009095
:10157000081AF08211E000BF708B00F00300013800
:101580000228504628BF0020B08238780A2808BFB9
:10159000F48217F8010B002841D0387800283ED09B
:1015A000384647F6FF7100F015F9054638462946DA
:1015B00000F00CF9718B01F00301012906D002291A
:1015C00012BF002100EBD071491000E00146B28A41
:1015D000B6F81690511A01EB0008A8F1010009EBCA
:1015E0000B04ADF80800601EB182ADF80410ADF830
:1015F0000A003846294601AAADF8069000F0DCF84A
:1016000038462946A6F8169000F0D0F8395C074411
:101610000D29B1D00A29AFD0A6F81480B9E7F08A15
:1016200000990844718BF08221F00300708303B0AD
:10163000BDE8F04F7047000080B540F26003C2F291
:1016400000039982DA82FFF77FFF80BDF0B581B099
:101650000D4640F26001C2F20001B1F91A100646CF
:1016600041F00200144600F097F80746304629463C
:101670002246FFF7E1FF384600F08EF801B0F0BDDA
:1016800080B5FFF7ABFE80BD80B50346084619461E
:1016900001F088FB80BD000080B503F099F880BDA3
:1016A00080B501F0A5FB80BDF0B581B099420BDAA1
:1016B0001C4615460E460746384631462A4601F076
:1016C00071FB0136B442F7D101B0F0BD80B540F2F4
:1016D0006001C2F2000109694968884780BD0000C5
:1016E00040F26000C2F200000069407D70470000D7
:1016F00040F26000C2F20000418B01F00C010C29A5
:1017000018BF082903D10069007D400870470429EB
:101710001CBF002070470069007D01387047000041
:1017200010B50C4603F0B6F8204603F0B9F80020D7
:1017300010BD000080B540F28000C2F200002E21F2
:10174000017040F260007F22C2F200000021C0F26E
:101750003F02C0E9001249F64C52C0F60002C0E94F
:10176000042101214172017702F062F9002080BD5D
:1017700040F26001C2F200010A7F824218BF08777E
:101780007047000040F26002C2F200020146106998
:10179000002918BF1161704740F26003C2F20003D4
:1017A000B3F91A10024608465A8370470846704734
:1017B00080B502F0E7F880BD80B5126840F26003A2
:1017C000C2F200035A6102F0E3FF80BD80B503F06E
:1017D0001BF880BD80B503F03FF880BDB0B504466E
:1017E00000F0E8F8054640F24800C2F20000007838
:1017F000611C18BF044400BF00F0DCF8401BA0428D
:10180000FAD3B0BD2DE9F04F83B000F13E4202F1B2
:10181000FF724FEAB22241F600470192C4F202077A
:1018200008224FF0010E00254FF0000A4FF000088B
:10183000B84208BF072200920AE000BF08F1010881
:101840000AF1040AB8F1100F05F1020500F0A280B8
:101850000C680EFA08FB14EA0B09EFD04C6804F090
:10186000030CACF1010EBEF1010F12D88268032304
:10187000CE6803FA05F7BA4306FA05F73A438260E1
:101880004268C4F3001722EA0B0207FA08F73A434A
:101890004260BCF1030F1CD0C26803238E6803FAB8
:1018A00005F7BA4306FA05F73A43BCF1020FC260E6
:1018B0000FD16FF0030202EA580202440AF01C063C
:1018C0000F23176A03FA06F40B69A743B3403B439F
:1018D0001362026803234F68AB409A4307F0030387
:1018E000AB401A43FB004FF0010E0260A6D5002268
:1018F00043F644030292C4F202031A6843F600441A
:1019000042F480421A601A68C4F2010402F4804270
:101910000292029A28F003024FF6084B2244CFF6B7
:10192000FF7B52F80B300AF00C070F26BE4023EA6B
:10193000060C019B009E072B38BF1E4606FA07F7D0
:1019400047EA0C0342F80B3022684B6842EA090769
:10195000DE0358BF22EA0907276062689E0342EA55
:10196000090758BF22EA09076760A268DE0242EA57
:10197000090758BF22EA0907A76043F60C47C4F2DB
:1019800001073A689B0242EA090358BF22EA0903A9
:101990003B6053E703B0BDE8F08F000000690840EA
:1019A00018BF012070470000002A08BF09048161A8
:1019B0007047000048F27000C2F2000000687047F3
:1019C00040F2480048F27001C2F20000C2F2000189
:1019D00000780A68104408607047000080B543F63C
:1019E0000040C4F20200016841F400710160016826
:1019F00041F480610160016841F48071016003205D
:101A000000F088F8002000F005F800F04BF8002006
:101A100080BD000010B586B00146372000220024AA
:101A200000F068F8372000F061F843F640000194B8
:101A3000C4F20200016841F02001016000686946BB
:101A400000F020000190019801A800F017F900F0C3
:101A50003BF94DF683614000C4F21B31A0FB01014C
:101A60004FF0FF3000EB914140F2285041F200422C
:101A7000C2F20000C4F2000240F2E733C0E90021E4
:101A8000C0E90243046100F07DFB10B1012006B003
:101A900010BD40F22850C2F2000000F00DFC06B06C
:101AA00010BD000080B582B0002043F640010190D7
:101AB000C4F202014A6842F480424A604A6802F471
:101AC00080420192019A00900868002240F0805004
:101AD000086008680F2100F08050009000986FF0B7
:101AE000010000F007F802B080BD000080B502F0F0
:101AF000DDFE80BD70B514460D46064602F0E6FEDA
:101B00002946224601F032FD0146304602F0E6FE4B
:101B100070BD000080B502F0FBFE80BD2DE9F041F4
:101B2000002800F08B8043F60808C4F2020804463F
:101B3000D8F8F8030D4600F00700884207D288F86D
:101B4000F853D8F8F80300F00700A84276D12068CF
:101B5000810717D5410705D5D8F8001041F4E051A9
:101B6000C8F80010010705D5D8F8001041F460410D
:101B7000C8F80010D8F80010A26821F0F001114355
:101B8000C8F80010C0073FD1D8F8F80300F00700EC
:101B9000A84207D988F8F853D8F8F80300F00700EE
:101BA000A8424BD12068410707D5D8F80010E26859
:101BB00021F4E0511143C8F80010000708D5D8F807
:101BC0000000216920F4604040EAC100C8F800002C
:101BD00000F09EF8D8F8001049F6DE42C1F3031178
:101BE000C0F60002515C40F2080220FA01F140F216
:101BF0004C00C2F200000068C2F200021160FFF760
:101C000009FF0020BDE8F0816068811E022907D22B
:101C100058F8081C89015CBF0120BDE8F08110E084
:101C2000012807D158F8081C89035CBF0120BDE8D2
:101C3000F08106E058F8081C890702D40120BDE8AD
:101C4000F081D8F8001021F003010843C8F8000023
:101C5000FFF7B0FE064641F2883700BFD8F8000013
:101C6000616800F00C00B0EB810F8DD0FFF7A2FE91
:101C7000801BB842F2D90320BDE8F0810F22026038
:101C800043F60802C4F20202136803F00303436040
:101C9000136803F0F0038360136803F4E053C36038
:101CA000D2F800C04FF4E05303EADC030361D2F83A
:101CB000F80300F0070008607047000040F20800D9
:101CC000C2F200000068704780B5FFF7F7FF43F6E7
:101CD0000801C4F20201096849F6EE42C1F382210B
:101CE000C0F60002515CC84080BD000080B5FFF71F
:101CF000E5FF43F60801C4F20201096849F6EE4225
:101D0000C1F34231C0F60002515CC84080BD000002
:101D100010B543F60404C4F20204606800F00C013C
:101D200042F200400829C0F2F40007D0042918BF8D
:101D300010BD41F20020C0F27A0010BD216801F010
:101D40003F02216823684902C3F3881105D4A1FB2F
:101D500000010023FEF734FA06E041F20020C0F251
:101D60007A004843B0FBF2F021680222C1F301413E
:101D700002EB4101B0FBF1F010BD00002DE9F04194
:101D800082B0002800F0A2800446007843F60006E6
:101D9000C007C4F2020643D0B06800F00C0004286B
:101DA00005D1306880033BD56068C8BB8EE0B06861
:101DB00000F00C00082802D170684002F1D4656878
:101DC000B5F5A02F0AD0B5F5803F0BD0306820F4D0
:101DD00080303060306820F4802006E0306840F4C5
:101DE00080203060306840F480303060FFF7E2FDE2
:101DF000002D054611D000BF3068800310D4FFF7D6
:101E0000D9FD401B6428F7D922E100BFFFF7D2FDBE
:101E1000401B64284FF0030055D830688003F5D488
:101E2000207880071AD5B06810F00C0F09D0B06880
:101E300000F00C00082840F08A807068400200F131
:101E400086803068800702D5E06801283ED130687E
:101E5000216920F0F80040EAC100306020780007D6
:101E600038D4207840074CD4A5695DB3B06800F041
:101E70000C00082840F09E80012D27D07068E16991
:101E800000F480028A4221D1216A00F03F028A4296
:101E90001CD147F6C071626A0140B1EB821F15D1B7
:101EA000A26A0023CFF6FF7303EBC23200F4403185
:101EB0006FF30F02914209D1E16A00F07060B0EB5C
:101EC000016F03D1002002B0BDE8F081012002B013
:101ED000BDE8F0816069002840F20000C4F24720AC
:101EE00057D00121C0F8801EFFF764FD054600BFF2
:101EF000706F8007B5D4FFF75DFD401B0228F7D94E
:101F0000A6E0306C10F080580AD100200190306CAF
:101F100040F080503064306C00F0805001900198A7
:101F200047F20007C4F200073868C00524D43868B7
:101F300040F480703860FFF73DFD05463868C00505
:101F40001AD4FFF737FD401B0228F7D980E0E0687C
:101F5000002851D00020C4F2472001210160FFF782
:101F600029FD0546306880073FF571AFFFF722FD78
:101F7000401B0228F6D96BE0A568052D50D0012D35
:101F800052D0306F20F001003067306F20F0040035
:101F90004DE00021C0F8801EFFF70CFD054600BF94
:101FA000706F80077FF55DAFFFF704FD401B0228CF
:101FB000F6D94DE00027C4F2472700203866FFF726
:101FC000F9FC022D05460BD13068800158D5FFF78A
:101FD000F1FC401B02284FF00300F5D973E700BF66
:101FE000306880017FF56EAFFFF7E4FC401B0228EC
:101FF0004FF00300F4D966E70020C4F24720002127
:102000000160FFF7D7FC0546306880077FF526AFF3
:10201000FFF7D0FC401B02284FF00300F4D952E731
:10202000306F40F004003067306F40F001003067DF
:10203000FFF7C0FC002D054641F2883714D000BFE1
:10204000306F800713D4FFF7B5FC401BB842F7D9B7
:10205000032002B0BDE8F081FFF7ACFC401BB842A2
:102060004FF003003FF62FAF306F8007F4D4B8F184
:10207000000F7FF4F9AE306C20F080503064F3E64E
:1020800004F11C052FCD08430021CFF6FF7140EA73
:10209000821001EBC3316FF30F0140EA0560084382
:1020A000706001203866FFF785FC044630688001C7
:1020B0003FF508AFFFF77EFC001B02284FF003003E
:1020C000F4D900E7704700007047000010B590F8A1
:1020D0003C20012A4FF0020252D0012380F83C300C
:1020E00080F83D200268D2F804E0D2F808C00C68FD
:1020F0002EF07003234341F2FF74C4F20004A242A5
:1021000053600DDC40F2FF73C4F200039A4215DC09
:10211000B2F1804F29D040F20043C4F2000322E024
:1021200040F2FF33C4F201039A4212DC41F600038D
:10213000C4F200039A4218D0002312E040F60003D4
:10214000C4F200039A4210D040F60043C4F20003E8
:1021500009E044F20003C4F201039A4205D040F2C0
:102160000043C4F201039A4204D149682CF0800371
:10217000194391600121002280F83D1080F83C2035
:10218000104610BD002804BF0120704710B504465A
:1021900090F83D0028B9002084F83C00204600F06B
:1021A0001FF8022084F83D002068211D02F00CF881
:1021B000012084F8460084F83E0084F83F0084F84B
:1021C000400084F8410084F8420084F8430084F819
:1021D000440084F8450084F83D00002010BD000054
:1021E00081B0006840F20041C4F20001884201D091
:1021F00001B070470020009043F64000C4F2020096
:10220000016841F002010160006800F002000090E6
:10221000009801B07047000090F83D1001291CBFE4
:1022200001207047022180F83D10006841F2FF71E3
:10223000C4F2000188420DDC40F2FF71C4F20001DB
:10224000884215DCB0F1804F29D040F20041C4F241
:10225000000122E040F2FF31C4F20101884212DCA9
:1022600041F60001C4F20001884218D0002112E0BA
:1022700040F60001C4F20001884210D040F600414F
:10228000C4F2000109E044F20001C4F201018842F5
:1022900005D040F20041C4F20101884206D18168B4
:1022A00001F00701062904BF00207047016841F0D2
:1022B000010101600020704790F83D1001291CBF0A
:1022C00001207047022180F83D10006841F2FF7242
:1022D000C168C4F20002904241F00101C1600DDC0E
:1022E00040F2FF71C4F20001884215DCB0F1804F6A
:1022F00029D040F20041C4F2000122E040F2FF3157
:10230000C4F20101884212DC41F60001C4F200016E
:10231000884218D0002112E040F60001C4F200010A
:10232000884210D040F60041C4F2000109E044F2B6
:102330000001C4F20101884205D040F20041C4F21C
:102340000101884206D1816801F00701062904BF16
:1023500000207047016841F00101016000207047D2
:1023600010B5044690F83C0001284FF0020008BF69
:1023700010BD012284F83C2084F83D0020684FF60F
:10238000777382689A4382600A683F2A14DD5F2A65
:1023900018DD602A28D0B2F5005F2DD0702A40D118
:1023A000D1E9012CCB68614601F0B2FF2068816859
:1023B00041F07701816034E01F2A0FDC92B1102ACE
:1023C00010D02EE0402A23D0502A2AD14B68CA6868
:1023D000194602F075F82068502120E0202A01D02B
:1023E000302A1ED111461AE04B68CA68194602F01D
:1023F00079F82068602112E0D1E9012CCB686146B0
:1024000001F086FF2068816841F48041816008E026
:102410004B68CA68194602F053F82068402101F061
:1024200083FF012084F83D00002084F83C0010BDAB
:102430007047000010B5044600680169890744BF71
:10244000C1685FEA817138D420680169490744BFD7
:10245000C1685FEA41713CD420680169090744BF43
:10246000C1685FEA017141D420680169C90644BFAF
:10247000C1685FEAC16145D420680169C9071CBF12
:10248000C1685FEAC1714AD120680169090644BF89
:10249000C1685FEA016149D420680169490644BF07
:1024A000C1685FEA416148D420680169890644BF78
:1024B000C1685FEA816147D410BD6FF0020101611C
:1024C000012121778069800745D02046FFF7B0FFC2
:1024D00047E06FF00401016102212177806910F467
:1024E000407F41D02046FFF7A3FF43E06FF0080193
:1024F000016104212177C06980073ED02046FFF7A3
:1025000097FF40E06FF01001016108212177C06959
:1025100010F4407F3AD02046FFF78AFF3CE06FF08E
:1025200001010161204600F0BDF9ADE76FF08001C7
:1025300001612046FFF7C6FDAEE76FF04001016183
:10254000204600F0BBF9AFE76FF0200101612046A3
:10255000FFF7BAFD10BD204600F050F8204600F00D
:10256000CBF8002020776FE7204600F047F82046A0
:1025700000F0C2F8002020776EE7204600F03EF819
:10258000204600F0B9F8002020776DE7204600F0E3
:1025900035F8204600F0B0F8002020776CE7000006
:1025A00080B586B040F200410068C4F2000100220C
:1025B00088420592CDE903220292019201D006B031
:1025C00080BD43F630000092C4F20200036843F07D
:1025D00002030360006800F00200009000981020E1
:1025E00001900220CDE90202CDE9042001F500307E
:1025F00001A9FFF707F906B080BD00007047000091
:10260000B0B5044690F83C00012804BF0220B0BDDC
:102610004FEAB2000D460121032884F83C1036D859
:10262000DFE800F0020A12222068294601F084FE49
:10263000206850F8181F0EE02068294601F0AEFE11
:10264000206850F8181F16E02068294601F0DCFECB
:10265000206850F81C1F41F008010160016821F05A
:102660000401016029690FE02068294601F000FF9C
:10267000206850F81C1F41F400610160016821F4DA
:10268000806101602969090202681143016000202C
:1026900084F83C00B0BD0000002804BF0120704752
:1026A00010B5044690F83D0028B9002084F83C009D
:1026B000204600F01FF8022084F83D002068211D0C
:1026C00001F082FD012084F8460084F83E0084F881
:1026D0003F0084F8400084F8410084F8420084F808
:1026E000430084F8440084F8450084F83D0000204D
:1026F00010BD0000704700007047000010B5044690
:1027000041B1082909D0042914BF04F1410004F1A2
:102710003F0004E004F13E0001E004F140000078D5
:1027200001281CBF012010BD022041B1082909D099
:10273000042914BF84F8410084F83F0004E084F8C1
:102740003E0001E084F840002068012201F0CEFD47
:10275000206841F2FF71C4F2000188420FDC40F2B0
:10276000FF71C4F20001884217DCB0F1804F49D0FC
:1027700040F20041C4F20001884243D049E040F2F7
:10278000FF32C4F20102904214DC41F60003C4F2AD
:102790000003984236D0002314E040F60001C4F252
:1027A000000188422ED040F60041C4F20001884268
:1027B00028D02EE044F20003C4F20103984221D055
:1027C00040F20043C4F20103984222D1436C884294
:1027D00043F400434364C2DD904207DC41F600014C
:1027E000C4F2000188420DD0002107E044F200014C
:1027F000C4F20101884205D040F20041C4F2010157
:10280000884206D1816801F00701062904BF002033
:1028100010BD016841F001010160002010BD000001
:10282000B0B50446006800220D4601F05FFD206847
:1028300040F2004240F48061C4F2010291420DD1A5
:10284000016A41F21112114208D1016A40F2444278
:10285000114203D1416C21F400414164016A41F20B
:102860001112114208D1016A40F24442114203D1CF
:10287000016821F0010101600120082D09D0042D1B
:102880000BD0002D14BF84F8410084F83E000020D6
:10289000B0BD84F840000020B0BD84F83F000020A7
:1028A000B0BD000080B5006841F20041C4F20001F3
:1028B000884208BFFFF784F880BD00007047000021
:1028C000002804BF0120704710B5044690F83D0071
:1028D00028B9002084F83C00204600F021F824208C
:1028E00084F83D002068C16821F40051C160204691
:1028F00001F00AFE2068016921F4904101614169FB
:1029000021F02A014161C16841F40051C1600020F9
:102910002021206484F83D1084F83E1010BD000092
:1029200080B586B041F200010068C4F201010022C6
:1029300088420592CDE903220292019201D006B0AD
:1029400080BD43F630000092C4F20200436943F0B8
:1029500010034361436903F010030093009B00924E
:10296000036843F001030360006800F00100009079
:1029700000984FF4C06001900220CDE902020320CC
:1029800004900720059001F5704001A9FEF73AFF79
:1029900006B080BD2DE9F04381B0044690F83D00BB
:1029A00020280BD10E4600294FF0010055D01746C4
:1029B000002A52D094F83C00012803D1022001B033
:1029C000BDE8F083012084F83C004FF0000921208D
:1029D0001D46C4F8409084F83D00FEF7EBFFA78445
:1029E000E784A1680746B1F5805F07D12069002818
:1029F0001CBF30464E46B046064601E04FF0000888
:102A000084F83C9007E000BF16F8010B216848608D
:102A1000E08C0138E084E08C80B1204680213A4689
:102A20002B4601F0DFFD80B9002EEDD138F8020B06
:102A300021686FF35F2048600026E9E720464021C7
:102A40003A462B4601F0CEFD18B1032001B0BDE897
:102A5000F083202084F83D00002001B0BDE8F08321
:102A6000FEE7000010B540F20044C4F20204204624
:102A70004FF400410022FEF797FF00F03BF920469B
:102A80004FF400510022FEF78FFF00F033F920468B
:102A90004FF400410122FEF787FF00F02BF920469A
:102AA0004FF400410022FEF77FFF00F023F910BD34
:102AB00010B540F20044C4F2020420464FF4004135
:102AC0000022FEF771FF00F015F920464FF4005187
:102AD0000122FEF769FF00F00DF920464FF4004196
:102AE0000122FEF761FF00F005F920464FF4004196
:102AF0000022FEF759FF00F0FDF810BD70B540F25E
:102B00000044C4F2020420464FF400510122FEF7B3
:102B10004BFF0826002500BF20464FF4004100224D
:102B2000013EFEF741FF00F0E5F820464FF400417A
:102B30000122FEF739FF00F0DDF820464FF4005186
:102B4000FEF72CFF002818BF0120310640EA45059A
:102B5000E2D120464FF400410022FEF725FFE8B203
:102B600070BD000070B540F2004405460726C4F26F
:102B7000020400BF20464FF400410022FEF714FF7C
:102B800000F0B8F8E8B2C20920464FF40051FEF751
:102B90000BFF6D0000F0AEF820464FF4004101221B
:102BA000FEF702FF00F0A6F83006A6F10106E1D11B
:102BB00020464FF400410022FEF7F6FE70BD0000F3
:102BC000B0B540F20044C4F2020420464FF4005174
:102BD0000122FEF7E9FE20464FF400410122FEF7F4
:102BE000E3FE00F087F820464FF40051FEF7D6FED2
:102BF00080B120464FF4005100220025FEF7D4FE9C
:102C000000F078F820464FF40051FEF7C7FE18B1E7
:102C10002846B0BD0020B0BD20464FF40051002230
:102C2000FEF7C2FE00F066F801252846B0BD0000A0
:102C300010B540F20044C4F2020420464FF40041B3
:102C40000022FEF7B1FE00F055F820464FF4005187
:102C50000022FEF7A9FE00F04DF820464FF4004197
:102C60000122FEF7A1FE00F045F820464FF4005186
:102C70000122FEF799FE00F03DF810BDB0B540F21C
:102C80000044C4F2020420464FF400410022FEF743
:102C90008BFE00F02FF820464FF400510122FEF782
:102CA00083FE00F027F820464FF400410122FEF792
:102CB0007BFE00F01FF820464FF40051FEF76EFE39
:102CC000B0FA80F0450920464FF400410022FEF79B
:102CD0006BFE2846B0BD000081B00A20009000982D
:102CE00030B100BF00980138009000980028F9D159
:102CF00001B0704781B00A200090009830B100BF49
:102D000000980138009000980028F9D101B0704770
:102D10002DE9F04383B040F26006C2F200068E4611
:102D2000B6F90210DDF82C90DDF82880A1EB0E0733
:102D30009C46012F06DBACEB0703012B2FDB07FBC7
:102D4000089901E063467146B6F906700CEB0E0572
:102D5000FF432F44012F02DBDB1B012B1FDBB6F9E6
:102D600004401518B6F90070E6432E44002EC8BF83
:102D7000921B87420BDD3F1A27F00706D21B09EB97
:102D8000E709304407F00706012A03DA07E00026C6
:102D9000012A04DBCDE90089029600F04FF803B068
:102DA000BDE8F08380B582B040F2600CC2F2000C46
:102DB000BCF902308B4219DCBCF906308B4215DBC2
:102DC000BCF90030BCF904E08342C8BF1846964500
:102DD000B8BF7246824209DB9CF81CC089B280B23F
:102DE00092B20B46CDF800C000F0FEFC02B080BDF0
:102DF00080B582B040F2600CC2F2000CBCF9003029
:102E0000834219DCBCF90430834215DBBCF9023083
:102E1000BCF906E08B42C8BF19469645B8BF72465A
:102E20008A4209DB9CF81CC080B289B293B2024688
:102E3000CDF800C000F0D8FC02B080BD2DE9F0470D
:102E400082B0012B15DBDDF83080DDE90AA51C46D8
:102E500091460E46074600BF384631462A4643464D
:102E6000CDF80090FDF7BAFE5544013C06F101068D
:102E7000F2D102B0BDE8F0872DE9F04381B02DED2D
:102E80000A8B8CB00DF11E000DF11D0700900DF1A5
:102E9000260008A903AA0BAB019701F02DFFBDF88E
:102EA0001E00C00540F1D1809DED030A9DED041A7E
:102EB0009DED052A9DED063A9FED814AB8EEC00AC8
:102EC00040F21808B8EEC11A40F6283920EE040A7C
:102ED000C2F2000821EE041AC2F20009B8EEC22ABA
:102EE000B8EEC33A88ED000A89ED001A22EE042AF2
:102EF00023EE043A31EE011A30EE000A21EE031AF5
:102F000020EE020A40F62C3640F6303730EE410A09
:102F1000C2F20006C2F2000710EE100A86ED002A87
:102F200087ED003AFDF774FB41EC100B05F0BCFC9B
:102F300051EC100B9FED600B54EC105B2A462346BE
:102F4000FDF778FAFDF777FB40F2C841C2F20001C5
:102F5000086096ED009A98ED001A97ED000A99ED39
:102F600000BA39EE09AA31EE011A2AEE000A21EE62
:102F70000B1A30EE010A10EE100AFDF749FBB8EE0D
:102F8000000A2BEE000A2BEE000A29EE0A1A30EE98
:102F9000410AB7EE001A30EE010A41EC180B10EEB0
:102FA000100AFDF735FB41EC110BB0EE480AF0EECC
:102FB000680A05F095FF51EC100B2A462346FDF7F1
:102FC00039FAFDF738FB40F2CC41C2F2000108604B
:102FD00099ED009A96ED00AA98ED00BA97ED00CA17
:102FE00029EE0A0A2BEE0C1A30EE010A30EE000A26
:102FF00010EE100AFDF70CFB2BEE0B0A29EE091A56
:1030000031EE000A2AEE0A1A30EE410A2CEE0C1AB2
:1030100030EE410A41EC180B10EE100AFDF7F8FAF9
:1030200041EC110BB0EE480AF0EE680A05F058FFCB
:1030300051EC100B2A462346FDF7FCF9FDF7FBFA8D
:1030400040F2D041C2F200010860BDF81E0010F04D
:10305000700F14D0BDF8261040F2D842C2F2000220
:103060001180BDF8281040F2DA42C2F2000211804D
:10307000BDF82A1040F2DC42C2F2000211800007C3
:1030800014D5BDF8200040F2A841C2F2000108802A
:10309000BDF8220040F2AA41C2F200010880BDF84A
:1030A000240040F2AC41C2F2000108800CB0BDEC3B
:1030B0000A8B01B0BDE8F0836666666666A64C4082
:1030C0000000803010B502F01BFE00281CBF00205D
:1030D00010BD43A006F03CFD782003F09FFB10B12B
:1030E000002448A077E04EF67F30C0F6000006F0DE
:1030F0002FFD782002F02AFD10B100244BA06AE0D9
:103100004EF65C30C0F6000006F022FD322003F0DF
:103110003FFB28B14EF69E300024C0F600005AE076
:103120004EF6D020C0F6000006F012FD01F0D6FDEC
:1031300028B14EF6BF300024C0F600004BE04EF63A
:103140007D20C0F6000006F003FD02F0B9FC01F09E
:1031500099FF28B14EF67A400024C0F600003AE00C
:103160004EF63830C0F6000006F0F2FC40F2731064
:1031700001F08CFC28B14EF6F8300024C0F60000B7
:1031800029E04EF6AD20C0F6000006F0E1FC32204A
:1031900001F0E0FE28B14EF624400024C0F6000005
:1031A00019E04EF6F420C0F6000006F0D1FC04F061
:1031B000D7F9012003F0FAF90146B0FA80F044098A
:1031C0004EF64F404EF61632C0F60000C0F6000232
:1031D000002908BF104606F0BBFC204610BD00BF0A
:1031E0006D707520696E697469616C697A61746962
:1031F0006F6E20636F6D706C6574652E2E2E2E2E93
:103200002E0000006D70755F7365745F73656E737B
:103210006F7220636F6D65206163726F73732065D9
:1032200072726F72202E2E2E2E2E2E006D70755FF4
:10323000636F6E6669677572655F6669666F206346
:103240006F6D65206163726F7373206572726F7248
:10325000202E2E2E2E2E2E0080B543F671704BF2AE
:103260006C02C0F60000C0F60002002103F0AEFBC5
:1032700040F29001C2F20001086043F609604BF28F
:103280004802C0F60000C0F60002002103F09EFBD9
:1032900040F28C01C2F20001086044F2DD004BF202
:1032A0009002C0F60000C0F60002002103F08EFB81
:1032B00040F29C41C2F20001086043F6C55049F655
:1032C0001C52C0F60000C0F60002002103F07EFB95
:1032D00040F25C01C2F20001086043F6A54049F6E5
:1032E000F842C0F60000C0F60002002103F06EFBB9
:1032F00040F25801C2F20001086080BD2DE9F04F94
:1033000087B0002543F630000695CDE90455CDE998
:1033100002550195C4F20200016841F2000741F034
:10332000100101600168C4F2020701F0100101916F
:10333000019901950168012241F080010160016855
:103340004FF0010A01F08001019101990195016896
:1033500041F002010160016801F00201019101994F
:103360000195016841F004010160016801F0040168
:10337000019101990195016841F001010160006826
:103380004FF47F4100F00100019001983846FEF7AC
:103390000BFBA7F5406630464AF2C0410022FEF71B
:1033A00003FBA7F5006948464FF4706100224FF413
:1033B000706BFEF7F9FAA7F5805840464FF41941B3
:1033C0000022FEF7F1FA384601210022FEF7ECFA5E
:1033D0001E2002A902AC81E8210438462146FEF7EE
:1033E00011FA6020CDE902050220049038462146FA
:1033F000FEF708FA4FF60170CDE9020A3846214679
:10340000CDE90455FEF7FEF94FF48060CDE9020ADC
:1034100030462146CDE90455FEF7F4F94AF2C000E2
:1034200002901120CDE90305304621460595FEF7AF
:10343000E9F948462146CDE902BACDE90455FEF73F
:10344000E1F94FF41940CDE9020A40462146CDE9A1
:103450000455FEF7D7F907B0BDE8F08F10B58EB070
:1034600040F2E04040F200420021C2F20000C4F20B
:103470000002532340F2E7340D91CDE90B11CDE961
:103480000911CDE90711CDE90511CDE90311CDE908
:103490000111C0E90023C0E9021401618161FEF756
:1034A00071FE002818BFFDF781FF4FF480500A908D
:1034B00040F2E040C2F200000AA9FEF751FF0028E6
:1034C00018BFFDF773FF40F2E040C2F20000FFF7C3
:1034D000E3F8002818BFFDF769FF40F2E040002440
:1034E000C2F2000008A9CDE90844FEF7EFFD00286C
:1034F00018BFFDF75BFF602001904FF4FA70CDE933
:10350000020440F2E040C2F2000001A9002205944A
:10351000FFF776F8002818BFFDF748FF40F2E040BB
:10352000C2F20000FFF73CF80EB010BD80B540F2CB
:10353000705041F20001C2F20000C4F20101002308
:103540004FF00C0C4FF4E13280E80E00C0E9033379
:10355000C0E905C3C361FFF7B3F9002818BFFDF741
:1035600025FF80BDFEE70000FEE7000000F0070039
:1035700080F00703042B28BF04234FF0FF3C0338DF
:103580000CFA03F338BF0020994381400CFA00F095
:1035900022EA00000843704710B540F20044C4F22C
:1035A0000204204680210122FEF7FEF9FFF794FB7A
:1035B000204640210122FEF7F7F9FFF78DFB204658
:1035C00040210022FEF7F0F910BD000070B540F276
:1035D0000045C4F202050446284640210022002688
:1035E000FEF7E2F9E0B2C20928468021FEF7DCF9D5
:1035F0006400FFF771FB284640210122FEF7D4F951
:10360000FFF76AFB284640210022FEF7CDF9FFF7BD
:1036100063FB072E06F10106E4D370BD10B540F23E
:103620000044C4F20204204680210122FEF7BCF9C6
:10363000204640210122FEF7B7F9FFF74DFB204657
:1036400080210022FEF7B0F9FFF746FB204640211B
:103650000022FEF7A9F910BD10B540F20044C4F2F3
:103660000204204640210022FEF79EF920468021D8
:103670000022FEF799F9FFF72FFB20464021012297
:10368000FEF792F9204680210122FEF78DF9FFF71F
:1036900023FB10BD0000000000000000000000003F
:1036A000EFF30980BFF36F8F154B1A681EF0100FF0
:1036B00008BF20ED108A20E9F04F10602DE90900C5
:1036C0004FF0500080F31188BFF34F8FBFF36F8F1F
:1036D00004F028FA4FF0000080F31188BDE80900DB
:1036E00019680868B0E8F04F1EF0100F08BFB0EC82
:1036F000108A80F30988BFF36F8F704700BF00BF47
:10370000B006002070B541F20004C4F20204204665
:1037100001210122FEF748F9322001F07FF920460D
:10372000012100220025FEF73FF94FF4FA7001F065
:1037300075F9204601210122FEF736F9282001F013
:103740006DF920460121FEF729F9A8B1002000BF3C
:103750000646012001F062F920460121FEF71EF91C
:10376000B6F5F97F03D8002806F10100F0D1002555
:10377000B6F5F97F88BF01254FF4FA7001F04EF9D4
:10378000204601210122FEF70FF9284670BD0000F6
:103790002DE9F04381B07F2823D889463F2920D8DE
:1037A00004461044DDF820807F2888BFC4F18002E1
:1037B00003EB090011193F2888BFC9F1400300201D
:1037C0008EB29FB2002500BF484481B220463246E7
:1037D0000B46CDF8008000F007F80135E8B28742CB
:1037E000F2D201B0BDE8F0832DE9F04F85B0054677
:1037F0007F280C464FF07F0128BF0D467F2A38BF37
:1038000011463F2C4FF03F0A28BF54463F2B38BF8C
:103810009A46681A38BF481BBAEB04034FF0FF32D0
:103820004FF0FF360E9F88BF0126039698BFA4EB8A
:103830000A038D4238BF0122049202043CD006B232
:103840000FFA83FB5E45CBF100000296D8BF06B2AB
:10385000BBF1000F45D00191284621463A4600F0C1
:1038600057F80E9A544502D1019885424CD006EB88
:10387000D6704FEA60080298C0F100090FFA88F08C
:1038800004994845C8BF0D4403995845B8BF0C4436
:103890000299AFB2A6B2B8BF88444845384631460F
:1038A000C8BFA8EB0B0800F033F80E9A5645E5D1D7
:1038B00001988742E2D127E0A245564638BF264606
:1038C000A94238BF0D46A24538BF5446A1B228468A
:1038D0003A4600F01DF801340E9F20B2B042F5DDEB
:1038E00012E0A2450E4638BF5446A9423CBF2E46C0
:1038F0000D4600BFA8B221463A4600F009F801354E
:103900000E9F28B2B042F5DD05B0BDE8F08F000093
:103910007F2898BF3F2900D97047B0B540F2940383
:10392000C2F200031B7801F0070E002B6FF070034A
:1039300003EA011140F29805B2FA82FC0844C2F28F
:10394000000518BF4FEA5C124FF0010C2B5C0CFA1B
:103950000EF123EA0104012A08BF43EA01042C54B2
:10396000BDE8B0407047000080B50246002840F234
:103970009800C2F200004FF4806118BFFF22FCF7EC
:1039800093FC80BDB0B540F298040025C2F200045B
:10399000A5F15000C0B2002100F014F80120002170
:1039A00000F010F81020002100F00CF820468021D3
:1039B000402200F01FF80135082D04F18004E7D102
:1039C000B0BD0000B0B50C460546FFF727FE7820D5
:1039D000FFF7FCFDFFF7E0FD2046FFF7F7FDFFF7DF
:1039E000DBFD2846FFF7F2FDFFF7D6FDFFF734FEBB
:1039F000B0BD000070B516460C460546FFF70EFE3A
:103A00007820FFF7E3FDFFF7C7FD3046FFF7DEFD47
:103A1000FFF7C2FD44B1013D15F8010FFFF7D6FDD8
:103A2000FFF7BAFD013CF7D1FFF716FE70BD0000AD
:103A300080B56420FDF7D2FEAE200021FFF7C2FF63
:103A400020200021FFF7BEFF10200021FFF7BAFF62
:103A5000B0200021FFF7B6FFC8200021FFF7B2FF1A
:103A600000200021FFF7AEFF10200021FFF7AAFF82
:103A700040200021FFF7A6FF81200021FFF7A2FFD1
:103A8000FF200021FFF79EFFA0200021FFF79AFFF3
:103A9000C0200021FFF796FFA6200021FFF792FF2C
:103AA000A8200021FFF78EFF3F200021FFF78AFFAB
:103AB000A4200021FFF786FFD3200021FFF782FF1B
:103AC00000200021FFF77EFFD5200021FFF77AFFBD
:103AD000F0200021FFF776FFD9200021FFF772FFC9
:103AE00022200021FFF76EFFDA200021FFF76AFF96
:103AF00012200021FFF766FFDB200021FFF762FFA5
:103B000020200021FFF75EFF8D200021FFF75AFFE4
:103B100014200021FFF756FFAF200021FFF752FFCE
:103B20000020FFF721FFFFF72DFF80BD0000000000
:103B3000074B19680868B0E8F04F80F30988BFF3B5
:103B40006F8F4FF0000080F31188704700BF00BFF7
:103B5000B006002080B500F0D3FE80BDB0B541F2C4
:103B60000004C4F2020420460221FDF717FFB0FA58
:103B700080F0450920460421FDF710FF002820466B
:103B80004FF0080108BF0235FDF708FF0028204666
:103B90004FF0100108BF0435FDF700FF0028204654
:103BA0004FF0200108BF0835FDF7F8FE0128204638
:103BB0004FF0400108BF45F01005FDF7EFFE40F261
:103BC000994CC2F2000C012808BF45F020059CF872
:103BD00000102A0615D0EBB28B4212D140F2984E5B
:103BE000C2F2000E9EF80020501CC4B2022C2A46DD
:103BF00018BF00228B428EF800000ED0022C09D193
:103C00000BE0E8B240F29843C2F20003002288427F
:103C10001A7002D000228CF80050D0B2B0BD000063
:103C200070B541F200040126C4F20204054626EAFA
:103C3000000220464FF48071FDF7B6FE26EA5502D9
:103C400020464FF40071FDF7AFFE26EA95022046AC
:103C50004FF48061FDF7A8FE26EAD50220464FF416
:103C60000061FDF7A1FE26EA151220464FF48051AF
:103C7000FDF79AFE26EA551220464FF40051FDF753
:103C800093FE26EA951220464FF48041FDF78CFE04
:103C9000E843C0B2C20920464FF40041FDF784FE5C
:103CA00070BD00004FF47A7002F048FE01F0B8FBDE
:103CB000FFF708FAC0B218B1B0FA80F0460912E076
:103CC000002400BF4FF4FA7002F038FE02F018F83A
:103CD000C1B2B1FA81F1012C4FEA511603D80006A6
:103CE00004F10104EED040F2AA4A40F2AC499FED43
:103CF000348A40F634380024C2F2000AC2F20009C5
:103D0000C2F20008B3EE0E9A00254FF0000B04E05B
:103D10004FF0000B012002F011FE02F01FFE04F52F
:103D20007A71884218D302F019FE044601F088FB2C
:103D3000B4EE480AF1EE10FA0EDA88ED000A98EDBA
:103D4000000AB4EE490AF1EE10FA05DB40F638310C
:103D50000120C2F200010870002EDBD102F0FEFD4E
:103D600005F132018842D5D302F0F8FD0546FFF790
:103D700083F840F2A841C2F20001B1F90000B1F9A4
:103D80000010BAF90020BAF900305A43B9F90030EE
:103D9000B9F9007011FB002048F2014117FB030044
:103DA000C1F2D7718842B3DBBBF1020F0BF1010BFB
:103DB000B0DB40F2B8510120C2F200010870A9E75F
:103DC0000000FA42FDF7B6FC40F2D444C2F200040F
:103DD00003E000BF642002F0B1FD20680428F9D898
:103DE000DFE800F006090C0F0300FDF711FAF1E718
:103DF000FDF752FAEEE7FCF789FFEBE7FDF780F9F4
:103E0000E8E7FDF7C1F9E5E740F2B85640F6383784
:103E100040F2D44840F2840B48F2407AC2F20006E5
:103E2000C2F20007C2F200080024C2F2000BC2F284
:103E3000000A0FF2341904E0002D18BFCBF800403F
:103E400062E0FFF78BFE054618B14846294604F0AC
:103E5000EDFC30783978084314D00F2DECD1DBF825
:103E6000005002F07BFD0DB3DBF8001001F6B83115
:103E70008842C0F049803C703470CBF80040CAF8EA
:103E8000004041E0D8F80000042823D8DFE800F023
:103E9000032711491800102D36D10120C8F8000061
:103EA00040F2B450C2F2000004602DE0CBF80000F4
:103EB0002AE0202D3FD0082D08D0012D24D13DE04F
:103EC000202D38D0082D39D0012D1DD10320C8F860
:103ED000000019E0202D08BFC8F8004014E0681E5B
:103EE0001F2811D8DFE800F02E1410321010102314
:103EF00010101010101010101010101010101010C2
:103F00001010101010101027012002F017FD98E774
:103F100040F2B950C2F2000000780028F4D0013815
:103F20001CE0202D07D0082D0CD0012DECD1022053
:103F3000C8F80000E8E7C8F80040E5E70120C8F845
:103F40000000E1E70420C8F80000DDE740F2B950C6
:103F5000C2F2000000780128D6D8013040F2B951F1
:103F6000C2F200010870CFE7253032580A00000085
:103F700082B040F2D44A40F6383740F2B85B48F29B
:103F800040760020C2F2000AC2F20007C2F2000B23
:103F90000DF10409C2F2000647F2305801900BE01F
:103FA0004FF02030019048460221FCF703FEFCF759
:103FB00017FD012002F0C2FCDAF8000020B1002059
:103FC000FFF72EFE02E000BF00F040FB38789BF8C0
:103FD00000100843E4D0356802F0C0FC002D75D015
:103FE000316801EB0805A84272D2B84602F0B6FC6F
:103FF00041F25971281ACDF2B711A0FB01124CF60B
:10400000CD43510BCCF6CC43A1FB032C44F6D35249
:10401000C1F2620248F21F57A0FB0225C5F2EB175E
:10402000AA09A0FB07567609A2FB0354A6FB035777
:10403000A0FB0305E808A0FB03534FEADC0505EBF2
:104040008505A1EB45018DF80410E10801EB810124
:10405000A2EB41018DF80510F90801EB8101A6EBF7
:104060004105D90801EB8101A0EB4100052D8DF838
:1040700006508DF807000CD80120A84010F02A0F38
:1040800007D09BF80000012803D164202946FCF7E3
:1040900075FC05F00F0048F2407606284746C2F24C
:1040A000000647F230583FF67EAF012101FA00F0DA
:1040B00010F0540F3FF477AF387801287FF473AFD6
:1040C00064202946FCF75AFC6DE700BF30606AE7C0
:1040D00000208BF800003870306064E7012002F0A7
:1040E0002DFCFBE780B54EF21000CEF20000006818
:1040F00004F044F9012818BF03F0ECFD80BD000076
:1041000070B592B006AC20463021FCF7D4F80025FB
:1041100043F640000595CDE90355CDE901550095DD
:10412000C4F202000168022641F08051016000687B
:1041300000F080500090009847F200000095C4F213
:104140000000016841F4804101600068A82100F48A
:10415000804000900098012006904FF48030079036
:104160004FF480000D9004200E90119020460C9684
:10417000CDE90F16FDF702FE88B90F20CDE9010643
:104180004FF4A05004904FF48050059001A80521F1
:104190000395FDF7C3FC002804BF12B070BDFDF706
:1041A00005F900004EF68850CEF20000016841F497
:1041B000700101607047000080B540F22850C2F2E3
:1041C0000000FEF737F980BD10B540F6FF3E0368EA
:1041D000C4F2000E40F2004C7045C4F2010C0FDC3A
:1041E000B0F1804F19D040F20042C4F20002904278
:1041F00013D040F60002C4F2000290420DD010E04D
:1042000040F60042C4F20002904206D0604504D05D
:104210000022C4F20102904203D14A6823F07003E5
:10422000134341F6FF72C4F2000290420DDC704568
:104230001FDCB0F1804F41D040F20042C4F20002D6
:1042400090423BD040F6000221E043F6FF72C4F2F8
:104250000102904220DC42F20002C4F200029042CD
:104260002CD00022C4F20102904227D0604525D014
:1042700028E040F60042C4F2000290421ED041F60F
:104280000002C4F20002904218D041F60042C4F28B
:104290000002904212D015E044F20002C4F2010282
:1042A00090420BD044F60002C4F20102904205D0C5
:1042B00044F20042C4F20102904203D1CA6823F4DE
:1042C0004073134323F080024B69D1F800E08C68FF
:1042D0001A430260C46240F48062C0F828E062457C
:1042E00004BF096901630121416110BD80B501F07E
:1042F0001F014FF0010CD0F820E00CFA01F32EEA78
:1043000003030362036A02FA01F11943016280BDEB
:10431000D0F808C011432CF47F4C41EA032141EA54
:104320000C01816070470000826822F07002114326
:1043300041F0070181607047B0B5026A40F2004564
:1043400022F001020262026AD0F804E0D0F818C03C
:104350008C6822F0020240F48063C4F20105AB4293
:1043600042EA040205D1CC6822F00C0224F00404D5
:1043700022430C68AB4207D1D1E905532EF4407EAD
:1043800045EA0E0545EA030E2CF073032343C0F8FB
:1043900004E08361496841630262B0BD70B5026A9E
:1043A00040F2004422F010020262026AD0F804E0F7
:1043B000D0F818C08D6822F0200240F48063C4F267
:1043C0000104A34242EA051207D1CD686FF040060E
:1043D00022F0C00206EA05152A430D68A34207D160
:1043E000D1E905642EF4406343EA860343EA840E70
:1043F0002CF4E64343EA0523C0F804E083614968EE
:104400008163026270BD000070B5026A40F2004430
:1044100022F480720262026AD0F804E0D0F81CC074
:104420008D6822F4007240F48063C4F20104A34258
:1044300042EA052207D1CD6840F2FF462D0222F460
:104440004062B5432A430D68A34207D1D1E9056410
:104450002EF4405343EA061343EA041E2CF0730380
:104460002B43C0F804E0C3614968C163026270BDB8
:1044700070B5026A40F2004622F480520262026A7B
:104480004368D0F81CE00C68D1F808C040F480659F
:10449000C4F20106B54204D14D6923F4804343EAD6
:1044A00085132EF4E64646EA04264360C66122F4EC
:1044B0000052496842EA0C320164026270BD000099
:1044C000D0F820C0036A23F001030362836923F05C
:1044D000F00343EA02122CF00A03194382610162DD
:1044E00070470000036A23F0100303628369D0F869
:1044F00020C023F4704343EA02322CF0A00343EAC5
:10450000011182610162704710B504460068D4E968
:1045100002C22369016921F44051114301616269BA
:1045200043EA0C01E3691143C268194349F20C6381
:104530009A431143C1604169A26921F4407141F27B
:104540000043114340F48062C4F201039A42416186
:1045500002D1FDF7CBFB01E0FDF7B6FBE169636833
:104560001922B1F5004FA0FB02011CD15A00DB0F4C
:10457000FBF726FE48F21F51C5F2EB11A0FB012309
:104580005A096FF0630302FB0300322303EBC00000
:10459000A0FB01014FF4F87000EA111000EB0210CB
:1045A000C1F342111AE09A009B0FFBF709FE48F293
:1045B0001F51C5F2EB11A0FB01235A096FF06303F1
:1045C00002FB0300322303EB0010A0FB0101F020EB
:1045D00000EA511000EB0210C1F3431122680843B6
:1045E000906010BD2DE9F041044600680068084065
:1045F000884202D10020BDE8F0811D460E4690465B
:104600005F1C04E0206800683040B042F2D0002F08
:10461000F8D02DB1FDF7CEF9A0EB0800A842F1D9F2
:104620002068C16821F4D071C160416921F00101A5
:104630004161202084F83D0084F83E00002084F889
:104640003C000320BDE8F081FEE70000B0B540F279
:10465000B454C2F20004256802F080F995B12168D3
:1046600001F5FA5188420ED30020206040F2D44078
:10467000C2F20000012101604FF4FA700321FCF73F
:104680007DF900E0206040F2A044C2F200042078EE
:10469000FFF7C6FA02F062F940F2A445C2F2000543
:1046A000296801F5FA71884238BFB0BD2078C0434F
:1046B000207002F053F92860B0BD00002DE9F043EE
:1046C00081B00024C4F20204164689468046002ABE
:1046D00020464FF480514FF0000218BF01260025FC
:1046E000FDF762F909F00F0025A1085CB9F10F0F81
:1046F00040EAC61704F5006688BF002720464FF43D
:1047000000610022FDF750F9F8B2C20930464FF4BB
:104710008071FDF749F920464FF4006101227F00C6
:10472000FDF742F9072D05F10105E7D320464FF4C7
:1047300080710022FDF738F920464FF48071012284
:10474000FDF732F908F0010220464FF40041FDF771
:104750002BF9C8F3400230464FF48061FDF724F98D
:1047600030464FF400610022FDF71EF920464FF459
:1047700080510122FDF718F901B0BDE8F08300BFB8
:104780003F065B4F666D7D077F6F777C395E797181
:1047900080B500F001F880BDB0B50129B8BFB0BD4B
:1047A0000C46054607E000BF013CD0B2FCF704FE12
:1047B000002C28460BDD15F9012BB2F1FF3FF3DC8D
:1047C0004178851CD0B2023CFCF724F9EEE7B0BD7D
:1047D000F0B581B01C4615460E460746FEF7E2FAD4
:1047E000384621462A46FEF7DDFA0136013C3846B6
:1047F00031462246FEF7FCFA284631462246FEF7AD
:10480000F7FA01B0F0BD0000F0B581B000B30D467D
:1048100000294FF000041CD406460078C8B10024DB
:1048200041B2B1F1FF3F03DD0136013DC0B206E008
:104830007178C0B2B71C023DFCF7ECF83E46FCF7BD
:1048400045FF002D044404D430780028E8D100E06E
:104850000024204601B0F0BD844601294FF000003D
:1048600017DB9CF80030A3B1002009E001300CF107
:10487000020C01308842A8BF70479CF8003043B159
:104880005AB2B2F1FF3FF1DD0A2B02D00CF1010C5C
:10489000EFE7704740F26001C2F200018882704782
:1048A00040F26001C2F20001C8827047002848BF90
:1048B000704700F01F01012202FA01F14EF20012CE
:1048C0004009CEF2000242F8201070474EF60C501C
:1048D000CEF200000068C0F3022070474EF6145379
:1048E00000F00F02CEF2000309011A4400F1604308
:1048F000B0F1FF3FC8BF03F564421170704700007C
:104900004EF61F50CEF200000021017070470000EB
:104910004EF60C51CEF200010A684FF6FF031A4022
:1049200060F30A2242F0806040F0FD70086070473A
:1049300070B584B001AE054630460C4600F0B4FDBB
:104940009FED220A9FED242A9FED213A9FED214AF7
:104950000021BFEE001A4FF0010C002008E000BF5C
:104960000CFA01F210430131032906F104062AD0A2
:1049700055F8213054F821209B1A48BF5B4296ED30
:10498000006A05EE103AB8EEC55AB5EE406AF1EE8F
:1049900010FA25EE005A0BD085EE065A35EE015A74
:1049A000B0EEC55AB4EE425AF1EE10FADBDDD7E7AD
:1049B000B4EE435AF1EE10FAD2DBB4EE445AF1EE03
:1049C00010FAD0DDCCE704B070BD00BF0000803726
:1049D0009A99993E3333733F295C0F3EB0B5044634
:1049E0004078E578C0070BD040F2B440C2F2000036
:1049F00002682AB105F00700411CC5F3C2009047C8
:104A00006078000709D540F2B840C2F200000168A2
:104A1000002908BFB0BDA8098847B0BD82B040F2E8
:104A20000801C2F2000109684DF68362C4F21B322C
:104A3000A1FB0212920C41F204015043CEF200019C
:104A400001900868009000BF0868009A019B801AD6
:104A50009842F9D302B0704780B5FCF7BFFE80BD25
:104A600080B582B000280EBF4FF0A33042F6200080
:104A7000C3F63000019001AA40F69E20042101F007
:104A80002BFF01F09DFB02B080BD00002DE9F0413D
:104A900084B004464CF60220C0F6E3100DF1060582
:104AA000CDF80600682004212A4601F015FFA32056
:104AB0006FF03F018DF8060014F0400608BF6FF05C
:104AC0005C016FF037026FF03D0308BF6FF05C02CE
:104AD00008BF6FF05C038DF807106FF03B018DF895
:104AE00008208DF8093014F4C07708BF6FF05C011E
:104AF0006FF033026FF0390308BF6FF05C0208BF3C
:104B00006FF05C038DF80A104AF2A3318DF80B2088
:104B1000ADF80D108DF80F0040F6A7200A212A46A7
:104B20008DF80C3001F0D8FE202014F0030808BFE7
:104B30006FF027008DF8060040F6B62001212A46C6
:104B400001F0CAFEC4F3401000F08CF8CFB1E005CC
:104B500004D49020B4218022B02303E09B20B6210E
:104B60008B22B2238DF807208DF808108DF80900EC
:104B70000DF1060240F6A22004218DF8063001F066
:104B8000ABFEE0070AD1D8208DF806000DF1060231
:104B90004FF40B60012101F09FFE27E0F8208DF813
:104BA00006000DF106024FF40B60012101F094FEA6
:104BB0000720FA2100F064FB072000F02DFB012004
:104BC00000F04AFB642000F0FFFB4FF4FA7000F0A5
:104BD00011FC4EF20930C0F2CA20C82100F0DAFA06
:104BE000282000F0EDFA0A2000F000FBA0076FF08B
:104BF000260058BF6FF027008DF806000DF1060261
:104C000040F23D70012101F067FEC4F3800000F026
:104C10004FF8C4F30010FFF723FF40F2C04144F007
:104C20000800C2F20001088001F0CAFA002E18BF85
:104C30000626002F40F2C64018BF0636C2F200001A
:104C400014F0140F067002D0017810310170B8F121
:104C5000000F02D0017804310170002004B0BDE8DB
:104C6000F081000080B584B060B15D208DF80C004B
:104C700049F6B400C3F20D5002904AF6B820C8F6C7
:104C8000B3500BE0C7208DF80C0048F6B000CCF212
:104C9000C35002904AF6B820CAF6AA20019001AA91
:104CA0004FF49760092101F017FE04B080BD0000A9
:104CB00080B582B000280EBF4FF08B304CF2C02080
:104CC000CCF2C460019001AA40F69820042101F0C2
:104CD00003FE01F075FA02B080BD000080B54DF60C
:104CE000A851C0F6000140F6F6304FF48062C823A8
:104CF00001F016F980BD00002DE9F04F89B017468C
:104D0000DDE912820E460021A8F8001040F2C641EB
:104D1000C2F2000109780DF1040B8246084659469B
:104D200001F0C8F920B14FF0FF3009B0BDE8F08FB5
:104D300040F2C049C2F20009B9F8000010F0140FA7
:104D40004CD09DF805109DF804009DF8062009043C
:104D50009DF8073041EA006040EA022119443960B9
:104D60009DF809109DF80820090441EA02619DF8A8
:104D70000A209DF80B3041EA02221A447A609DF81D
:104D80000D209DF80C30120442EA03629DF80E30AB
:104D90009DF80F5042EA03232B44BB609DF811306D
:104DA0009DF810501B0410FB30F043EA05639DF89A
:104DB000125011FB31009DF8134012FB320043EA00
:104DC000052513FB33002C4400F17145B5F1007F3C
:104DD000FC6005D901F0F4F9002005E0002009E0AD
:104DE000B8F8000040F48070B5F1007FA8F800002A
:104DF00099D81020B9F800104A0626D540F00103D2
:104E00001BF800201BF8033040F0030743EA02229E
:104E100040F002031BF803301BF80770328047EAAA
:104E2000032240F0040340F005071BF803301BF891
:104E30000770728047EA0322B280B8F8002040F081
:104E4000060042F00802A8F8002011F4C07F18D034
:104E50003BF800200BEB000312BA5F88120CAAF893
:104E600000203ABA9B88120CAAF802201ABA120C37
:104E7000AAF80420B8F80020063042F07002A8F822
:104E80000020890702D05844FFF7A8FD002009B090
:104E9000BDE8F08FB0B584B004460DF1020000F01B
:104EA0009DFE40F2BC41C2F200010988BDF802003B
:104EB00001F003024B0754F822204FF00C034FEA95
:104EC000C03C48BF524203EA51038806E358C1F38D
:104ED000811048BF5B4254F82000C90548BF4042DA
:104EE0008CFB00018CFB02E2800F8CFB035440EA38
:104EF000810C900D8DF80400900B8DF80500900941
:104F00008DF80600A00D8DF80800A00B8DF80900A3
:104F1000A0098DF80A00880D8DF80C00880B4FEA67
:104F20009E73AD0F8DF80D00880943EA820345EAB0
:104F300084058DF80E0001AA4FF425700C218DF820
:104F400007308DF80B508DF80FC001F0C5FC04B090
:104F5000B0BD000010B586B004464AF6BB70CDF671
:104F6000DF7005904FF2AA10CDF6DF7004904FF27B
:104F7000FE20CCF2AB40C82C039015D8C820B0FB63
:104F8000F4F001AA013800BA000CADF8040040F2B8
:104F90001620022101F0A0FC30B903AA40F6C1207E
:104FA0000C2101F099FC18B14FF0FF3006B010BD94
:104FB00040F2C440C2F200000480002006B010BDE0
:104FC00070B582B040F2BC41C2F2000109884EF2D5
:104FD000093401F0030250F822200C264B0748BF89
:104FE0005242C0F2CA2406EA5106C1F3811582FB7F
:104FF0000423865950F82550880648BF7642C805D4
:105000004FEA935148BF6D42900F8DF80410990BF1
:1050100040EA83008DF8051099098DF806108DF887
:10502000070001AA4FF47470042101F055FC68B91F
:1050300086FB0401800F40EA810000BA019001AABA
:105040004FF47570042101F047FC18B14FF0FF30A8
:1050500002B070BD85FB0401800F40EA8100010EA3
:105060008DF80410010C8DF80510010A8DF806105A
:105070008DF8070001AA4FF47670042101F02CFC92
:1050800002B070BDB0B582B0054649F6DB41C0F64E
:105090000001C5F3C10300F00300CC5C0A5C8DF88D
:1050A000054049F6D8448DF80420C5F38112C0F6B6
:1050B0000004895C205C8DF806108DF80000E05C2F
:1050C000A15C8DF801008DF8021001AA40F2264083
:1050D000032101F001FCA0BB6A4640F22A400321F3
:1050E00001F0FAFB68BB76208DF8060045F23660C9
:1050F000ADF8040044F22660ADF8000066206907B0
:105100008DF8020021D4A8062DD4E8050BD59DF812
:1051100006009DF8021040F001008DF8060041F0F5
:1051200001008DF8020001AA4FF48860032101F00C
:10513000D3FB30B96A4640F23140032101F0CCFB89
:1051400000B34FF0FF3002B0B0BD9DF804009DF8F1
:10515000001040F001008DF8040041F001008DF8CE
:105160000000A806D1D59DF805009DF8011040F07B
:1051700001008DF8050041F001008DF80100E805FF
:10518000C5D4D0E740F2BC40C2F200000580002048
:1051900002B0B0BD80B582B044F6D352C1F2620213
:1051A00050FB02F0821102EBD070484300BA01902C
:1051B00001AA4FF4AE70042101F08EFB02B080BD55
:1051C00080B582B04CF6CD41CCF6CC41A0FB0101BC
:1051D000880840BAADF806000DF106024FF4AD7034
:1051E000022101F079FB02B080BD000080B582B0E1
:1051F0004CF6CD41CCF6CC41A0FB0101880840BA69
:10520000ADF806000DF106024FF4AC70022101F07A
:1052100063FB02B080BD000080B582B000F00102E7
:105220005242410802F0300261F3820261F3C3028C
:1052300040078DF8072005D59DF8070040F00300D2
:105240008DF807000DF107024FF4A470012101F061
:1052500043FB02B080BD000080B582B00428014647
:1052600028BF0421002818BF481E8DF807000DF143
:10527000070240F24F10012101F02EFB02B080BD69
:10528000B0B582B00446B1F5C86F4FF0FF3045D8D5
:105290000D4614F0070141D00DF1030000F082FC2F
:1052A0009DF8030002384FEA7000072865D8C1B2A4
:1052B0008B2222FA01F1C9075FD000EE105A9FED50
:1052C000311AB8EE400A80EE010A2FA101EB8001ED
:1052D00091ED001A34A101EB800090ED002A20EE40
:1052E000011A20EE020ABDEEC00A10EE100ABDEE51
:1052F000C10A10EE101A0A0A8DF804208DF8051064
:10530000010A01AA951C8DF80610E1078DF8070027
:1053100006D1A00713D4600720D4002002B0B0BD8E
:1053200001AA4FF4EA70022101F0D6FA28BB4FF42B
:10533000927002212A4601F0CFFAF0B9E9E701AAFA
:105340004FF4EC70022101F0C7FAB0B94FF4947039
:1053500002212A4601F0C0FA78B9DCE701AA4FF42D
:10536000EE70022101F0B8FA38B94FF496700221BC
:105370002A4601F0B1FA0028CFD04FF0FF3002B03A
:10538000B0BD00BF0000484300008046000000465A
:1053900000008046000080450000804600008046F6
:1053A0000000804600000045000040460000C04567
:1053B00000004046000040450000404600004046D6
:1053C000000040460000C04480B582B04CF6CD419C
:1053D000CCF6CC41A0FB0101880840BAADF806002C
:1053E0000DF106024FF4EF70022101F075FA02B0E0
:1053F00080BD000080B582B04CF6CD41CCF6CC41EA
:10540000A0FB0101880840BAADF806000DF10602C4
:105410004FF4ED70022101F05FFA02B080BD000090
:1054200080B5FBF7B1FBFBF78DFBFEF76BF97F2037
:1054300064218A22FBF7F2FAFBF750FB80BD0000E3
:1054400010B5FBF74BFBFEF75DF9CC20FBF750FBEB
:10545000BE20FBF74DFBFBF70BFB0446FBF708FBFD
:1054600044EA0020FBF7C7F89FED050B53EC102B27
:10547000FAF7E0FFFBF7DFF800EE100A10BD00BFFF
:10548000000000000000B03F80B582B0019040F203
:105490007050C2F2000001A901224FF6FF73FDF720
:1054A00079FA019802B080BDB0B582B040F21C011B
:1054B000C2F2000149680446097801AB08460D2193
:1054C000042200F0E9FA08B102B0B0BD9DF8040072
:1054D0009DF807304FF01C0E9DF805100EEAD00025
:1054E000C3F3011210449DF806C08DF801000EEAC6
:1054F000D100C3F3810108448DF802000EEADC00FC
:1055000003F0030141F27B4C9FED160A9FED161A42
:1055100008444FF0000E0DF10101C3F6AE6C0023FC
:105520008DF8030005E000BFC2F800E00133032B53
:10553000CAD0C85C04EB83020028F5D0C85CC2F86E
:1055400000C001380506C854F0D0C85CB0EE402A4F
:105550000138050622EE012AFAD182ED002A01F86F
:1055600003E0E3E77B14AE3E1D5A843F2DE9F04390
:1055700083B040F21C0705460120C2F200070C462A
:10558000ADF80000D7E9001016460078897C6B461C
:10559000022200F08BFA10B14FF0FF378CE1C820E7
:1055A000FFF75AFA00208DF80000D7E900106B468B
:1055B0000078C97B012200F079FA10B14FF0FF3773
:1055C0007AE1D7E900106B4600784979012200F0B2
:1055D0006DFA10B14FF0FF376EE1D7E900106B465E
:1055E0000078897C012200F061FA10B14FF0FF379A
:1055F00062E1D7E900106B460078C97D012200F016
:1056000055FA10B14FF0FF3756E1D7E900106B465D
:1056100000780979012200F049FA10B14FF0FF3704
:105620004AE10C208DF80000D7E900106B460078A5
:105630000979012200F03AFA10B14FF0FF373BE14F
:105640000F20FFF709FAB86A3968407A7A688DF84E
:105650000000107889786B46012200F027FA10B11B
:105660004FF0FF3728E1B86A3968007A7A688DF818
:105670000000107849786B46012200F017FA10B14B
:105680004FF0FF3718E1B86AD7E90012807A002E90
:1056900018BF40F0E0008DF80000107889796B4663
:1056A000012200F003FA10B14FF0FF3704E126B1F8
:1056B000B86AC07A60F01F0000E018208DF8000082
:1056C000D7E900106B460078C979012200F0EEF9A5
:1056D00010B14FF0FF37EFE016B1C820FFF7BCF96B
:1056E00040208DF80000D7E900106B46007809795A
:1056F000012200F0DBF910B14FF0FF37DCE0782039
:105700008DF80000D7E900106B4600784979012236
:1057100000F0CCF910B14FF0FF37CDE03220FFF7A9
:105720009BF900208DF80000D7E900106B46007847
:105730004979012200F0BAF910B14FF0FF37BBE010
:10574000D7E900106B460078897A022200F0A4F9AC
:1057500010B14FF0FF37AFE0BDF800004AF6AB21C3
:1057600000BA000CCAF6AA21A0FB0101C1F3C709C7
:105770000020B9F1000FC5E90000A860C4E90000ED
:10578000A0603ED00026E846D7E900100C22007841
:10579000C97A434600F080F9002840F08B80BDF8BC
:1057A0000000BDF80210BDF8042090FA80FCD4E996
:1057B000003009BA92FA82FEA26803EB2C4300EB98
:1057C000214002EB2E41C4E90030BDF80600A16083
:1057D000BDF8081090FA80FCBDF80A20D5E9003029
:1057E00009BA92FA82FEAA6803EB2C4300EB21402F
:1057F0000136C5E90030F0B202EB2E418145A960C7
:10580000C2D895E841018322C117090441EA104139
:10581000000400230027FAF704FD4A460023FAF7A4
:1058200000FD2860F017000440EA1641300483228E
:105830000023FAF7F6FC4A460023FAF7F2FC686008
:105840004FEAE870000440EA18414FEA084083221A
:105850000023FAF7E6FC4A460023FAF7E2FCA860C8
:10586000D4E90006A568C117490141EAD0614001A9
:105870004A460023FAF7D5FC2060F017400140EAC1
:10588000D66170014A460023FAF7CBFC6060E81746
:10589000400140EAD56168014A460023FAF7C1FC9D
:1058A0004FF480310028C4BF0021CFF6FF710844B7
:1058B000A06001E04FF0FF37384603B0BDE8F08349
:1058C00070B582B040F21C02C2F2000252680C466F
:1058D00011780DF10506054608460D2103223346D1
:1058E00000F0DAF810B1072002B070BD9DF8050095
:1058F0009DF806109DF8072000F01F008DF80500A8
:1059000001F01F008DF8060002F01F009FED2C0A29
:105910009FED2E2A9FED2C5A9FED2A6A8DF80700E5
:105920004FF0000CB2EE041A4FF0010EB3EE093A3C
:10593000BFEE004A0023002006E000BF0EFA03F18C
:1059400008430133032B38D055F8231054F8232093
:10595000891A48BF494207EE101AF15CB8EEC77ABF
:1059600027EE007AF1B1F15CF0EE430A0139F1540F
:1059700009060AD0F15CF0EE430A00BF01390A06BD
:1059800060EE860AFAD106F803C087EE207A37EE79
:10599000047AB0EEC77AB4EE457AF1EE10FAD0DDB3
:1059A000CCE700BFB4EE417AF1EE10FAC6DBB4EEFC
:1059B000427AF1EE10FAC4DDC0E702B070BD00BF5C
:1059C0000000803754E3853F295C0F3E0000D2423F
:1059D000F0B581B01C4615460E460746FDF7F0F8B7
:1059E00040B37F00F8B2FDF7BDF8FDF747F918B3F3
:1059F0003046FDF7B7F8FDF741F9FDF7E1F847F05C
:105A00000100C0B2FDF7AEF8FDF738F94DB9012439
:105A100013E000BFFDF726F8013D280604F101045C
:105A2000F5D0FDF76BF8E9B201292070F2D1FDF74E
:105A30003FF8F1E7002402E00024FDF7F9F82046E2
:105A400001B0F0BDF0B581B01C4615460E460746C4
:105A5000FDF7B6F8C0B17800C0B2FDF783F8FDF7E6
:105A60000DF998B13046FDF77DF8FDF707F94DB116
:105A70002078FDF777F8FDF701F938B1013D04F121
:105A80000104F5D1012402E0002402E00024FDF726
:105A9000CFF8204601B0F0BD80B5FFF799FF002197
:105AA000002808BF4FF0FF31084680BD80B5FFF7E2
:105AB000C9FF0021002808BF4FF0FF31084680BD14
:105AC000B0B540F20C04C2F20004204600F00EF81B
:105AD0000546E01C00F00AF845EAC005A01D00F0EC
