:020000040800F2
:1000000008AC00209D010008694C0008A53E0008CE
:10001000654C0008D90A0008AD6A0008000000001D
:10002000000000000000000000000000A1560008D1
:10003000650D000800000000A14D00087161000876
:10004000B7010008B7010008B7010008B7010008B0
:10005000B7010008B7010008B7010008B7010008A0
:10006000B7010008B7010008B7010008B701000890
:10007000B7010008B7010008B7010008B701000880
:10008000E50A0008B7010008B7010008B701000839
:10009000B7010008B7010008B7010008B701000860
:1000A000B7010008B7010008B7010008B701000850
:1000B000B7010008B7010008B7010008B701000840
:1000C000B7010008B7010008B7010008B701000830
:1000D000B7010008C5690008DD690008B70100081C
:1000E000B7010008B7010008B7010008B701000810
:1000F000B7010008B7010008B7010008B701000800
:10010000B7010008B7010008B7010008B7010008EF
:10011000B7010008B7010008B701000845620008F0
:10012000B7010008F50A0008050B0008B701000830
:10013000B7010008B7010008B7010008B7010008BF
:10014000B7010008B7010008B7010008B7010008AF
:10015000B7010008B7010008B7010008ED69000801
:10016000B7010008B7010008B7010008B70100088F
:10017000B7010008B7010008B7010008000000003F
:10018000B7010008B7010008DFF80CD000F0D8FB79
:1001900000480047917F000808AC002006488047CF
:1001A00006480047FEE7FEE7FEE7FEE7FEE7FEE75C
:1001B000FEE7FEE7FEE7FEE731620008890100087E
:1001C0002DE9F05F0546002092469B46884606468C
:1001D000814640241BE0284641464746224600F01F
:1001E000B0FA53465A46C01A914110D311461846E8
:1001F000224600F097FA2D1A67EB01084F46224677
:100200000120002100F08EFA17EB00094E41201E5C
:10021000A4F10104DFDC484631462A464346BDE8E6
:10022000F09F2DE9F0410024061B254671F10006E0
:1002300005DA01240027D0EB070067EB0101161E49
:1002400073F1000605DA0027D2EB0702012567EB00
:100250000303FFF7B5FF86460E4617469C46AC42A1
:1002600004D00025D0EB050E65EB010624B100207B
:10027000D2EB000760EB030C704631463A4663460A
:10028000BDE8F08140EA01039B0703D009E008C9FB
:10029000121F08C0042AFAD203E011F8013B00F84B
:1002A000013B521EF9D27047D2B201E000F8012B97
:1002B000491EFBD270470022F6E710B513460A46E6
:1002C00004461946FFF7F0FF204610BD30B505463D
:1002D0002A460B4612F8010B13F8014B08B1A04255
:1002E000F8D01CB1002802D06D1CF1E7284630BDC3
:1002F00010B5044604E00B7800F8013B03B1491C3B
:10030000521EF8D2204610BD421C10F8011B0029D5
:10031000FBD1801A704730B504460020034600E048
:100320005B1C934203D2E05CCD5C401BF8D030BD37
:1003300030B505460020034600E05B1C934205D221
:10034000EC5CC85C201A01D1002CF6D130BD2DE93F
:10035000FE4F804681EA0300C00F0C46009021F05A
:10036000004123F00045B8EB0200A94105D2404608
:10037000214690461C460B46024623F0004010439F
:1003800047D0270DC7F30A00C3F30A510290401A61
:10039000019040286BDAC3F3130040F4801B0098EF
:1003A000924620B10023D2EB030A63EB0B0B0198BA
:1003B0005946C0F14002504600F0B4F906460D46D9
:1003C00050465946019A00F0CCF910EB0800614103
:1003D000002487EA115284EAE7731A4340D0009A56
:1003E00062B3019A012A4FEA075215DC001B61EB48
:1003F00002014FF0004202EA0752CDE90042001C20
:1004000041F5801132462B4600F003FA03B0BDE8F7
:10041000F08F40462146F9E7001B61EB0201001C0A
:1004200041F5801300185B412018A2F5001747EB37
:10043000030140EAD570B6196D4111E06D084FEA2D
:10044000360645EAC0754FEA0752001B61EB020110
:10045000001C41F5801149084FEA30000019514154
:1004600032462B4603B0BDE8F04F00F0C3B9009808
:10047000012240000023D0EB020263EBE0730098FE
:1004800021464FEAE074B8EB000061EB0401E9E7B4
:1004900083F000435BE781F0004158E72DE9FE4F10
:1004A00081EA030404F0004421F0004100944FF07D
:1004B000000B23F0004350EA01045ED052EA03042B
:1004C0005BD0C3F30A54C1F30A552C44A4F2F334AD
:1004D0000194A0FB0254C1F3130141F48011C3F352
:1004E000130343F4801301FB024400FB034E840A10
:1004F000970A44EA815447EA8357A4FB07680295A8
:100500008D0A05FB07854FEA932C04FB0C54270545
:10051000029D4FEA065847EA1637B5EB08056EEB21
:10052000070C870E920E47EA811742EA8312A7FB57
:100530000201B6EB0B0164EB00042B0D43EA0C3314
:100540005E1844EB1C50DA465146E7FB0201C5F346
:1005500013044FEA0B3343EA14534FEA0432019C6D
:1005600043EA0603A4F10C040294009CCDE900B414
:1005700000F04FF903B0BDE8F08F00200146F9E725
:100580002DE9F04D81EA030404F0004B21F0004511
:1005900014464FF0000A23F0004150EA050220D033
:1005A00054EA01021DD0C5F30A570246C5F31303EE
:1005B000C1F31300C1F30A5640F4801543F48013CD
:1005C000A7EB0608101BD64608F2FD3873EB0500B2
:1005D00002D308F1010801E092185B41B8F1000F65
:1005E00003DA00200146BDE8F08D00204FF48011B1
:1005F000064684460EE0171B73EB050705D3121B56
:1006000063EB050306434CEA010C49084FEA30004E
:1006100092185B4150EA0107EDD152EA030012D073
:1006200082EA040083EA0501084305D0101BAB41B0
:1006300006D20122002306E000224FF0004302E030
:100640006FF0010253101AEB06004CEB085110EB4F
:100650000A0041EB0B01BDE8F04D00F0CBB80EB540
:10066000C10F80EAE0700844CA07002140F233431A
:100670008DE80E000A460B4600F0CBF803B000BD33
:100680000EB540F2334102910021CDE900110A4636
:100690000B4600F0BEF803B000BD00F0004230F0A1
:1006A00000400AD0C10D01F56071C0F3160042EAA6
:1006B0000151C208400711437047002001467047AE
:1006C00001F0004330B421F0004150EA010206D0AD
:1006D0000A0DA2F56072C1F31301002A02DC30BCDE
:1006E00000207047440F44EAC104C100E01830BC48
:1006F00000EBC25000F047B830B50B460146002071
:100700002022012409E021FA02F59D4205D303FAD3
:1007100002F5491B04FA02F52844151EA2F1010254
:10072000F1DC30BD202A04DB203A00FA02F100207F
:1007300070479140C2F1200320FA03F3194390401F
:100740007047202A04DB203A21FA02F0002170478A
:1007500021FA02F3D040C2F1200291400843194629
:100760007047202A06DBCB17203A41FA02F043EA11
:10077000E07306E041FA02F3D040C2F1200291405A
:100780000843194670470029A8BF7047401C49001C
:1007900008BF20F00100704710B4B0FA80FC00FAE6
:1007A0000CF050EA010404BF10BC704749B1CCF111
:1007B000200421FA04F411FA0CF118BF012121439D
:1007C0000843A3EB0C01CB1D4FEA00614FEA102058
:1007D00042BF002010BC704700EBC35010440029FA
:1007E000A4BF10BC7047401C490008BF20F00100A6
:1007F00010BC704710B5141E73F1000408DA401CD9
:1008000041F1000192185B411A4301D120F001002F
:1008100010BD2DE9F04D92469B4611B1B1FA81F21F
:1008200002E0B0FA80F220329046FFF77BFF0446E8
:100830000F4640EA0A0041EA0B0153465A46084374
:1008400013D0114653EA010019D0C8F140025046B6
:10085000FFF777FF05460E46504659464246FFF7DA
:1008600061FF084305D0012004E020463946BDE879
:10087000F08D0020054346EAE0762C4337430A9882
:100880006305E40AA0EB08000022FD0A44EA47548D
:100890000A3002D500200146E9E701051019694137
:1008A000DDE9084500196941BDE8F04DA2E7C1F353
:1008B0000A52C1F3130140F2FF3341F480119A420E
:1008C00002DA00200146704740F233439A42A2F216
:1008D000334202DC5242FFF734BFFFF723BF000070
:1008E00030B5041E71F1000404DB4FF000444042B7
:1008F00064EB0101141E73F1000405DB1C464FF08C
:100900000043524263EB04038B4208BF824230BD76
:1009100030B5041E71F1000404DB4FF00044404286
:1009200064EB0101141E73F1000405DB1C464FF05B
:100930000043524263EB0403994208BF904230BD2A
:10094000064C074D06E0E06840F0010394E807001C
:1009500098471034AC42F6D3FFF71AFC081F010881
:10096000281F01082DE9F04D00231A461B1A8A4161
:1009700003DB00200146BDE8F08DC1F30A52C1F34C
:10098000130141F480154FF0000BD10702D100187C
:100990006D41521E0027044640F2FF11384601EB1C
:1009A000620A3E468046024600204FF48011FFF75F
:1009B000C8FEC2197141BB1846EB0100B4EB030C31
:1009C00075EB000C04D3E41A65EB000517460E46E0
:1009D000241908F101006D4180463428E3DDF9193E
:1009E00046EB0600091BA84103D24FF0FF32134625
:1009F00001E0002213461BEB070046EB0A51BDE85D
:100A0000F04DFFF7F7BE70B5C1F30A5201F0004593
:100A10000024C1F3130140F2FF3341F480119A42E4
:100A200001DA002070BD40F233439A42A2F2334211
:100A300003DC5242FFF785FE00E090402C43F1D0EA
:100A4000404270BD70B541F20844C2F20004054650
:100A500020460E4602F0EAFB701E062888BF70BDD5
:100A60000DA030F8160044F24021C0F20F01B1FB96
:100A7000F0F02168C862E0604008486308F0A8F917
:100A800040F2B0412844C2F2000108602046002133
:100A900002F03EFE70BD00BFEE010B024C0294025C
:100AA000BA0210037003DC0310B540F2B044C2F286
:100AB0000004206870B108F08BF92168884238BFC3
:100AC00010BD0020206041F20840C2F20000002169
:100AD00002F0B0FE10BD0000FEE7000041EA002079
:100AE0007047000080B541F24830C2F2000001F0CA
:100AF0001FFD80BD80B541F2A830C2F2000001F0B8
:100B000017FD80BD80B541F2E820C2F2000001F07F
:100B10000FFD80BDD0F800C06FF00F024AF6AB2386
:100B200052FA8CF2CAF6AA230146A2FB033000094E
:100B300005A31B5C40F2FF302CEA00005F2A88BF4F
:100B40000430C1E91603704700061016000610169F
:100B50008269816AB2F5005F06D06AB9022912D0B3
:100B6000012914D0D1B90EE0032917D8DFE801F02C
:100B7000020B020F0120704703293CBF0120704780
:100B80001CBF00207047C06AC0F300607047C06A95
:100B9000A0F1C070B0FA80F04009704700207047A3
:100BA00080B5D0F800C0D0F808E0DCF80000BEF155
:100BB000400F20F48020CCF800000846CCF8043028
:100BC00004BF10460A46CCF80800CCF80C2080BDC3
:100BD00070B514460D46064604F028FACC2000F005
:100BE00061F84E2000F05EF8204600F05BF82846E1
:100BF00000F058F8304600F055F804F017FACC2011
:100C000000F050F8482000F04DF841F20004C4F222
:100C1000020400BF2046012101F0CAFE0028F9D0DD
:100C200070BD000070B541F20004C4F20204204619
:100C30000121012201F0C2FE052006F021F908255C
:100C4000204601210022C6F3460601F0B7FE05202A
:100C500006F016F920460121012201F0AFFE052021
:100C600006F00EF92046012101F0A2FE00284FF007
:100C7000410018BF66F07F0606F002F92046012108
:100C8000012201F09BFE013D2806D9D1F0B270BDD2
:100C900080B504F0CBF9CC2000F004F8442000F03B
:100CA00001F880BDF0B581B041F200040546082688
:100CB000C4F2020420460121002201F07FFE05203B
:100CC00006F0DEF805F0010220460121EFB201F046
:100CD00075FE412006F0D4F820460121012201F0E2
:100CE0006DFE022006F0CCF8013E30064FEA5705B3
:100CF000E0D101B0F0BD000080B586B000200590C5
:100D0000CDE90300CDE90100009043F63000C4F2C4
:100D10000200016841F010010160006801A900F0C3
:100D20001000009000980120CDE9010041F2000080
:100D3000C4F2020001F070FD06B080BD4EF6FC501A
:100D4000CEF20000016841F08071016041F20000C4
:100D5000CEF20000016841F0010101600021416014
:100D6000704700007047000070B504464D1E00201B
:100D70002A1A215CB2FA82F2461C5209C0B205F06E
:100D8000CFFE012008F014F8042E3046F0D170BDDB
:100D90002DE9F04381B00646147803F007000D46B4
:100DA0000FF21401089F01EB800140F260099046A8
:100DB000C2F20009DFE800F00414233241505F6EF4
:100DC00099F81C0061B2421E18BF0122B1F1FF3F29
:100DD000D8BF0246B0B2A9B204F04EFB013F6CD0BE
:100DE00099F81C00731C421E18BF0122610648BFFF
:100DF0000246A9B298B204F03FFB013F5DD099F8DA
:100E00001C00B31C421E18BF0122A10648BF0246A7
:100E1000A9B298B204F030FB013F4ED099F81C0003
:100E2000F31C421E18BF0122E10648BF0246A9B2C8
:100E300098B204F021FB013F3FD099F81C00331D0C
:100E4000421E18BF0122210748BF0246A9B298B22C
:100E500004F012FB013F30D099F81C00731D421EB4
:100E600018BF0122610748BF0246A9B298B204F038
:100E700003FB013F21D099F81C00B31D421E18BF8F
:100E80000122A10748BF0246A9B298B204F0F4FAC1
:100E9000013F12D099F81C00F31D421E18BF012219
:100EA000E10718BF0246A9B298B204F0E5FA013F83
:100EB00003D018F8014F083682E701B0BDE8F0838F
:100EC000B0B586B001F056F94EF28C00C0F60000C5
:100ED00001F0AAFA002001F09DFA41F62940C0F67F
:100EE00001000021002201F0E3F9012001F092FA53
:100EF00041F62040C0F6010000210D2201F0D8F992
:100F000041F60640C0F6010000211A2201F0D0F996
:100F100041F6FD30C0F601000021272201F0C8F99A
:100F200041F64040C0F601000021342201F0C0F932
:100F300034200021802201F0E3F930200021342206
:100F400001F000FA41F26950C2F200000078022874
:100F500036D0012858D0002840F07781C9A032212E
:100F6000002201F0A5F9CAA032211A2201F0A0F94D
:100F700042F6EC20C2F200000068FFF78EFB01ACE5
:100F800002460B46C5A1204609F00AFF20465A2119
:100F90000D2201F08DF941F26850C2F20000017893
:100FA00041F6564241F60F40C0F60102C0F601007C
:100FB000002908BF10465A21272201F079F944E19F
:100FC00041F2E025C2F20005B5F9002001ACA1A173
:100FD000204609F0E5FE20463221002201F068F9A2
:100FE000B5F90010B5F90000012931DB372148437C
:100FF000C11700EB5140462101EBE03246200D21A4
:10100000102301F0A3F935E040F2A845C2F2000533
:10101000B5F9002001AC95A1204609F0C1FE20469B
:101020003221002201F044F9B5F90010B5F90000B1
:10103000012943DB37214843C11700EB51404621CA
:1010400001EBE03246200D21102301F07FF947E04B
:10105000B0F1FF3F0EDCB5F9000037214843C1175E
:1010600000EB5140462101EBE03246201E212123B6
:1010700001F064F941F2E225C2F20005B5F9002061
:1010800001AC76A1204609F08BFE204632211122C8
:1010900001F00EF9B5F90010B5F90000012943DBA4
:1010A00037214843C11700EB5140462101EBE032A4
:1010B00046201E21212301F049F947E0B0F1FF3F0E
:1010C0000EDCB5F9000037214843C11700EB514051
:1010D000462101EBE03246201E21212301F02EF9AA
:1010E00040F2AA45C2F20005B5F9002001AC61A1A9
:1010F000204609F055FE20463221112201F0D8F891
:10110000B5F90010B5F90000012943DB3721484348
:10111000C11700EB5140462101EBE03246201E2171
:10112000212301F013F947E0B0F1FF3F0EDCB5F9E0
:10113000000037214843C11700EB5140462101EB25
:10114000E03246200D21102301F0F8F841F2E425A9
:10115000C2F20005B5F9002001AC42A1204609F019
:101160001FFE20463221222201F0A2F8B5F900101C
:10117000B5F90000012943DB37214843C11700EBD3
:101180005140462101EBE03246202F21322301F06D
:10119000DDF85AE0B0F1FF3F0EDCB5F90000372171
:1011A0004843C11700EB5140462101EBE032462095
:1011B0000D21102301F0C2F840F2AC45C2F2000547
:1011C000B5F9002001AC2DA1204609F0E9FD20462B
:1011D0003221222201F06CF8B5F90010B5F90000B7
:1011E000012920DB37214843C11700EB514046213C
:1011F00001EBE03246202F21322301F0A7F824E052
:10120000B0F1FF3F21DCB5F9000037214843C11799
:1012100000EB5140462101EBE03246202F213223E2
:1012200001F08CF811E0B0F1FF3F0EDCB5F90000E1
:1012300037214843C11700EB5140462101EBE03212
:1012400046202F21322301F079F801F003F906B08E
:10125000B0BD00BF67783A253664000067793A254B
:1012600036640000677A3A253664000061783A25D2
:101270003664000061793A2536640000617A3A25C7
:1012800036640000B5B1C7B0CEC2B6C83A0000009F
:10129000D5F0B6AFB1A8BEAF3A000000252E31663A
:1012A000A1E60000B0B588B000F064FF4EF28C00FB
:1012B000C0F6000001F0B8F841F62940C0F6010080
:1012C0000021002200F0F4FF002001F0A3F841F615
:1012D0002040C0F6010000210D2200F0E9FF0120AE
:1012E00001F098F841F60640C0F6010000211A22EC
:1012F00000F0DEFF41F6FD30C0F60100002127229C
:1013000000F0D6FF41F64040C0F601000021342233
:1013100000F0CEFF34200021802200F0F1FF3020C9
:101320000021342201F00EF841F26950C2F20000AF
:101330000078042833D8DFE800F003567EA4CA0002
:1013400020203321802200F0DBFF42F6EC20C2F2A5
:1013500000000068FFF7A1F902460B4674A10DF1E9
:10136000020009F01DFD41F28C250024C2F20005A7
:101370002A19295D537804F1330004F1340200F096
:10138000C7FF01344C2CF3D1332400BF2046162173
:1013900000F0D0FFA01CC4B2812CF7D3AEE040F225
:1013A000B440C2F200000068FFF777F90B4641F63F
:1013B00032410246C0F601010DF1020009F0F0FCD5
:1013C00041F29C150024C2F2000500BF2A19295DD4
:1013D000537804F1330004F1340200F099FF013432
:1013E0004C2CF3D18AE020203321802200F088FFAA
:1013F00040F2B440C2F200000068FFF74EF90B461D
:1014000041F632410246C0F601010DF1020009F039
:10141000C7FC41F29C150024C2F200052A19295D7F
:10142000537804F1330004F1340200F071FF013409
:101430004C2CF3D162E020203321802200F060FFA9
:1014400040F2B840C2F200000068FFF726F90246F9
:101450000B4633A10DF1020009F0A2FC41F2EC159C
:101460000024C2F2000500BF2A19295D537804F157
:10147000330004F1340200F04BFF01344C2CF3D163
:101480003CE020203321802200F03AFF40F2BC40B3
:10149000C2F200000068FFF700F902460B461CA1EB
:1014A0000DF1020009F07CFC41F23C250024C2F25F
:1014B000000500BF2A19295D537804F1330004F1B7
:1014C000340200F025FF01344C2CF3D116E041F238
:1014D0008C10C2F2000090ED000A41F29010C2F2AE
:1014E0000000D0ED000A41F29410C2F2000090ED2D
:1014F000001A012058211C2203F0B4FC0DF1020057
:101500003321002200F0D4FE00F0A4FF08B0B0BDEB
:10151000BABDCFF2BDC73A252E3166A1E300000067
:10152000BAE1B9F6BDC73A252E3166A1E300000045
:10153000CEC2B6C83A252E3166A1E600B0B588B055
:1015400000F018FE4EF28C00C0F6000000F06CFFB8
:1015500041F62940C0F601000021002200F0A8FE5B
:1015600041F62040C0F6010000210D2200F0A0FE4F
:10157000002000F04FFF41F60640C0F601000021B8
:101580001A2200F095FE012000F044FF41F6FD30E4
:10159000C0F601000021272200F08AFE41F64040FB
:1015A000C0F601000021342200F082FE40F2D8454E
:1015B000C2F2000505F545603221002200F078FEF8
:1015C00041F6BA30C0F6010032210C2200F070FE64
:1015D0000DF102041EA1204641F2E10209F0E0FBF8
:1015E00020463221182200F063FE95F8B21C41F625
:1015F000CB3241F6C830C0F60102C0F60100002926
:1016000008BF10463221242200F052FE41F2981009
:10161000C2F20000017841F6194241F61240C0F6CC
:101620000102C0F60100002908BF10465021242203
:1016300000F03EFE34200021802200F061FE3020C8
:101640000021342200F07EFE00F004FF08B0B0BD9F
:10165000B6CBBFDA3A25643A0000000080B500F04E
:1016600089FD4EF28C00C0F6000000F0DDFE41F670
:101670002940C0F601000021002200F019FE41F6C9
:101680002040C0F6010000210D2200F011FE41F6BD
:101690000640C0F6010000211A2200F009FE0020D9
:1016A00000F0B8FE41F6FD30C0F60100002127220F
:1016B00000F0FEFD012000F0ADFE41F64040C0F616
:1016C00001000021342200F0F3FD342000218022AB
:1016D00000F016FE30200021342200F033FE00F02E
:1016E000B9FE80BDB0B541F26454C2F20004256871
:1016F00007F06EFBA5B1216801F5FA61884211D9A6
:1017000007F066FB216841F288321144884215D9FE
:1017100007F05EFB216801F5FA5188422DD90020BF
:101720002060B0BD00F026FD4EF26C00C0F6000057
:1017300000F07AFE1BA040210C2219E000F01AFDF7
:101740004EF24C00C0F6000000F06EFE1CA04021DE
:10175000002200F0B7FD1EA06021102200F0B2FDB3
:101760001EA04021202200F0ADFD20A060213222E9
:1017700000F0A8FD00F06EFEB0BD00F0FBFC40F6EE
:101780004C70C0F601000021002200F0B5FD40F6CB
:101790003C70C0F601004021002200F0ADFD00F0D9
:1017A00059FEB0BDB7C0BBF0A1A2B7C0B5C1D4B699
:1017B0000AB3CCBCE0B2E2C6F7C9E8BCC600000080
:1017C000B3C9D4B1313AD6DCBFACCEC400000000FE
:1017D000313830343138333800000000B3C9D4B167
:1017E000323ABAFAD1E5B3C90000000031383034DA
:1017F000313831340000000070B582B00446006812
:101800000168C9060CD50021019101680191416868
:101810000191019941F20041C4F20101884201D0D5
:1018200002B070BD204602F057F841F2A830C2F273
:101830000000006840F2FF32416842F2E820C1F542
:101840008065511A40F2FD32C2F2000091420560FB
:1018500007D8012D08D142F2EC61C2F200010978EB
:1018600011B9002101600DE041F6E866C2F2000600
:1018700042F2EC61C2F2000130462A46FEF702FD58
:1018800000207055002042F2EC6184F83C00C2F266
:10189000000120464FF4806202F07CFA02B070BD75
:1018A0002DE9F04381B0002846D01E4690460746F9
:1018B0000D46FEF729FD0446013840F2FE3188420C
:1018C0003AD840F2D849C2F2000948463946224681
:1018D000FEF7D8FC0027012E09F80470C9F89C4CCB
:1018E000C9F8A07CC9F8988C4FF0010498BF26462F
:1018F00089F8AC6CA5B12846FEF706FD044609F54B
:101900008066304629462246FEF7BCFC3755C9F8AA
:10191000A84C89F8B37C89F8B17C01B0BDE8F083AC
:1019200009F580604FF48061FEF7C5FCC9F8987C2A
:10193000C9F8A87C89F8B14C01B0BDE8F08300007B
:1019400070B5A2B00C46054600F058FB02AE11A2DD
:10195000304680212B46009409F008FA41F6C83140
:10196000C0F6010130464FF4FA720323FFF798FFE7
:1019700000F044FB40F2D840C2F2000090F8B11CE5
:10198000002918BF012180F8B21C90F8B10C22B0D8
:1019900070BD00BF41542B43495053544152543DF4
:1019A00022544350222C222573222C25640D0A0038
:1019B00010B500F023FB41F6C8310CA0C0F60101C0
:1019C0004FF47A720323FFF76BFF00F017FB40F22E
:1019D000D844C2F2000404F5406104F6284206A08F
:1019E00009F0B4F994F8B10C10BD00BF41542B4379
:1019F000494653520D0A00004553502061705F6103
:101A00006464723A25730A45535020737461745F9D
:101A1000616464723A25730A00000000B0B540F2B8
:101A2000D84441F22050C2F20004C2F20000C4F8CF
:101A30008C0C0025012084F8AF5C84F8B05C84F83D
:101A4000B15C84F8AC5C84F8B25C84F8B30C41F609
:101A5000E860C2F2000084F8AE5CC4F8985CC4F898
:101A6000A45CC4F8900C42F2E820C2F20000C4F872
:101A7000940C04F500604FF48061FEF71CFC2046D6
:101A80004FF48061C4F8A45CFEF715FC04F5806097
:101A90004FF48061C4F89C5CC4F8A05CFEF70BFCBA
:101AA000C4F8A85C04F020FBB0BD000080B500F0D5
:101AB000A5FA41F6C8310AA0C0F601014FF4FA7246
:101AC0000323FFF7EDFE00F099FA40F2D840C2F28E
:101AD000000090F8B11C80F8B01C90F8B00C80BDEC
:101AE00041540D0A0000000070B5A2B00C46054636
:101AF00000F084FA02AE0DA2304680212B460094FD
:101B000009F034F941F6C831C0F6010130464FF40E
:101B1000FA520223FFF7C4FE00F070FA40F2D840F8
:101B2000C2F2000090F8B10C22B070BD41542B43BA
:101B3000574A41503D222573222C222573220D0A3B
:101B4000000000002DE9F04F81B040F2D844C2F20D
:101B5000000494F8AF0C40B3D4F8940C006808B3B8
:101B6000D4F8940C04F5006A0068C4F8A40CD4F806
:101B7000A40CB0F5806F24BF40F2FF30C4F8A40C71
:101B8000D4F8901CD4F8A42C5046FEF77BFBD4F874
:101B9000A40C00210AF80010D4F8940C016094F809
:101BA000AF0C38B301B0BDE8F08F94F8AC0C00284E
:101BB000D2D007F00DF9D4F8A01CD4F8982C114419
:101BC0008842C9D307F004F9C4F8A00C75A02146D7
:101BD00009F0BCF8D4F88C0CD4F89C1C4FF6FF73B9
:101BE0008AB2214602F0F6F894F8AC0C013884F879
:101BF000AC0CB1E7D4F8A80C0028D3D094F80008B6
:101C00000028CFD004F580654FF000096CA704F5DB
:101C1000456604F5406B00BF2846FEF775FB02469B
:101C200050462946FEF784FB30B9012084F8AC9C6D
:101C300084F8B10C84F8B30C50465DA1FEF746FB66
:101C40000AF1020840450DD050465BA1FEF73EFB6D
:101C500040450CD194F8B20C48B194F8B20C01385C
:101C600003E000BF94F8B20C013084F8B20C504687
:101C700039460722FEF75CFB00B3504652A10B2207
:101C8000FEF756FB60B3504652A1FEF71FFB5045CE
:101C900043D2504653A1FEF719FB50454ED30E30A8
:101CA000002100BF425C222A6DD0002A6BD063184D
:101CB00001310F2983F8282CF4D13FE00AF1080103
:101CC00030462822FEF714FB017819B1222901D0F1
:101CD0000130F9E780F80090DA4531D358E000BFD1
:101CE0000AF10C0A0021002009E000BF0130214464
:101CF00081F8782CC1B211290AF1010A1ED29AF892
:101D000000203A2AF6D0222A01D0002AEED160180B
:101D100080F8789CDA4513D33AE00D30002100BFFB
:101D2000425C222A07D032B1631801310F2983F8AF
:101D3000002CF5D102E0601880F8009CDA4527D22B
:101D4000504600BF0178E1B10D2907D00A2905D01E
:101D5000013083458246F5D11AE000BF00F1010A47
:101D6000DA4506D314E000BF013004F6FF318142AA
:101D700004D041780D29F7D00A29F5D000F1010AE5
:101D800006E0824604E0601880F8289CDA45D7D344
:101D9000DA45BFF407AF9AF8000000287FF43CAFA3
:101DA00000E700BF455350202D2D3E202573000035
:101DB000434F4E4E45435400434C4F53454400005F
:101DC0002B43575341503A002B4349505354414DF4
:101DD00041433A002B43494653523A415049502C13
:101DE000000000002B43494653523A535441495096
:101DF0002C00000070B5A0B0044600F0FFF840F2DF
:101E0000D846C2F200062CB341F6CF626D46C0F64A
:101E1000010228468021234608F0A8FF41F6C83475
:101E2000C0F60104284621464FF4FA720323FFF757
:101E300037FD00F0E3F81CA021464FF4FA720323AB
:101E4000FFF72EFD96F8B10C00281CBF012086F884
:101E5000AF0C22E0002041F6584186F8AF0C16A0E6
:101E6000C0F601014FF47A720123FFF719FD00F06B
:101E7000C5F841F6CF626C46C0F6010220468021CB
:101E8000002308F073FF41F6C831C0F60101204677
:101E90004FF4FA720323FFF703FD00F0AFF896F852
:101EA000B10C20B070BD00BF41542B434950534585
:101EB0004E440D0A000000002B2B2B00B0B5A0B043
:101EC000044600F09BF86D460CA22846802123466C
:101ED00008F04CFF41F6C831C0F6010128464FF426
:101EE000FA720323FFF7DCFC00F088F840F2D840D8
:101EF000C2F2000090F8B10C20B0B0BD41542B43A9
:101F000049504D55583D25640D0A0000B0B5A0B0AC
:101F1000044600F073F86D460FA228468021234640
:101F200008F024FF41F6C831C0F6010128464FF4FD
:101F3000FA720323FFF7B4FC00F060F840F2D840D7
:101F4000C2F2000090F8B11C002918BF80F8AD4C17
:101F500090F8B10C20B0B0BD41542B43574D4F44C5
:101F6000453D25640D0A000070B5A2B00D4604463B
:101F700000F044F894B102AE15A230468021234609
:101F8000009508F0F3FE41F6C831C0F60101304675
:101F90004FF4FA720323FFF783FC09E041F6C831DE
:101FA00011A0C0F601014FF4FA720323FFF778FC89
:101FB00000F024F840F2D840C2F20000002C18BF14
:101FC000012480F8AE4C90F8B10C22B070BD00BF77
:101FD00041542B4349505345525645523D25642C9C
:101FE00025640D0A0000000041542B43495053451D
:101FF000525645523D300D0A0000000010B540F227
:10200000D844C2F2000407E094F8AF0C002818BFCF
:1020100010BD642006F0CCFE94F8AC0C0028F3D17F
:1020200010BD0000EFF3108072B600BFFEE70000A5
:1020300080B50D2808BF80BD0A2802D100F0B4F891
:1020400080BD40F26001C2F2000109690968884759
:1020500080BD000010B582B0944602884388B0F875
:1020600004E0846808466146CDF800E0019402F07F
:10207000C7F802B010BD00002DE9F04383B040F274
:102080006008C2F20008D8F810500446A969084652
:10209000214600F03DF8C0B301884668671A06EB98
:1020A000C70999F80240B8F91400B8F9161016F8E3
:1020B00037202B7DD9F80450CDE9004502F0A0F877
:1020C000D8F81000027D417D914213D9B8F8140070
:1020D000B8F8163016F8377098F81C601A440744A0
:1020E0000B44013E91B2BAB29BB218BF01260096D2
:1020F00003F002F9D8F8100099F80110807DB8F8C3
:10210000142010FB0120A8F8140003B0BDE8F083F0
:1021100005E000BF42888A4228BF7047806818B136
:1021200002888A42F6D9F9E770470000B0B540F25C
:102130006001C2F200010D690446A9690846214602
:10214000FFF7E6FF38B101884068611A10F83100E6
:10215000A97D4843B0BD0020B0BD0000012008802B
:102160007047000080B58069FFF7D2FF002818BFD4
:10217000012080BD80B50020002100F023F900205F
:1021800000218022402300F001F880BD80B582B09C
:102190004FF0000C80B289B292B29BB2CDF800C071
:1021A00003F0AAF802B080BD80B500F0EBF840F271
:1021B0006001C2F20001CA8A1044C88280BD0000DA
:1021C000002808BF70472DE9F04F83B0074600F0A4
:1021D000D9F840F26006C2F20006B6F814A08346B1
:1021E00000F0D8F8F18A0090081AF08211E000BFE0
:1021F000708B00F0030001380228504628BF0020F1
:10220000B08238780A2808BFF48217F8010B00283A
:1022100041D0387800283ED0384647F6FF7100F0AC
:102220002BF905463846294600F022F9718B01F05A
:102230000301012906D0022912BF002100EBD07151
:10224000491000E00146B28AB6F81690511A01EB27
:102250000008A8F1010009EB0B04ADF80800601EAE
:10226000B182ADF80410ADF80A003846294601AA3B
:10227000ADF8069000F0F2F838462946A6F8169018
:1022800000F0E6F8395C07440D29B1D00A29AFD037
:10229000A6F81480B9E7F08A00990844718BF0829F
:1022A00021F00300708303B0BDE8F04F70470000D9
:1022B00080B540F26003C2F200039982DA82FFF730
:1022C0007FFF80BDF0B581B00D4640F26001C2F2E3
:1022D0000001B1F91A10064641F00200144600F060
:1022E000ADF80746304629462246FFF7E1FF38465B
:1022F00000F0A4F801B0F0BD80B5FFF7ABFE80BDE3
:1023000080B503460846194601F0C4FF80BD0000B1
:1023100080B582B040F2600CC2F2000C9CF81CC088
:1023200080B289B292B29BB2CDF800C003F010F82F
:1023300002B080BD80B501F0D3FF80BD80B504F050
:1023400079FC80BD80B501F0E7FF80BDF0B581B0BC
:1023500099420BDA1C4615460E460746384631466A
:102360002A4601F097FF0136B442F7D101B0F0BD23
:1023700080B540F26001C2F20001096949688847EE
:1023800080BD000040F26000C2F200000069407DA4
:102390007047000040F26000C2F20000418B01F083
:1023A0000C010C2918BF082903D10069007D4008E1
:1023B000704704291CBF002070470069007D013868
:1023C0007047000010B50C4604F096FC204604F05F
:1023D00099FC002010BD000080B540F28000C2F2E0
:1023E00000002E21017040F260007F22C2F2000046
:1023F0000021C0F23F02C0E900124CF6A442C0F630
:102400000002C0E9042101214172017703F0C4F800
:10241000002080BD40F26001C2F200010A7F8242CA
:1024200018BF08777047000040F26002C2F2000255
:1024300001461069002918BF1161704740F260031E
:10244000C2F20003B3F91A10024608465A837047D5
:102450000846704780B503F049F880BD80B5126822
:1024600040F26003C2F200035A6104F0C3FB80BD76
:1024700080B504F0FBFB80BD80B504F01FFC80BD7F
:1024800070B5866D044600F09FFA94F83510022965
:1024900028D105462068216C026822F016020260ED
:1024A000426922F08002426109B9A16C19B1016848
:1024B00021F008010160016821F00101016000BF05
:1024C00020680068C00714D000F07EFA401B062880
:1024D000F6D320206065002084F83400032084F8BF
:1024E000350070BD80206065002084F83400012034
:1024F00070BDE06D3F2101FA00F0B06000200121C5
:1025000084F8340084F8351070BD000090F8351060
:10251000022909D1052180F835100068016821F0F1
:102520000101016000207047802141650120704752
:10253000F0B581B004460020009040F20800C2F2DD
:1025400000000268D4E9166048F2B5133768082124
:10255000C1F64E3381403942A2FB03250CD02268DC
:1025600013685B0708D5136823F004031360B16098
:10257000616D41F00101616501218140394208D05E
:1025800022685269120604D5B160616D41F0020102
:10259000616504218140394208D02268126892079F
:1025A00004D5B160616D41F0040161651021814085
:1025B000394215D020680268120711D5B16002684F
:1025C0000168520306D4C90506D4016821F0080148
:1025D000016001E0080342D4216C09B1204688471C
:1025E000E16D202000FA01F23A4244D020680368ED
:1025F000DB0640D5B26094F835300268052B1ED159
:1026000022F016020260426922F080024261226CCE
:102610000AB9A26C1AB1026822F0080202603F20D7
:102620008840B060002084F83400012084F8350030
:10263000216D002940D02046884701B0F0BD0168D7
:10264000520310D4C90512D4016821F010010160B1
:10265000002084F83400012084F8350007E0A16CE4
:102660000029BBD1BCE7080301D4616C00E0E16B39
:1026700009B120468847606DF0B1606DC00717D082
:10268000052084F835002068A90A026822F00102BA
:10269000026000BF009A01328A42009202D80268AA
:1026A000D207F7D1002084F83400012084F83500E7
:1026B000E16C09B12046884701B0F0BD2DE9F04139
:1026C000044600F081F9C4B10546002084F83400C6
:1026D000022084F835002068016821F001010160C2
:1026E00026683068C0070BD000F06EF9401B052843
:1026F000F6D903212022032042E00120BDE8F08129
:10270000306848F23F01CFF21001251D00EA010CAC
:102710002ECDD4E9050E41EA0C011143194329439A
:10272000D4E90778084340EA0E01606A3943042877
:1027300041EA080103D1D4E90B2311431943316065
:102740007169042821F0070141EA00050CD1D4E9A0
:102750000A1045EA010538B12046FEF7F9F918B12B
:102760000121402201200BE020467561FEF7D2F9DD
:10277000E16D3F2202FA01F1816000220121002077
:10278000626584F83510BDE8F0810000B0B50446FC
:1027900090F83400012828D0012084F83400A56D79
:1027A00094F8350001281DD1022084F8350000205E
:1027B00060652046FEF7F4F9E26D3F23206803FAD6
:1027C00002F2216CAA60026842F01602026019B19E
:1027D000016841F008010160016841F001010160F8
:1027E0000020B0BD002084F834000220B0BD0000FD
:1027F000B0B5044600F0E8F8054640F24800C2F2E1
:1028000000000078611C18BF044400BF00F0DCF831
:10281000401BA042FAD3B0BD2DE9F04F83B000F1C8
:102820003E4202F1FF724FEAB22241F600470192A6
:10283000C4F2020708224FF0010E00254FF0000AF3
:102840004FF00008B84208BF072200920AE000BF1C
:1028500008F101080AF1040AB8F1100F05F10205A8
:1028600000F0A2800C680EFA08FB14EA0B09EFD006
:102870004C6804F0030CACF1010EBEF1010F12D84C
:1028800082680323CE6803FA05F7BA4306FA05F710
:102890003A4382604268C4F3001722EA0B0207FA47
:1028A00008F73A434260BCF1030F1CD0C26803230F
:1028B0008E6803FA05F7BA4306FA05F73A43BCF106
:1028C000020FC2600FD16FF0030202EA5802024405
:1028D0000AF01C060F23176A03FA06F40B69A743D4
:1028E000B3403B431362026803234F68AB409A43F3
:1028F00007F00303AB401A43FB004FF0010E0260E8
:10290000A6D5002243F644030292C4F202031A68D9
:1029100043F6004442F480421A601A68C4F201048B
:1029200002F480420292029A28F003024FF6084B0A
:102930002244CFF6FF7B52F80B300AF00C070F262B
:10294000BE4023EA060C019B009E072B38BF1E46A3
:1029500006FA07F747EA0C0342F80B3022684B6887
:1029600042EA0907DE0358BF22EA090727606268C6
:102970009E0342EA090758BF22EA09076760A26876
:10298000DE0242EA090758BF22EA0907A76043F6B8
:102990000C47C4F201073A689B0242EA090358BF98
:1029A00022EA09033B6053E703B0BDE8F08F000063
:1029B0000069084018BF012070470000002A08BFC6
:1029C00009048161704700004AF22800C2F2000049
:1029D0000068704740F248004AF22801C2F2000045
:1029E000C2F2000100780A681044086070470000D5
:1029F00080B543F60040C4F20200016841F4007162
:102A00000160016841F480610160016841F48071F6
:102A10000160032000F088F8002000F005F800F0C5
:102A20004BF8002080BD000010B586B0014637206D
:102A30000022002400F068F8372000F061F843F627
:102A400040000194C4F20200016841F020010160DD
:102A50000068694600F020000190019801A800F08C
:102A600017F900F03BF94DF683614000C4F21B31C9
:102A7000A0FB01014FF0FF3000EB914141F25040CB
:102A800041F20042C2F20000C4F2000240F2E73319
:102A9000C0E90021C0E90243046100F07DFB10B1F0
:102AA000012006B010BD41F25040C2F2000000F01B
:102AB0000DFC06B010BD000080B582B0002043F6CA
:102AC00040010190C4F202014A6842F480424A6027
:102AD0004A6802F480420192019A0090086800223C
:102AE00040F08050086008680F2100F0805000908E
:102AF00000986FF0010000F007F802B080BD000000
:102B000080B504F005F980BD70B514460D46064643
:102B100004F00EF92946224602F0A8F80146304694
:102B200004F00EF970BD000080B504F023F980BDFB
:102B30002DE9F041002800F08B8043F60808C4F22C
:102B400002080446D8F8F8030D4600F00700884252
:102B500007D288F8F853D8F8F80300F00700A84225
:102B600076D12068810717D5410705D5D8F8001020
:102B700041F4E051C8F80010010705D5D8F800105D
:102B800041F46041C8F80010D8F80010A26821F0A4
:102B9000F0011143C8F80010C0073FD1D8F8F8037E
:102BA00000F00700A84207D988F8F853D8F8F803CE
:102BB00000F00700A8424BD12068410707D5D8F89C
:102BC0000010E26821F4E0511143C8F8001000073A
:102BD00008D5D8F80000216920F4604040EAC1001F
:102BE000C8F8000000F09EF8D8F800104CF6D63275
:102BF000C1F30311C0F60002515C40F2080220FA52
:102C000001F140F24C00C2F200000068C2F2000282
:102C10001160FFF709FF0020BDE8F0816068811EA8
:102C2000022907D258F8081C89015CBF0120BDE8C1
:102C3000F08110E0012807D158F8081C89035CBF17
:102C40000120BDE8F08106E058F8081C890702D48D
:102C50000120BDE8F081D8F8001021F003010843FD
:102C6000C8F80000FFF7B0FE064641F2883700BF03
:102C7000D8F80000616800F00C00B0EB810F8DD037
:102C8000FFF7A2FE801BB842F2D90320BDE8F08115
:102C90000F22026043F60802C4F20202136803F036
:102CA00003034360136803F0F0038360136803F4C5
:102CB000E053C360D2F800C04FF4E05303EADC03F2
:102CC0000361D2F8F80300F00700086070470000C5
:102CD00040F20800C2F200000068704780B5FFF7BC
:102CE000F7FF43F60801C4F2020109684CF6E63228
:102CF000C1F38221C0F60002515CC84080BD0000D3
:102D000080B5FFF7E5FF43F60801C4F20201096848
:102D10004CF6E632C1F34231C0F60002515CC840C5
:102D200080BD000010B543F60404C4F202046068DC
:102D300000F00C0142F200400829C0F2F40007D074
:102D4000042918BF10BD41F20020C0F27A0010BD66
:102D5000216801F03F02216823684902C3F388110A
:102D600005D4A1FB00010023FDF72AFA06E041F299
:102D70000020C0F27A004843B0FBF2F02168022242
:102D8000C1F3014102EB4101B0FBF1F010BD0000C5
:102D90002DE9F04182B0002800F0A28004460078BE
:102DA00043F60006C007C4F2020643D0B06800F044
:102DB0000C00042805D1306880033BD56068C8BB8F
:102DC0008EE0B06800F00C00082802D17068400264
:102DD000F1D46568B5F5A02F0AD0B5F5803F0BD0CA
:102DE000306820F480303060306820F4802006E0C5
:102DF000306840F480203060306840F480303060CB
:102E0000FFF7E2FD002D054611D000BF30688003BA
:102E100010D4FFF7D9FD401B6428F7D922E100BF89
:102E2000FFF7D2FD401B64284FF0030055D83068EF
:102E30008003F5D4207880071AD5B06810F00C0F05
:102E400009D0B06800F00C00082840F08A80706853
:102E5000400200F186803068800702D5E0680128D2
:102E60003ED13068216920F0F80040EAC1003060AE
:102E70002078000738D4207840074CD4A5695DB38A
:102E8000B06800F00C00082840F09E80012D27D08B
:102E90007068E16900F480028A4221D1216A00F061
:102EA0003F028A421CD147F6C071626A0140B1EB11
:102EB000821F15D1A26A0023CFF6FF7303EBC23243
:102EC00000F440316FF30F02914209D1E16A00F042
:102ED0007060B0EB016F03D1002002B0BDE8F0815B
:102EE000012002B0BDE8F0816069002840F20000D6
:102EF000C4F2472057D00121C0F8801EFFF764FDBF
:102F0000054600BF706F8007B5D4FFF75DFD401B1D
:102F10000228F7D9A6E0306C10F080580AD10020C2
:102F20000190306C40F080503064306C00F0805084
:102F30000190019847F20007C4F200073868C00505
:102F400024D4386840F480703860FFF73DFD0546B2
:102F50003868C0051AD4FFF737FD401B0228F7D99F
:102F600080E0E068002851D00020C4F24720012111
:102F70000160FFF729FD0546306880073FF571AF16
:102F8000FFF722FD401B0228F6D96BE0A568052D4E
:102F900050D0012D52D0306F20F001003067306FDB
:102FA00020F004004DE00021C0F8801EFFF70CFD6A
:102FB000054600BF706F80077FF55DAFFFF704FD2A
:102FC000401B0228F6D94DE00027C4F24727002015
:102FD0003866FFF7F9FC022D05460BD130688001F9
:102FE00058D5FFF7F1FC401B02284FF00300F5D93C
:102FF00073E700BF306880017FF56EAFFFF7E4FC38
:10300000401B02284FF00300F4D966E70020C4F209
:10301000472000210160FFF7D7FC05463068800794
:103020007FF526AFFFF7D0FC401B02284FF00300CE
:10303000F4D952E7306F40F004003067306F40F051
:1030400001003067FFF7C0FC002D054641F28837CC
:1030500014D000BF306F800713D4FFF7B5FC401BBE
:10306000B842F7D9032002B0BDE8F081FFF7ACFC0D
:10307000401BB8424FF003003FF62FAF306F800780
:10308000F4D4B8F1000F7FF4F9AE306C20F080502A
:103090003064F3E604F11C052FCD08430021CFF680
:1030A000FF7140EA821001EBC3316FF30F0140EA78
:1030B00005600843706001203866FFF785FC044610
:1030C000306880013FF508AFFFF77EFC001B022847
:1030D0004FF00300F4D900E770470000704700008C
:1030E00010B590F83C20012A4FF0020252D0012383
:1030F00080F83C3080F83D200268D2F804E0D2F835
:1031000008C00C682EF07003234341F2FF74C4F230
:103110000004A24253600DDC40F2FF73C4F20003CE
:103120009A4215DCB2F1804F29D040F20043C4F23C
:10313000000322E040F2FF33C4F201039A4212DCA2
:1031400041F60003C4F200039A4218D0002312E0B3
:1031500040F60003C4F200039A4210D040F6004348
:10316000C4F2000309E044F20003C4F201039A42EE
:1031700005D040F20043C4F201039A4204D14968E9
:103180002CF08003194391600121002280F83D104A
:1031900080F83C20104610BD002804BF0120704775
:1031A00010B5044690F83D0028B9002084F83C0092
:1031B000204600F01FF8022084F83D002068211D01
:1031C00003F048F8012084F8460084F83E0084F8B3
:1031D0003F0084F8400084F8410084F8420084F8FD
:1031E000430084F8440084F8450084F83D00002042
:1031F00010BD000081B0006840F20041C4F200013F
:10320000884201D001B070470020009043F6400092
:10321000C4F20200016841F002010160006800F0A0
:1032200002000090009801B07047000090F83D1037
:1032300001291CBF01207047022180F83D10006861
:1032400041F2FF71C4F2000188420DDC40F2FF71CF
:10325000C4F20001884215DCB0F1804F29D040F261
:103260000041C4F2000122E040F2FF31C4F201014A
:10327000884212DC41F60001C4F20001884218D0F5
:10328000002112E040F60001C4F20001884210D093
:1032900040F60041C4F2000109E044F20001C4F22A
:1032A0000101884205D040F20041C4F20101884288
:1032B00006D1816801F00701062904BF002070478C
:1032C000016841F0010101600020704790F83D1055
:1032D00001291CBF01207047022180F83D100068C1
:1032E00041F2FF72C168C4F20002904241F0010154
:1032F000C1600DDC40F2FF71C4F20001884215DCB0
:10330000B0F1804F29D040F20041C4F2000122E028
:1033100040F2FF31C4F20101884212DC41F60001A3
:10332000C4F20001884218D0002112E040F60001EA
:10333000C4F20001884210D040F60041C4F20001FE
:1033400009E044F20001C4F20101884205D040F2D4
:103350000041C4F20101884206D1816801F00701F1
:10336000062904BF00207047016841F00101016097
:103370000020704710B5044690F83C0001284FF03B
:10338000020008BF10BD012284F83C2084F83D00F3
:1033900020684FF6777382689A4382600A683F2AF2
:1033A00014DD5F2A18DD602A28D0B2F5005F2DD029
:1033B000702A40D1D1E9012CCB68614602F0EEFFC2
:1033C0002068816841F07701816034E01F2A0FDCBA
:1033D00092B1102A10D02EE0402A23D0502A2AD1B0
:1033E0004B68CA68194603F0B1F82068502120E004
:1033F000202A01D0302A1ED111461AE04B68CA6833
:10340000194603F0B5F82068602112E0D1E9012CDB
:10341000CB68614602F0C2FF2068816841F48041B8
:10342000816008E04B68CA68194603F08FF820688D
:10343000402102F0BFFF012084F83D00002084F805
:103440003C0010BD7047000010B5044600680169DB
:10345000890744BFC1685FEA817138D42068016977
:10346000490744BFC1685FEA41713CD420680169E3
:10347000090744BFC1685FEA017141D4206801694E
:10348000C90644BFC1685FEAC16145D420680169CB
:10349000C9071CBFC1685FEAC1714AD120680169D0
:1034A000090644BFC1685FEA016149D42068016927
:1034B000490644BFC1685FEA416148D42068016998
:1034C000890644BFC1685FEA816147D410BD6FF0CF
:1034D00002010161012121778069800745D02046E2
:1034E000FFF7B0FF47E06FF004010161022121778F
:1034F000806910F4407F41D02046FFF7A3FF43E0EE
:103500006FF00801016104212177C06980073ED076
:103510002046FFF797FF40E06FF01001016108219E
:103520002177C06910F4407F3AD02046FFF78AFF28
:103530003CE06FF001010161204600F0BDF9ADE70C
:103540006FF0800101612046FFF7C6FDAEE76FF026
:1035500040010161204600F0BBF9AFE76FF02001A8
:1035600001612046FFF7BAFD10BD204600F050F87B
:10357000204600F0CBF8002020776FE7204600F0CF
:1035800047F8204600F0C2F8002020776EE720467A
:1035900000F03EF8204600F0B9F8002020776DE7F3
:1035A000204600F035F8204600F0B0F800202077E3
:1035B0006CE7000080B586B040F200410068C4F2BC
:1035C0000001002288420592CDE903220292019275
:1035D00001D006B080BD43F630000092C4F2020074
:1035E000036843F002030360006800F002000090EB
:1035F0000098102001900220CDE90202CDE90420BC
:1036000001F5003001A9FFF707F906B080BD000001
:1036100070470000B0B5044690F83C00012804BF94
:103620000220B0BD4FEAB2000D460121032884F804
:103630003C1036D8DFE800F0020A12222068294642
:1036400002F0C0FE206850F8181F0EE020682946DE
:1036500002F0EAFE206850F8181F16E0206829469C
:1036600002F018FF206850F81C1F41F008010160AB
:10367000016821F00401016029690FE020682946F2
:1036800002F03CFF206850F81C1F41F4006101600B
:10369000016821F48061016029690902026811430F
:1036A0000160002084F83C00B0BD0000002804BF89
:1036B0000120704710B5044690F83D0028B900205D
:1036C00084F83C00204600F01FF8022084F83D00FA
:1036D0002068211D02F0BEFD012084F8460084F818
:1036E0003E0084F83F0084F8400084F8410084F8EC
:1036F000420084F8430084F8440084F8450084F8CC
:103700003D00002010BD0000704700007047000021
:1037100010B5044641B1082909D0042914BF04F1A9
:10372000410004F13F0004E004F13E0001E004F137
:103730004000007801281CBF012010BD022041B1CB
:10374000082909D0042914BF84F8410084F83F00F7
:1037500004E084F83E0001E084F840002068012283
:1037600002F00AFE206841F2FF71C4F200018842B3
:103770000FDC40F2FF71C4F20001884217DCB0F1A7
:10378000804F49D040F20041C4F20001884243D04A
:1037900049E040F2FF32C4F20102904214DC41F6EB
:1037A0000003C4F20003984236D0002314E040F630
:1037B0000001C4F2000188422ED040F60041C4F25C
:1037C0000001884228D02EE044F20003C4F2010335
:1037D000984221D040F20043C4F20103984222D122
:1037E000436C884243F400434364C2DD904207DCEB
:1037F00041F60001C4F2000188420DD0002107E02B
:1038000044F20001C4F20101884205D040F20041B7
:10381000C4F20101884206D1816801F0070106293E
:1038200004BF002010BD016841F0010101600020CB
:1038300010BD0000B0B50446006800220D4602F03D
:103840009BFD206840F2004240F48061C4F2010216
:1038500091420DD1016A41F21112114208D1016A5F
:1038600040F24442114203D1416C21F400414164D1
:10387000016A41F21112114208D1016A40F2444238
:10388000114203D1016821F0010101600120082DDE
:1038900009D0042D0BD0002D14BF84F8410084F80A
:1038A0003E000020B0BD84F840000020B0BD84F888
:1038B0003F000020B0BD000080B5006841F200412B
:1038C000C4F20001884208BFFFF784F880BD000001
:1038D000704700007047000010B504460068416959
:1038E00094F83D20212A0ED111F080010BD04169BE
:1038F00021F080014161606B002818BFFEF7C0FD18
:10390000204602F001FF2068416994F83E20222AF7
:103910000ED111F040010BD0416921F0400141610D
:10392000A06B002818BFFEF7ABFD204602F0CAFED0
:10393000002010BD70470000B0B582B00168054698
:103940000868CA684C6900F02F03202B02F020039E
:1039500005D123B1284602F0E1FE02B0B0BD5FEA16
:10396000007C1EBF04F0010E02F4907414EB0E04F0
:1039700024D12B6B1040C20617D5012B15D1002086
:1039800001900868019048680190019848694006D4
:103990001CD4A88DEA8DEB8D002B1CBF801A5FEA2A
:1039A000004240F09B8002B0B0BD010637D4400613
:1039B000F9D5284602F09CFE02B0B0BDC10718BF81
:1039C00012F4807130D1410734D43AE0A86B026818
:1039D000526893B2002BE6D0AC8DA342E3D2EA85C5
:1039E000C269B2F5807F16D0CA6822F48072CA60BC
:1039F0004A6922F001024A614A6922F040024A61A2
:103A0000202285F83E2000222A63CA6822F0100294
:103A1000CA60FEF735FDA88DE98D401A6FE0284693
:103A200002F074FF02B0B0BD296C41F001012964BD
:103A3000410706D5BEF1000F03D0296C41F0020109
:103A40002964810706D5BEF1000F03D0296C41F02F
:103A500004012964BCF1000F06D55EEA030103D01E
:103A6000296C41F008012964296C00299BD0104081
:103A7000800602D5284602F051FE28684069296C6C
:103A800000F0400001F00801401820D0284602F064
:103A900019FE28684169490614D5416921F04001A1
:103AA0004161A86B70B146F2F951C0F600010165A1
:103AB000FEF72CFD00283FF476AFA86B016D884718
:103AC00002B0B0BD2846FFF735FF02B0B0BD2846B2
:103AD000FFF730FF0020286402B0B0BDCA6822F4AE
:103AE0009072CA604A6922F001024A61202285F878
:103AF0003E2000222A63CA6822F01002CA6081B206
:103B00002846FFF7E7FE02B0B0BD0000002804BF62
:103B10000120704710B5044690F83D0028B90020F8
:103B200084F83C00204600F021F8242084F83D0071
:103B30002068C16821F40051C160204602F03EFEB9
:103B40002068016921F490410161416921F02A0155
:103B50004161C16841F40051C1600020202120640E
:103B600084F83D1084F83E1010BD000070B586B09A
:103B70000446006844F20041C4F200010026884275
:103B8000CDE90466CDE9026601965BD041F20041C1
:103B9000C4F20101884200F09E8041F20001C4F2AB
:103BA0000101884240F0F380002643F63000009681
:103BB000C4F20200416941F010014161416901F024
:103BC0001001009100990096016841F00101016027
:103BD000006801A900F00100009000984FF4C06057
:103BE00001900220CDE902060320049007200590F1
:103BF0000020C4F20200FEF70FFE46F28800C4F275
:103C0000020041F2E82500F56E70C2F200054FF0A7
:103C100000614FF4806285E843002846C5E90362ED
:103C2000C5E90566C5E907666E62FEF747FD00282F
:103C300000F09E80FEF7F6F941F2E8252526C2F253
:103C400000059AE043F630000096C4F202000169D4
:103C500041F400310161016901F4003100910099E2
:103C60000096016841F001010160006801A900F0BF
:103C70000100009000980C2001900220CDE902067E
:103C800003200490072005900020C4F20200FEF7F4
:103C9000C3FD41F2483546F28800C2F20005C4F285
:103CA00002004FF000614FF4806285E8430028462F
:103CB000C5E90362C5E90566C5E907666E62FEF7F8
:103CC000FDFC002856D0FEF7ADF941F24835262616
:103CD000C2F2000551E0002643F630000096C4F21F
:103CE0000200416941F020014161416901F0200178
:103CF000009100990096016841F00401016000689C
:103D000001A900F0040000900098C020019002205A
:103D1000CDE9020603200490082005900020C4F29B
:103D2000020000F50060FEF777FD46F28800C4F25D
:103D3000020041F2A83500F56870C2F200054FF0AC
:103D400020614FF4806285E843002846C5E903629C
:103D5000C5E90566C5E907666E62FEF7AFFC58B1B6
:103D6000FEF760F941F2A8354726C2F2000504E0EB
:103D7000252602E0262600E04726304605210022BF
:103D8000A563AC63FEF7C0FE3046FEF7B9FE06B091
:103D900070BD000010B590F83E30202B0BD10029EB
:103DA0004FF0010418BF002A01D1204610BD90F841
:103DB0003C30012B01D1022010BD0123002480F8EA
:103DC0003C30046302F068FD204610BD70470000DF
:103DD000704700002DE9F04381B0044690F83D00A3
:103DE00020280BD10E4600294FF0010055D0174670
:103DF000002A52D094F83C00012803D1022001B0DF
:103E0000BDE8F083012084F83C004FF00009212038
:103E10001D46C4F8409084F83D00FEF7D5FDA78408
:103E2000E784A1680746B1F5805F07D120690028C3
:103E30001CBF30464E46B046064601E04FF0000833
:103E400084F83C9007E000BF16F8010B2168486039
:103E5000E08C0138E084E08C80B1204680213A4635
:103E60002B4602F07DFD80B9002EEDD138F8020B13
:103E700021686FF35F2048600026E9E72046402173
:103E80003A462B4602F06CFD18B1032001B0BDE8A4
:103E9000F083202084F83D00002001B0BDE8F083CD
:103EA00070470000FEE7000010B540F20044C4F285
:103EB000020420464FF400410022FEF77FFD00F08F
:103EC0003BF920464FF400510022FEF777FD00F049
:103ED00033F920464FF400410122FEF76FFD00F058
:103EE0002BF920464FF400410022FEF767FD00F059
:103EF00023F910BD10B540F20044C4F2020420467C
:103F00004FF400410022FEF759FD00F015F920465C
:103F10004FF400510122FEF751FD00F00DF920464B
:103F20004FF400410122FEF749FD00F005F920465B
:103F30004FF400410022FEF741FD00F0FDF810BDF6
:103F400070B540F20044C4F2020420464FF4005120
:103F50000122FEF733FD0826002500BF20464FF45E
:103F600000410022013EFEF729FD00F0E5F8204661
:103F70004FF400410122FEF721FD00F0DDF820465C
:103F80004FF40051FEF714FD002818BF0120310640
:103F900040EA4505E2D120464FF400410022FEF7F9
:103FA0000DFDE8B270BD000070B540F2004405465A
:103FB0000726C4F2020400BF20464FF4004100224D
:103FC000FEF7FCFC00F0B8F8E8B2C20920464FF456
:103FD0000051FEF7F3FC6D0000F0AEF820464FF400
:103FE00000410122FEF7EAFC00F0A6F83006A6F137
:103FF0000106E1D120464FF400410022FEF7DEFC2D
:1040000070BD0000B0B540F20044C4F20204204686
:104010004FF400510122FEF7D1FC20464FF400413D
:104020000122FEF7CBFC00F087F820464FF4005148
:10403000FEF7BEFC80B120464FF40051002200255F
:10404000FEF7BCFC00F078F820464FF40051FEF774
:10405000AFFC18B12846B0BD0020B0BD20464FF4DB
:1040600000510022FEF7AAFC00F066F80125284660
:10407000B0BD000010B540F20044C4F20204204676
:104080004FF400410022FEF799FC00F055F820465D
:104090004FF400510022FEF791FC00F04DF820464D
:1040A0004FF400410122FEF789FC00F045F820465C
:1040B0004FF400510122FEF781FC00F03DF810BDE5
:1040C000B0B540F20044C4F2020420464FF400416F
:1040D0000022FEF773FC00F02FF820464FF4005149
:1040E0000122FEF76BFC00F027F820464FF4004158
:1040F0000122FEF763FC00F01FF820464FF4005148
:10410000FEF756FCB0FA80F0450920464FF4004116
:104110000022FEF753FC2846B0BD000081B00A2003
:104120000090009830B100BF0098013800900098CE
:104130000028F9D101B0704781B00A2000900098A2
:1041400030B100BF00980138009000980028F9D1E4
:1041500001B0704780B50020FDF74CFEFDF7A6FCCE
:1041600050B30120FDF7D2FE14A01AA1FDF7BCFC4C
:1041700010B3FDF71DFC00200021FDF7F5FE002027
:10418000FDF79CFE40F2D840C2F2000000F6284144
:1041900013A006F0DBFD41F6BA30C0F6010041F293
:1041A000E101FDF7CDFB002808BF80BD0120FDF730
:1041B00021FE0FA008F0B4FB80BD00BF50616E640B
:1041C0006F7261426F782D322E34472D343335466D
:1041D000334300003133303038393835333632002C
:1041E00053746174696F6E2069703A25730A000018
:1041F00045535020496E6974204F4B210000000048
:104200002DE9F04383B040F26006C2F200068E460C
:10421000B6F90210DDF82C90DDF82880A1EB0E072E
:104220009C46012F06DBACEB0703012B2FDB07FBC2
:10423000089901E063467146B6F906700CEB0E056D
:10424000FF432F44012F02DBDB1B012B1FDBB6F9E1
:1042500004401518B6F90070E6432E44002EC8BF7E
:10426000921B87420BDD3F1A27F00706D21B09EB92
:10427000E709304407F00706012A03DA07E00026C1
:10428000012A04DBCDE90089029600F06BF803B047
:10429000BDE8F08380B582B040F2600CC2F2000C41
:1042A000BCF902308B4219DCBCF906308B4215DBBD
:1042B000BCF90030BCF904E08342C8BF18469645FB
:1042C000B8BF7246824209DB9CF81CC089B280B23A
:1042D00092B20B46CDF800C001F03AF802B080BDB2
:1042E00080B540F26002C2F20002B2F902308B42A5
:1042F00011DCB2F906308B420DDBB2F9003083429B
:1043000009DCB2F904308342B8BF80BD127F80B2AD
:1043100089B201F0B1F880BD80B582B040F2600C86
:10432000C2F2000CBCF90030834219DCBCF9043045
:10433000834215DBBCF90230BCF906E08B42C8BFF2
:1043400019469645B8BF72468A4209DB9CF81CC0E4
:1043500080B289B293B20246CDF800C000F0F8FFF7
:1043600002B080BD2DE9F04782B0012B15DBDDF8EE
:104370003080DDE90AA51C4691460E46074600BF7F
:10438000384631462A464346CDF80090FCF700FDFA
:104390005544013C06F10106F2D102B0BDE8F087B8
:1043A00010B5A0F1040C4FF0000E00BF6FF0030336
:1043B000604600BF50F8042FCC1804330C2B626009
:1043C000F8D10EF1010EBEF1040F0CF1100C01F149
:1043D000100108BF10BDE9E72DE9F041A1F1040C7F
:1043E000A2F1040E4FF0000800EB08110A1D01F1C4
:1043F000080401F10C0504267746634691ED000A96
:1044000093ED011A93ED052A20EE010A92ED001AB0
:1044100093ED093A21EE021A94ED002A93ED0D4A2C
:1044200030EE010A22EE031A95ED002A30EE010A61
:1044300022EE041A30EE010A043387ED010A043734
:10444000013EDBD108F10108B8F1040F0EF1100EA6
:1044500008BFBDE8F081C7E72DE9F04381B02DED3D
:104460000A8B8CB00DF11E000DF11D0700900DF1AF
:10447000260008A903AA0BAB019702F06FFEBDF856
:104480001E00C00540F1D1809DED030A9DED041A88
:104490009DED052A9DED063A9FED814AB8EEC00AD2
:1044A00040F21808B8EEC11A41F6D82920EE040AE5
:1044B000C2F2000821EE041AC2F20009B8EEC22AC4
:1044C000B8EEC33A88ED000A89ED001A22EE042AFC
:1044D00023EE043A31EE011A30EE000A21EE031AFF
:1044E00020EE020A41F6DC2641F6E02730EE410AD2
:1044F000C2F20006C2F2000710EE100A86ED002A92
:1045000087ED003AFCF7C9F841EC100B06F074FC9B
:1045100051EC100B9FED600B54EC105B2A462346C8
:10452000FBF7BCFFFCF7CCF841F28C11C2F20001A2
:10453000086096ED009A98ED001A97ED000A99ED43
:1045400000BA39EE09AA31EE011A2AEE000A21EE6C
:104550000B1A30EE010A10EE100AFCF79EF8B8EEC6
:10456000000A2BEE000A2BEE000A29EE0A1A30EEA2
:10457000410AB7EE001A30EE010A41EC180B10EEBA
:10458000100AFCF78AF841EC110BB0EE480AF0EE85
:10459000680A06F04DFF51EC100B2A462346FBF744
:1045A0007DFFFCF78DF841F29011C2F20001086026
:1045B00099ED009A96ED00AA98ED00BA97ED00CA21
:1045C00029EE0A0A2BEE0C1A30EE010A30EE000A30
:1045D00010EE100AFCF761F82BEE0B0A29EE091A0F
:1045E00031EE000A2AEE0A1A30EE410A2CEE0C1ABD
:1045F00030EE410A41EC180B10EE100AFCF74DF8B2
:1046000041EC110BB0EE480AF0EE680A06F010FF1C
:1046100051EC100B2A462346FBF740FFFCF750F8FD
:1046200041F29411C2F200010860BDF81E0010F0C2
:10463000700F14D0BDF8261041F2E022C2F2000241
:104640001180BDF8281041F2E222C2F2000211806E
:10465000BDF82A1041F2E422C2F2000211800007E4
:1046600014D5BDF8200040F2A841C2F20001088034
:10467000BDF8220040F2AA41C2F200010880BDF854
:10468000240040F2AC41C2F2000108800CB0BDEC45
:104690000A8B01B0BDE8F0836666666666A64C408C
:1046A0000000803010B503F065FD00281CBF00201D
:1046B00010BD43A008F034F9782004F0E9FA10B1F5
:1046C000002448A077E041F6A750C0F6010008F0AA
:1046D00027F9782003F074FC10B100244BA06AE0A5
:1046E00041F68450C0F6010008F01AF9322004F0B7
:1046F00089FA28B141F6C6500024C0F601005AE0FC
:1047000041F6F840C0F6010008F00AF902F018FD81
:1047100028B141F6E7500024C0F601004BE041F615
:10472000A540C0F6010008F0FBF803F0FDFB02F025
:10473000DBFE28B141F6A2600024C0F601003AE099
:1047400041F66050C0F6010008F0EAF840F273103C
:1047500002F0CEFB28B141F620600024C0F6010033
:1047600029E041F6D540C0F6010008F0D9F8322022
:1047700002F022FE28B141F64C600024C0F6010090
:1047800019E041F61C50C0F6010008F0C9F805F028
:1047900021F9012004F044F90146B0FA80F04409FF
:1047A00041F6776041F63E52C0F60100C0F60102C4
:1047B000002908BF104608F0B3F8204610BD00BF1E
:1047C0006D707520696E697469616C697A6174696C
:1047D0006F6E20636F6D706C6574652E2E2E2E2E9D
:1047E0002E0000006D70755F7365745F73656E7386
:1047F0006F7220636F6D65206163726F73732065E4
:1048000072726F72202E2E2E2E2E2E006D70755FFE
:10481000636F6E6669677572655F6669666F206350
:104820006F6D65206163726F7373206572726F7252
:10483000202E2E2E2E2E2E0080B582B0002043F684
:1048400030010190C4F202010A6842F400120A60C9
:104850000A6802F400120192019A0090086800228E
:1048600040F4800008600868052100F48000009092
:1048700000981020FEF748F91020FEF741F9392082
:1048800005210022FEF740F93920FEF739F93A20D8
:1048900005210022FEF738F93A20FEF731F902B07F
:1048A00080BD000080B545F655704EF2D002C0F6CE
:1048B0000000C0F60002002104F0C2FA40F29001AC
:1048C000C2F20001086045F651504EF2AC02C0F64B
:1048D0000000C0F60002002104F0B2FA40F28C01A0
:1048E000C2F20001086046F211104EF2F402C0F666
:1048F0000000C0F60002002104F0A2FA40F29C4140
:10490000C2F20001086045F60D504CF67442C0F644
:104910000000C0F60002002104F092FA40F25C01AF
:10492000C2F20001086045F661004CF65042C0F644
:104930000000C0F60002002104F082FA40F25801A3
:10494000C2F20001086080BD2DE9F04F87B000245D
:1049500043F630000694CDE90444CDE902440194C5
:10496000C4F20200016841F2000641F0100101604A
:104970000168C4F2020601F010010191019901944D
:104980000168012241F08001016001684FF0010BD4
:1049900001F08001019101990194016841F0010148
:1049A0000160016801F00101019101990194016820
:1049B00041F002010160016801F0020101910199D9
:1049C0000194016841F004010160016801F00401F3
:1049D000019101990194016841F0080101600068AA
:1049E0004FF47F4100F00800019001983046FDF738
:1049F000E5FFA6F5406738464AF2C0410022FDF7C0
:104A0000DDFFA6F5006948464FF470610022FDF70E
:104A1000D5FFA6F5805840464FF419410022FDF716
:104A2000CDFFA6F5806A504604210022FDF7C6FF9F
:104A3000304601210022FDF7C1FF1E2002A902AD70
:104A400081E8110830462946FDF7E6FE6020CDE9F1
:104A500002040220049030462946FDF7DDFE4FF6A1
:104A60000170CDE9020B30462946CDE90444FDF73B
:104A7000D3FE4FF48060CDE9020B38462946CDE9DC
:104A80000444FDF7C9FE4AF2C00002901120CDE9AE
:104A90000304384629460594FDF7BEFE4FF47060C6
:104AA000CDE9020B48462946CDE90444FDF7B4FEA2
:104AB0004FF41940CDE9020B40462946CDE90444A4
:104AC000FDF7AAFE0420CDE9020B50462946CDE9A8
:104AD0000444FDF7A1FE0820CDE902045046294612
:104AE0000494FDF799FE07B0BDE8F08F10B58EB0C5
:104AF00041F2084040F200420021C2F20000C4F23C
:104B00000002532340F2E7340D91CDE90B11CDE9BA
:104B10000911CDE90711CDE90511CDE90311CDE961
:104B20000111C0E90023C0E9021401618161FEF7AF
:104B300033FB002818BFFDF775FA4FF480500A9038
:104B400041F20840C2F200000AA9FEF713FC002857
:104B500018BFFDF767FA41F20840C2F20000FEF705
:104B6000A5FD002818BFFDF75DFA41F208400024BA
:104B7000C2F2000008A9CDE90844FEF7B1FA002806
:104B800018BFFDF74FFA602001904FF4FA70CDE99D
:104B9000020441F20840C2F2000001A9002205947B
:104BA000FEF738FD002818BFFDF73CFA41F2084037
:104BB000C2F20000FEF7FEFC0EB010BD80B541F25F
:104BC000984041F20001C2F20000C4F2010100234A
:104BD0004FF00C0C4FF4E13280E80E00C0E90333D3
:104BE000C0E905C3C361FEF791FF002818BFFDF7B8
:104BF00019FA80BD80B541F2DC4044F20041C2F2B6
:104C00000000C4F2000100234FF00C0C4FF41642D8
:104C100080E80E00C0E90333C0E905C3C361FEF7B5
:104C200075FF002818BFFDF7FDF980BD80B541F282
:104C3000205041F20041C2F20000C4F20101002301
:104C40004FF00C0C4FF4E13280E80E00C0E9033362
:104C5000C0E905C3C361FEF759FF002818BFFDF77F
:104C6000E1F980BDFEE70000FEE7000000F007006C
:104C700080F00703042B28BF04234FF0FF3C0338C8
:104C80000CFA03F338BF0020994381400CFA00F07E
:104C900022EA00000843704710B540F20044C4F215
:104CA0000204204680210122FDF788FEFFF736FA34
:104CB000204640210122FDF781FEFFF72FFA204612
:104CC00040210022FDF77AFE10BD000070B540F2D1
:104CD0000045C4F202050446284640210022002671
:104CE000FDF76CFEE0B2C20928468021FDF766FEA2
:104CF0006400FFF713FA284640210122FDF75EFE0B
:104D0000FFF70CFA284640210022FDF757FEFFF777
:104D100005FA072E06F10106E4D370BD10B540F286
:104D20000044C4F20204204680210122FDF746FE21
:104D3000204640210122FDF741FEFFF7EFF9204612
:104D400080210022FDF73AFEFFF7E8F920464021D6
:104D50000022FDF733FE10BD10B540F20044C4F24E
:104D60000204204640210022FDF728FE2046802133
:104D70000022FDF723FEFFF7D1F920464021012252
:104D8000FDF71CFE204680210122FDF717FEFFF7EC
:104D9000C5F910BD00000000000000000000000088
:104DA000EFF30980BFF36F8F154B1A681EF0100FD9
:104DB00008BF20ED108A20E9F04F10602DE90900AE
:104DC0004FF0500080F31188BFF34F8FBFF36F8F08
:104DD00005F0F6F84FF0000080F31188BDE80900F7
:104DE00019680868B0E8F04F1EF0100F08BFB0EC6B
:104DF000108A80F30988BFF36F8F704700BF00BF30
:104E0000601600209FED152AB5EE401A20EE020A2A
:104E100031EE023A9FED124AF1EE10FA08BFB0EE01
:104E2000443A80EE030A20EE821A81EE031A02EE63
:104E3000101AB8EEC22A30EE020ABDEEC00A10EE19
:104E4000101A00EE102AB8EEC00A31EE000ABDEECC
:104E5000C00A10EE102AC0E900127047000000449A
:104E6000004000442DE9F04F81B02DED068BAAB033
:104E70001AAD0790284614460E46B0EE418AB0EEB1
:104E8000609AB0EE40AA04F03BFE28466FF007019E
:104E90006FF007026FF0070301F07CFBB0EE000A31
:104EA0002846F0EE400AB0EE401A00F00FFC28460B
:104EB000B0EE4A0AF0EE490AB0EE481A00F0FCF8EB
:104EC0002846002100220023002501F063FB4CF658
:104ED000F030C0F60000A0F1080A0FFA86FB0FFAC6
:104EE00084F80DF1280900BF0AF1080090EC030ACC
:104EF0001AA80AF10C0A05F0B1F808A8594642466A
:104F0000FFF780FFDDE9080148F21F5700F54872FE
:104F1000C5F2EB17A2FB076748F6890649F835008A
:104F2000380A4FF4487701F5F073C8F6880600FB9D
:104F30001720A3FB066409EBC502516049F8350050
:104F4000200A0001A0EB14200135A3EB4010082D2E
:104F50005060C9D10798FDF75DFA0A9C0B9DDDE909
:104F60000C892046294642464B4605940495CDF8C7
:104F70000C80CDF80890FDF7CBF9DDE90E672046EF
:104F8000294632463B4601960097FDF7C1F9109C31
:104F9000119D2046294642464B4607940695FDF74B
:104FA000B7F92046294632463B46FDF7B1F90DF1E7
:104FB000480999E8C0033946304642464B46FDF75A
:104FC000A7F9DDE916AB3046394652465B46FDF798
:104FD0009FF9DDE918454246204629464B46FDF734
:104FE00097F92046294652465B46FDF791F9DDE9DF
:104FF000041032463B46FDF78BF9DDE902104246CC
:105000004B46FDF785F9DDE9001052465B46FDF79A
:105010007FF9DDE9061022462B46FDF779F92AB023
:10502000BDEC068B01B0BDE8F08F000070B541F219
:105030000004C4F20204204601210122FDF7BEFC57
:10504000322001F01DFF2046012100220025FDF73E
:10505000B5FC4FF4FA7001F013FF20460121012244
:10506000FDF7ACFC282001F00BFF20460121FDF7E5
:105070009FFCA8B1002000BF0646012001F000FF00
:1050800020460121FDF794FCB6F5F97F03D80028EE
:1050900006F10100F0D10025B6F5F97F88BF0125A2
:1050A0004FF4FA7001F0ECFE204601210122FDF7D9
:1050B00085FC284670BD00002DE9F0472DED048BDE
:1050C000D0B0804610EE100AB0EE418AB0EE609A81
:1050D000FBF7E3FA9FED840B55EC107B3A462B4629
:1050E000FBF7DCF99FED820B54EC106B3246234644
:1050F000FBF746FAFBF7E4FA824619EE100AFBF7D3
:10510000CCFA3A462B46FBF7C9F932462346FBF761
:1051100037FAFBF7D5FA814618EE100AFBF7BDFA0D
:105120003A462B46FBF7BAF932462346FBF728FAF4
:10513000FBF7C6FA05464FF07E5450462094FBF725
:10514000ACFA41EC180B0026B0EE480AF0EE680A03
:10515000CDE92166CDE9236606F06AFA51EC100B21
:10516000FBF7AEFAB0EE480AF0EE680A259006F0BA
:10517000C3FA51EC100BFBF7A3FAB0EE480A80F02B
:105180000040F0EE680ACDE92606289606F0B4FA4B
:1051900051EC100BFBF794FAB0EE480AF0EE680AF7
:1051A000299006F045FA51EC100BFBF789FACDE98E
:1051B0002A064846CDE92C66CDE92E64FBF76DFA48
:1051C00041EC180BB0EE480AF0EE680A06F030FA2F
:1051D00051EC100BFBF774FAB0EE480AF0EE680AD7
:1051E000CDE9100606F088FA51EC100BFBF768FACF
:1051F000B0EE480AF0EE680ACDE91206CDE9146473
:10520000CDE9166606F078FA51EC100BFBF758FA68
:10521000B0EE480A80F00040F0EE680ACDE91806CA
:1052200006F006FA51EC100BFBF74AFACDE91A0624
:105230002846CDE91C66CDE91E64FBF72EFA41EC49
:10524000180BB0EE480AF0EE680A06F0F1F951ECDE
:10525000100BFBF735FAB0EE480AF0EE680A009042
:1052600006F04AFA51EC100BFBF72AFAB0EE480AA6
:1052700080F00040F0EE680ACDE90106039606F0E2
:105280003BFA51EC100BFBF71BFAB0EE480AF0EEBC
:10529000680A049006F0CCF951EC100BFBF710FAF9
:1052A000CDE909640F9440ACCDE9050620A940463C
:1052B0002246CDE90766CDE90B66CDE90D66FFF71D
:1052C0008BF830AD10A920462A46FFF785F86946CD
:1052D00028464246FFF780F850B0BDEC048BBDE88D
:1052E000F08700BF00BF00BF4AD8124DFB21094024
:1052F00000000000008066402DE9F04381B07F2867
:1053000023D889463F2920D804461044DDF8208060
:105310007F2888BFC4F1800203EB090011193F28E0
:1053200088BFC9F1400300208EB29FB2002500BFA4
:10533000484481B2204632460B46CDF8008000F04A
:1053400007F80135E8B28742F2D201B0BDE8F08338
:105350002DE9F04F85B005467F280C464FF07F01C0
:1053600028BF0D467F2A38BF11463F2C4FF03F0A19
:1053700028BF54463F2B38BF9A46681A38BF481B8F
:10538000BAEB04034FF0FF324FF0FF360E9F88BF99
:105390000126039698BFA4EB0A038D4238BF012271
:1053A000049202043CD006B20FFA83FB5E45CBF1B7
:1053B00000000296D8BF06B2BBF1000F45D00191A4
:1053C000284621463A4600F057F80E9A544502D135
:1053D000019885424CD006EBD6704FEA60080298DF
:1053E000C0F100090FFA88F004994845C8BF0D4480
:1053F00003995845B8BF0C440299AFB2A6B2B8BFE2
:105400008844484538463146C8BFA8EB0B0800F031
:1054100033F80E9A5645E5D101988742E2D127E04C
:10542000A245564638BF2646A94238BF0D46A2457A
:1054300038BF5446A1B228463A4600F01DF8013460
:105440000E9F20B2B042F5DD12E0A2450E4638BFF5
:105450005446A9423CBF2E460D4600BFA8B2214685
:105460003A4600F009F801350E9F28B2B042F5DD4A
:1054700005B0BDE8F08F00007F2898BF3F2900D914
:105480007047B0B540F29403C2F200031B7801F0FC
:10549000070E002B6FF0700303EA011140F298052C
:1054A000B2FA82FC0844C2F2000518BF4FEA5C124F
:1054B0004FF0010C2B5C0CFA0EF123EA0104012AD7
:1054C00008BF43EA01042C54BDE8B0407047000017
:1054D00080B50246002840F29800C2F200004FF466
:1054E000806118BFFF22FAF7DFFE80BDB0B540F241
:1054F00098040025C2F20004A5F15000C0B20021BA
:1055000000F014F80120002100F010F81020002114
:1055100000F00CF820468021402200F01FF80135F1
:10552000082D04F18004E7D1B0BD0000B0B50C46F1
:105530000546FFF7F3FB7820FFF7C8FBFFF7ACFB4E
:105540002046FFF7C3FBFFF7A7FB2846FFF7BEFB8C
:10555000FFF7A2FBFFF700FCB0BD000070B51646D8
:105560000C460546FFF7DAFB7820FFF7AFFBFFF7A5
:1055700093FB3046FFF7AAFBFFF78EFB44B1013DDA
:1055800015F8010FFFF7A2FBFFF786FB013CF7D1EF
:10559000FFF7E2FB70BD000080B56420FDF728F93D
:1055A000AE200021FFF7C2FF20200021FFF7BEFF41
:1055B00010200021FFF7BAFFB0200021FFF7B6FF4F
:1055C000C8200021FFF7B2FF00200021FFF7AEFF47
:1055D00010200021FFF7AAFF40200021FFF7A6FFBF
:1055E00081200021FFF7A2FFFF200021FFF79EFF8F
:1055F000A0200021FFF79AFFC0200021FFF796FFAF
:10560000A6200021FFF792FFA8200021FFF78EFFC0
:105610003F200021FFF78AFFA4200021FFF786FF2B
:10562000D3200021FFF782FF00200021FFF77EFF3B
:10563000D5200021FFF77AFFF0200021FFF776FF49
:10564000D9200021FFF772FF22200021FFF76EFF13
:10565000DA200021FFF76AFF12200021FFF766FF22
:10566000DB200021FFF762FF20200021FFF75EFF13
:105670008D200021FFF75AFF14200021FFF756FF6D
:10568000AF200021FFF752FF0020FFF721FFFFF7B7
:105690002DFF80BD000000000000000000000000A1
:1056A000074B19680868B0E8F04F80F30988BFF32A
:1056B0006F8F4FF0000080F31188704700BF00BF6C
:1056C0006016002080B501F04DFB80BDB0B5A0B0E4
:1056D00004460020CDE90100CDE90300CDE9060034
:1056E000CDE90800CDE90B00CDE90D004FF07E506B
:1056F00010AD0F90694620462A468DED000ACDED8B
:10570000050A8DED0A1AFEF767FE28462146FEF7C8
:1057100047FE20B0B0BD0000B0B541F20004C4F2B5
:10572000020420460221FDF743F9B0FA80F0450952
:1057300020460421FDF73CF9002820464FF00801DF
:1057400008BF0235FDF734F9002820464FF010015C
:1057500008BF0435FDF72CF9002820464FF0200142
:1057600008BF0835FDF724F9012820464FF0400115
:1057700008BF45F01005FDF71BF940F2994CC2F245
:10578000000C012808BF45F020059CF800102A06EF
:1057900015D0EBB28B4212D140F2984EC2F2000EFD
:1057A0009EF80020501CC4B2022C2A4618BF0022CA
:1057B0008B428EF800000ED0022C09D10BE0E8B22B
:1057C00040F29843C2F20003002288421A7002D0CD
:1057D00000228CF80050D0B2B0BD000070B541F28C
:1057E00000040126C4F20204054626EA000220460F
:1057F0004FF48071FDF7E2F826EA550220464FF497
:105800000071FDF7DBF826EA950220464FF480612F
:10581000FDF7D4F826EAD50220464FF40061FDF7E3
:10582000CDF826EA151220464FF48051FDF7C6F850
:1058300026EA551220464FF40051FDF7BFF826EA3C
:10584000951220464FF48041FDF7B8F8E843C0B206
:10585000C20920464FF40041FDF7B0F870BD0000CA
:10586000B0B04FF47A7003F0A3FA02F00BF8FEF731
:1058700019FFC0B220B1B0FA80F04009169013E0D1
:10588000002400BF4FF4FA7003F092FAFEF70AFF0B
:10589000C1B2B1FA81F1032C4FEA5111169103D82C
:1058A000000604F10104EDD000200E9000201490B9
:1058B00000209FEDB59A42F6EC259FEDB4AA9FED2E
:1058C000B4CA41F2981BDFEDB38A9FEDB3FA109092
:1058D0000020C2F20005F3EE0E9AC2F2000BB3EE06
:1058E00004DA00264FF000094FF000081590002060
:1058F0000F9002E0012003F05BFA03F069FA06F56D
:10590000FA71884206D303F063FA064601F0CCFF31
:10591000B0EE408AB4EE498AF1EE10FA4CDA85ED29
:10592000008A03F055FA40F20C01C2F20001098826
:10593000494488422BD303F04BFA95ED000A814687
:1059400040F2C040C2F2000080ED000A39EEC00A09
:10595000149B30EE000A30EE0C0AD8B20133BDEED3
:10596000C00AD9B241F28C224D2910EE101AC2F2AF
:10597000000211540AD341F28C20C2F20000411CF3
:105980004C224C231493FAF77DFC00E0149395ED20
:10599000000AB4EE4A0AF1EE10FA0DDB2868FAF7B5
:1059A0007CFE0246CDA00B4605F0D0F942F6F02071
:1059B000C2F20000012101701698002840F0F0802A
:1059C00003F006FA08F132018842C0F0E98003F0E2
:1059D000FFF98046FEF740FD03F0FAF940F20C01B2
:1059E000C2F200010988109A114488426FD3B2466E
:1059F00003F0EEF941F28C13C2F20003196840F291
:105A0000B44241F29017C2F20002C2F200071160E4
:105A1000396841F2941640F2B844C2F20006C2F26C
:105A200000043268216040F2BC41C2F200010A6009
:105A300093ED000A0E9B20EE0D0A80EE280A41F23B
:105A40009C14DAB2C2F20004013330EE0C0ABDEE4F
:105A5000C00A10EE101AA15497ED000A41F2EC179B
:105A600020EE0D0A80EE0F0AC2F200073CEE400A5B
:105A7000BDEEC00A10EE101AB95496ED000AD9B264
:105A800020EE0D0A80EE0F0A41F23C2610904D29BF
:105A9000C2F200063CEE400ABDEEC00A10EE100A4B
:105AA000B05412D3611C20464C224C230E933C462A
:105AB000FAF7E8FB791C38464C22FAF7E3FB711C35
:105AC00030464C22FAF7DEFB00E00E93564640F2D9
:105AD000A84140F2AA43C2F20001C2F20003B1F9A8
